{
  "_format": "hh3-artifact-1",
  "contractName": "BookingManager",
  "sourceName": "contracts/BookingManager.sol",
  "abi": [
    {
      "inputs": [
        {
          "internalType": "address",
          "name": "_propertyRegistry",
          "type": "address"
        },
        {
          "internalType": "address",
          "name": "_roomTypeNFT",
          "type": "address"
        },
        {
          "internalType": "address",
          "name": "_availabilityManager",
          "type": "address"
        },
        {
          "internalType": "address",
          "name": "_travelerSBT",
          "type": "address"
        }
      ],
      "stateMutability": "nonpayable",
      "type": "constructor"
    },
    {
      "inputs": [],
      "name": "InvalidAddress",
      "type": "error"
    },
    {
      "inputs": [],
      "name": "InvalidBookingIndex",
      "type": "error"
    },
    {
      "inputs": [],
      "name": "InvalidBookingStatus",
      "type": "error"
    },
    {
      "inputs": [],
      "name": "InvalidDateRange",
      "type": "error"
    },
    {
      "inputs": [],
      "name": "InvalidTokenId",
      "type": "error"
    },
    {
      "inputs": [],
      "name": "MustHaveTravelerSBT",
      "type": "error"
    },
    {
      "inputs": [],
      "name": "NoAvailableUnits",
      "type": "error"
    },
    {
      "inputs": [],
      "name": "NotEscrowFactory",
      "type": "error"
    },
    {
      "inputs": [],
      "name": "NotPropertyOwner",
      "type": "error"
    },
    {
      "inputs": [],
      "name": "NotTraveler",
      "type": "error"
    },
    {
      "inputs": [
        {
          "internalType": "address",
          "name": "owner",
          "type": "address"
        }
      ],
      "name": "OwnableInvalidOwner",
      "type": "error"
    },
    {
      "inputs": [
        {
          "internalType": "address",
          "name": "account",
          "type": "address"
        }
      ],
      "name": "OwnableUnauthorizedAccount",
      "type": "error"
    },
    {
      "inputs": [],
      "name": "RoomTypeNotActive",
      "type": "error"
    },
    {
      "anonymous": false,
      "inputs": [
        {
          "indexed": true,
          "internalType": "uint256",
          "name": "tokenId",
          "type": "uint256"
        },
        {
          "indexed": true,
          "internalType": "uint256",
          "name": "bookingIndex",
          "type": "uint256"
        }
      ],
      "name": "BookingCancelled",
      "type": "event"
    },
    {
      "anonymous": false,
      "inputs": [
        {
          "indexed": true,
          "internalType": "uint256",
          "name": "tokenId",
          "type": "uint256"
        },
        {
          "indexed": true,
          "internalType": "uint256",
          "name": "bookingIndex",
          "type": "uint256"
        }
      ],
      "name": "BookingCheckedIn",
      "type": "event"
    },
    {
      "anonymous": false,
      "inputs": [
        {
          "indexed": true,
          "internalType": "uint256",
          "name": "tokenId",
          "type": "uint256"
        },
        {
          "indexed": true,
          "internalType": "uint256",
          "name": "bookingIndex",
          "type": "uint256"
        }
      ],
      "name": "BookingCompleted",
      "type": "event"
    },
    {
      "anonymous": false,
      "inputs": [
        {
          "indexed": true,
          "internalType": "uint256",
          "name": "tokenId",
          "type": "uint256"
        },
        {
          "indexed": true,
          "internalType": "uint256",
          "name": "bookingIndex",
          "type": "uint256"
        }
      ],
      "name": "BookingConfirmed",
      "type": "event"
    },
    {
      "anonymous": false,
      "inputs": [
        {
          "indexed": true,
          "internalType": "uint256",
          "name": "tokenId",
          "type": "uint256"
        },
        {
          "indexed": true,
          "internalType": "uint256",
          "name": "bookingIndex",
          "type": "uint256"
        },
        {
          "indexed": true,
          "internalType": "address",
          "name": "traveler",
          "type": "address"
        },
        {
          "indexed": false,
          "internalType": "uint256",
          "name": "checkInDate",
          "type": "uint256"
        },
        {
          "indexed": false,
          "internalType": "uint256",
          "name": "checkOutDate",
          "type": "uint256"
        },
        {
          "indexed": false,
          "internalType": "uint256",
          "name": "totalPrice",
          "type": "uint256"
        }
      ],
      "name": "BookingCreated",
      "type": "event"
    },
    {
      "anonymous": false,
      "inputs": [
        {
          "indexed": true,
          "internalType": "address",
          "name": "previousOwner",
          "type": "address"
        },
        {
          "indexed": true,
          "internalType": "address",
          "name": "newOwner",
          "type": "address"
        }
      ],
      "name": "OwnershipTransferred",
      "type": "event"
    },
    {
      "inputs": [],
      "name": "availabilityManager",
      "outputs": [
        {
          "internalType": "contract IAvailabilityManager",
          "name": "",
          "type": "address"
        }
      ],
      "stateMutability": "view",
      "type": "function"
    },
    {
      "inputs": [
        {
          "internalType": "uint256",
          "name": "tokenId",
          "type": "uint256"
        },
        {
          "internalType": "uint256",
          "name": "checkInDate",
          "type": "uint256"
        },
        {
          "internalType": "uint256",
          "name": "checkOutDate",
          "type": "uint256"
        },
        {
          "internalType": "uint256",
          "name": "numGuests",
          "type": "uint256"
        },
        {
          "internalType": "address",
          "name": "escrowAddress",
          "type": "address"
        }
      ],
      "name": "bookRoom",
      "outputs": [
        {
          "internalType": "uint256",
          "name": "bookingIndex",
          "type": "uint256"
        }
      ],
      "stateMutability": "nonpayable",
      "type": "function"
    },
    {
      "inputs": [
        {
          "internalType": "uint256",
          "name": "",
          "type": "uint256"
        },
        {
          "internalType": "uint256",
          "name": "",
          "type": "uint256"
        }
      ],
      "name": "bookings",
      "outputs": [
        {
          "internalType": "uint256",
          "name": "tokenId",
          "type": "uint256"
        },
        {
          "internalType": "uint256",
          "name": "unitIndex",
          "type": "uint256"
        },
        {
          "internalType": "address",
          "name": "traveler",
          "type": "address"
        },
        {
          "internalType": "uint256",
          "name": "travelerSbtTokenId",
          "type": "uint256"
        },
        {
          "internalType": "uint256",
          "name": "checkInDate",
          "type": "uint256"
        },
        {
          "internalType": "uint256",
          "name": "checkOutDate",
          "type": "uint256"
        },
        {
          "internalType": "uint256",
          "name": "numGuests",
          "type": "uint256"
        },
        {
          "internalType": "uint256",
          "name": "totalPrice",
          "type": "uint256"
        },
        {
          "internalType": "enum PropertyTypes.BookingStatus",
          "name": "status",
          "type": "uint8"
        },
        {
          "internalType": "address",
          "name": "escrowAddress",
          "type": "address"
        },
        {
          "internalType": "uint256",
          "name": "createdAt",
          "type": "uint256"
        }
      ],
      "stateMutability": "view",
      "type": "function"
    },
    {
      "inputs": [
        {
          "internalType": "uint256",
          "name": "tokenId",
          "type": "uint256"
        },
        {
          "internalType": "uint256",
          "name": "bookingIndex",
          "type": "uint256"
        }
      ],
      "name": "cancelBooking",
      "outputs": [],
      "stateMutability": "nonpayable",
      "type": "function"
    },
    {
      "inputs": [
        {
          "internalType": "uint256",
          "name": "tokenId",
          "type": "uint256"
        },
        {
          "internalType": "uint256",
          "name": "bookingIndex",
          "type": "uint256"
        }
      ],
      "name": "checkInBooking",
      "outputs": [],
      "stateMutability": "nonpayable",
      "type": "function"
    },
    {
      "inputs": [
        {
          "internalType": "uint256",
          "name": "tokenId",
          "type": "uint256"
        },
        {
          "internalType": "uint256",
          "name": "bookingIndex",
          "type": "uint256"
        }
      ],
      "name": "completeBooking",
      "outputs": [],
      "stateMutability": "nonpayable",
      "type": "function"
    },
    {
      "inputs": [
        {
          "internalType": "uint256",
          "name": "tokenId",
          "type": "uint256"
        },
        {
          "internalType": "uint256",
          "name": "bookingIndex",
          "type": "uint256"
        }
      ],
      "name": "confirmBooking",
      "outputs": [],
      "stateMutability": "nonpayable",
      "type": "function"
    },
    {
      "inputs": [],
      "name": "escrowFactory",
      "outputs": [
        {
          "internalType": "address",
          "name": "",
          "type": "address"
        }
      ],
      "stateMutability": "view",
      "type": "function"
    },
    {
      "inputs": [
        {
          "internalType": "uint256",
          "name": "tokenId",
          "type": "uint256"
        },
        {
          "internalType": "uint256",
          "name": "bookingIndex",
          "type": "uint256"
        }
      ],
      "name": "getBooking",
      "outputs": [
        {
          "components": [
            {
              "internalType": "uint256",
              "name": "tokenId",
              "type": "uint256"
            },
            {
              "internalType": "uint256",
              "name": "unitIndex",
              "type": "uint256"
            },
            {
              "internalType": "address",
              "name": "traveler",
              "type": "address"
            },
            {
              "internalType": "uint256",
              "name": "travelerSbtTokenId",
              "type": "uint256"
            },
            {
              "internalType": "uint256",
              "name": "checkInDate",
              "type": "uint256"
            },
            {
              "internalType": "uint256",
              "name": "checkOutDate",
              "type": "uint256"
            },
            {
              "internalType": "uint256",
              "name": "numGuests",
              "type": "uint256"
            },
            {
              "internalType": "uint256",
              "name": "totalPrice",
              "type": "uint256"
            },
            {
              "internalType": "enum PropertyTypes.BookingStatus",
              "name": "status",
              "type": "uint8"
            },
            {
              "internalType": "address",
              "name": "escrowAddress",
              "type": "address"
            },
            {
              "internalType": "uint256",
              "name": "createdAt",
              "type": "uint256"
            }
          ],
          "internalType": "struct PropertyTypes.Booking",
          "name": "",
          "type": "tuple"
        }
      ],
      "stateMutability": "view",
      "type": "function"
    },
    {
      "inputs": [
        {
          "internalType": "uint256",
          "name": "tokenId",
          "type": "uint256"
        }
      ],
      "name": "getBookings",
      "outputs": [
        {
          "components": [
            {
              "internalType": "uint256",
              "name": "tokenId",
              "type": "uint256"
            },
            {
              "internalType": "uint256",
              "name": "unitIndex",
              "type": "uint256"
            },
            {
              "internalType": "address",
              "name": "traveler",
              "type": "address"
            },
            {
              "internalType": "uint256",
              "name": "travelerSbtTokenId",
              "type": "uint256"
            },
            {
              "internalType": "uint256",
              "name": "checkInDate",
              "type": "uint256"
            },
            {
              "internalType": "uint256",
              "name": "checkOutDate",
              "type": "uint256"
            },
            {
              "internalType": "uint256",
              "name": "numGuests",
              "type": "uint256"
            },
            {
              "internalType": "uint256",
              "name": "totalPrice",
              "type": "uint256"
            },
            {
              "internalType": "enum PropertyTypes.BookingStatus",
              "name": "status",
              "type": "uint8"
            },
            {
              "internalType": "address",
              "name": "escrowAddress",
              "type": "address"
            },
            {
              "internalType": "uint256",
              "name": "createdAt",
              "type": "uint256"
            }
          ],
          "internalType": "struct PropertyTypes.Booking[]",
          "name": "",
          "type": "tuple[]"
        }
      ],
      "stateMutability": "view",
      "type": "function"
    },
    {
      "inputs": [
        {
          "internalType": "uint256",
          "name": "tokenId",
          "type": "uint256"
        }
      ],
      "name": "hasActiveBookings",
      "outputs": [
        {
          "internalType": "bool",
          "name": "",
          "type": "bool"
        }
      ],
      "stateMutability": "view",
      "type": "function"
    },
    {
      "inputs": [],
      "name": "owner",
      "outputs": [
        {
          "internalType": "address",
          "name": "",
          "type": "address"
        }
      ],
      "stateMutability": "view",
      "type": "function"
    },
    {
      "inputs": [],
      "name": "propertyNFTAdapter",
      "outputs": [
        {
          "internalType": "address",
          "name": "",
          "type": "address"
        }
      ],
      "stateMutability": "view",
      "type": "function"
    },
    {
      "inputs": [],
      "name": "propertyRegistry",
      "outputs": [
        {
          "internalType": "contract IPropertyRegistry",
          "name": "",
          "type": "address"
        }
      ],
      "stateMutability": "view",
      "type": "function"
    },
    {
      "inputs": [],
      "name": "renounceOwnership",
      "outputs": [],
      "stateMutability": "nonpayable",
      "type": "function"
    },
    {
      "inputs": [],
      "name": "reviewRegistry",
      "outputs": [
        {
          "internalType": "address",
          "name": "",
          "type": "address"
        }
      ],
      "stateMutability": "view",
      "type": "function"
    },
    {
      "inputs": [],
      "name": "roomTypeNFT",
      "outputs": [
        {
          "internalType": "contract IRoomTypeNFT",
          "name": "",
          "type": "address"
        }
      ],
      "stateMutability": "view",
      "type": "function"
    },
    {
      "inputs": [
        {
          "internalType": "address",
          "name": "_availabilityManager",
          "type": "address"
        }
      ],
      "name": "setAvailabilityManager",
      "outputs": [],
      "stateMutability": "nonpayable",
      "type": "function"
    },
    {
      "inputs": [
        {
          "internalType": "uint256",
          "name": "tokenId",
          "type": "uint256"
        },
        {
          "internalType": "uint256",
          "name": "bookingIndex",
          "type": "uint256"
        },
        {
          "internalType": "address",
          "name": "escrowAddress",
          "type": "address"
        }
      ],
      "name": "setEscrowAddress",
      "outputs": [],
      "stateMutability": "nonpayable",
      "type": "function"
    },
    {
      "inputs": [
        {
          "internalType": "address",
          "name": "_escrowFactory",
          "type": "address"
        }
      ],
      "name": "setEscrowFactory",
      "outputs": [],
      "stateMutability": "nonpayable",
      "type": "function"
    },
    {
      "inputs": [
        {
          "internalType": "address",
          "name": "_propertyNFTAdapter",
          "type": "address"
        }
      ],
      "name": "setPropertyNFTAdapter",
      "outputs": [],
      "stateMutability": "nonpayable",
      "type": "function"
    },
    {
      "inputs": [
        {
          "internalType": "address",
          "name": "_propertyRegistry",
          "type": "address"
        }
      ],
      "name": "setPropertyRegistry",
      "outputs": [],
      "stateMutability": "nonpayable",
      "type": "function"
    },
    {
      "inputs": [
        {
          "internalType": "address",
          "name": "_reviewRegistry",
          "type": "address"
        }
      ],
      "name": "setReviewRegistry",
      "outputs": [],
      "stateMutability": "nonpayable",
      "type": "function"
    },
    {
      "inputs": [
        {
          "internalType": "address",
          "name": "_roomTypeNFT",
          "type": "address"
        }
      ],
      "name": "setRoomTypeNFT",
      "outputs": [],
      "stateMutability": "nonpayable",
      "type": "function"
    },
    {
      "inputs": [
        {
          "internalType": "address",
          "name": "_travelerSBT",
          "type": "address"
        }
      ],
      "name": "setTravelerSBT",
      "outputs": [],
      "stateMutability": "nonpayable",
      "type": "function"
    },
    {
      "inputs": [
        {
          "internalType": "address",
          "name": "newOwner",
          "type": "address"
        }
      ],
      "name": "transferOwnership",
      "outputs": [],
      "stateMutability": "nonpayable",
      "type": "function"
    },
    {
      "inputs": [],
      "name": "travelerSBT",
      "outputs": [
        {
          "internalType": "contract ITravelerSBT",
          "name": "",
          "type": "address"
        }
      ],
      "stateMutability": "view",
      "type": "function"
    },
    {
      "inputs": [
        {
          "internalType": "uint256",
          "name": "tokenId",
          "type": "uint256"
        },
        {
          "internalType": "uint8",
          "name": "rating",
          "type": "uint8"
        }
      ],
      "name": "updatePropertyRating",
      "outputs": [],
      "stateMutability": "nonpayable",
      "type": "function"
    }
  ],
  "bytecode": "0x60803461012b57601f611d8438819003918201601f19168301916001600160401b0383118484101761012f5780849260809460405283398101031261012b5761004781610143565b9061005460208201610143565b9061006d606061006660408401610143565b9201610143565b913315610118575f8054336001600160a01b0319821681178355604051969290916001600160a01b0316907f8be0079c531659141344cd1fd0a4f28419497f9722a3daafe3b4186f6b6457e09080a3600180546001600160a01b03199081166001600160a01b039384161790915560028054821693831693909317909255600380548316938216939093179092556004805490911692909116919091179055611c2c90816101588239f35b631e4fbdf760e01b5f525f60045260245ffd5b5f80fd5b634e487b7160e01b5f52604160045260245ffd5b51906001600160a01b038216820361012b5756fe6080806040526004361015610012575f80fd5b5f905f3560e01c9081630e0e3323146116c457508063142a50b31461169d578063252facb71461167657806326b703a71461164f5780632f376857146114e5578063312c73b314611426578063322292051461111f5780633bb4f97a1461105a578063427a6c0f14611015578063455b307014610f64578063501aa86314610dbd57806358e1122414610d945780635cab508214610d4f5780636f66f6ef14610d28578063715018a614610cd657806371cfacc514610c915780637661ba5f14610c6a578063794005d414610c255780637ad55268146104ed5780638da5cb5b146104c75780639941039514610482578063bdd1daaa1461045b578063daa5de8914610387578063df5db21814610342578063eed00d3d146102ee578063f2fde38b1461025b578063f40109951461017b5763fbd5e15614610152575f80fd5b3461017857806003193601126101785760206001600160a01b0360065416604051908152f35b80fd5b5034610178576020366003190112610178576004358152600860205260408120805467ffffffffffffffff811161024757604051906101c060208260051b01836118ed565b80825260208201809385526020852085915b83831061022957868587604051928392602084019060208552518091526040840192915b818110610204575050500390f35b9193509160206101608261021b6001948851611834565b0194019101918493926101f6565b600a602060019261023985611932565b8152019201920191906101d2565b634e487b7160e01b83526041600452602483fd5b5034610178576020366003190112610178576001600160a01b0361027d61181e565b610285611b1f565b1680156102da57815473ffffffffffffffffffffffffffffffffffffffff198116821783556001600160a01b03167f8be0079c531659141344cd1fd0a4f28419497f9722a3daafe3b4186f6b6457e08380a380f35b631e4fbdf760e01b82526004829052602482fd5b5034610178576020366003190112610178576001600160a01b0361031061181e565b610318611b1f565b168015610333576001600160a01b0319600154161760015580f35b63e6c4247b60e01b8252600482fd5b5034610178576020366003190112610178576001600160a01b0361036461181e565b61036c611b1f565b168015610333576001600160a01b0319600454161760045580f35b503461017857610396366117ba565b906001600160a01b0360055416330361044c578083526008602052604083205482101561043d57808352600860205260086103d483604086206117d0565b500160ff81541660058110156104295761041a57805460ff191660011790557f78f090ff3b5c3836bf8866b4540604599ead0dfb48ac30ebca8aabcefe15ab598380a380f35b633b7a179560e01b8452600484fd5b634e487b7160e01b85526021600452602485fd5b6388d2adaf60e01b8352600483fd5b63257c05c760e11b8352600483fd5b503461017857806003193601126101785760206001600160a01b0360055416604051908152f35b5034610178576020366003190112610178576001600160a01b036104a461181e565b6104ac611b1f565b168015610333576001600160a01b0319600354161760035580f35b50346101785780600319360112610178576001600160a01b036020915416604051908152f35b50346101785760a03660031901126101785760043560243591604435608435936001600160a01b0385168095036109645733926001600160a01b03600754163314610c1d575b6001600160a01b0360045416956001600160a01b03604051956315aa711560e21b875216948560048201526020816024818b5afa908115610a21578391610be3575b5015610bd45790602491816001600160a01b03600254166040519485809262f4bc6560e71b82528b60048301525afa928315610940578293610ac2575b50825115610ab35761010083015115610aa45784841015610a9557600354604051630f13c27360e01b815260048101899052602481018690526044810187905290602090829060649082906001600160a01b03165afa908115610a21578391610a63575b5015610a545761062c60e084015186868a611b45565b90848603868111610a4057620151809004936080810151858102958187041490151715610a405760a001518401809411610a2c57602060249899604051998a8092639c2806c760e01b82528b60048301525afa978815610a215783986109e9575b50888352600860205260408320549789845260086020526040842090604051926106b6846118bc565b8b8452602084019185835260408501908b825260608601908152608086018a815260a08701908c825260c0880192606435845260e08901948c86526101008a01978c89526101208b019788526101408b0199428b52805490680100000000000000008210156109d5579061072f916001820181556117d0565b9b909b6109c157518b555160018b01556001600160a01b0360028b019151166001600160a01b031982541617905551600389015551600488015551600587015551600686015551600785015560088401915160058110156109ad578254915174ffffffffffffffffffffffffffffffffffffffffff1990921660ff9091161760089190911b610100600160a81b0316179055600990519101556001600160a01b036003541690813b1561096457829060a48a836040519586948593633ac0905b60e21b8552600485015260248401528960448401528a60648401528160848401525af1801561094057908291610998575b5050602460406001600160a01b0360025416815192838092633f7ec88960e11b82528c60048301525afa908115610940578291610968575b506001600160a01b036001541690813b156109645782916024839260405194859384926342dd676960e11b845260048401525af180156109405790829161094f575b50506001600160a01b0360045416803b1561094b57818091606460405180948193630bc7034b60e11b83528b60048401528d60248401528c60448401525af180156109405761092b575b505060408051928352602080840194909452820152909383917f1afaf48ea2dfb98ade4ffb74cf3da0b54cb835e92d9872a1b14603a88fba7ec890606090a4604051908152f35b6109368280926118ed565b61017857806108e4565b6040513d84823e3d90fd5b5080fd5b81610959916118ed565b61017857805f61089a565b8280fd5b61098a915060403d604011610991575b61098281836118ed565b81019061190f565b505f610858565b503d610978565b816109a2916118ed565b61017857805f610820565b634e487b7160e01b87526021600452602487fd5b634e487b7160e01b8e5260048e905260248efd5b634e487b7160e01b8f52604160045260248ffd5b9097506020813d602011610a19575b81610a05602093836118ed565b81010312610a155751965f61068d565b5f80fd5b3d91506109f8565b6040513d85823e3d90fd5b634e487b7160e01b83526011600452602483fd5b634e487b7160e01b84526011600452602484fd5b63c21723a960e01b8252600482fd5b90506020813d602011610a8d575b81610a7e602093836118ed565b81010312610a1557515f610616565b3d9150610a71565b637b1cb04d60e11b8252600482fd5b6307b2115b60e41b8252600482fd5b6307ed98ed60e31b8252600482fd5b9092503d8083833e610ad481836118ed565b8101906020818303126109645780519067ffffffffffffffff8211610bd05701610120818303126109645760405191610120830183811067ffffffffffffffff821117610bbc576040528151835260208201516020840152604082015167ffffffffffffffff8111610bb85781610b4c918401611ac9565b6040840152606082015167ffffffffffffffff8111610bb85791610b7861010092610bab948301611ac9565b60608501526080810151608085015260a081015160a085015260c081015160c085015260e081015160e085015201611925565b610100820152915f6105b2565b8480fd5b634e487b7160e01b85526041600452602485fd5b8380fd5b638b16924760e01b8252600482fd5b90506020813d602011610c15575b81610bfe602093836118ed565b8101031261096457610c0f90611925565b5f610575565b3d9150610bf1565b329350610533565b5034610178576020366003190112610178576001600160a01b03610c4761181e565b610c4f611b1f565b168015610333576001600160a01b0319600654161760065580f35b503461017857806003193601126101785760206001600160a01b0360075416604051908152f35b5034610178576020366003190112610178576001600160a01b03610cb361181e565b610cbb611b1f565b168015610333576001600160a01b0319600554161760055580f35b5034610178578060031936011261017857610cef611b1f565b806001600160a01b038154811981168355167f8be0079c531659141344cd1fd0a4f28419497f9722a3daafe3b4186f6b6457e08280a380f35b503461017857806003193601126101785760206001600160a01b0360045416604051908152f35b5034610178576020366003190112610178576001600160a01b03610d7161181e565b610d79611b1f565b168015610333576001600160a01b0319600754161760075580f35b5034610178576020366003190112610178576020610db36004356119ee565b6040519015158152f35b503461017857610dcc366117ba565b908083526008602052604083205482101561043d578083526008602052610df682604085206117d0565b50602460406001600160a01b0360025416815192838092633f7ec88960e11b82528760048301525afa908115610f3957610e6c916020918791610f44575b50600154604051636f261e1d60e11b81526004810192909252336024830152909283916001600160a01b031690829081906044820190565b03915afa908115610f39578591610eff575b50336001600160a01b036002840154161490159081610ef6575b50610ee75760080160ff81541660058110156104295760010361041a57805460ff191660021790557ff97a7a361605c540e8ed80450289c086bc1be9b367712bf65e8409b90dc716268380a380f35b639a517dab60e01b8452600484fd5b9050155f610e98565b90506020813d602011610f31575b81610f1a602093836118ed565b81010312610bb857610f2b90611925565b5f610e7e565b3d9150610f0d565b6040513d87823e3d90fd5b610f5d915060403d6040116109915761098281836118ed565b505f610e34565b503461017857610f73366117ba565b919081610140604051610f85816118bc565b8281528260208201528260408201528260608201528260808201528260a08201528260c08201528260e082015282610100820152826101208201520152808252600860205260408220548310156110065761016092604083610ff193610ff795526008602052206117d0565b50611932565b6110046040518092611834565bf35b6388d2adaf60e01b8252600482fd5b5034610178576020366003190112610178576001600160a01b0361103761181e565b61103f611b1f565b168015610333576001600160a01b0319600254161760025580f35b5034610178576060366003190112610178576044356024356004356001600160a01b038316808403610bb8576001600160a01b03600554163303611110578185526008602052604085205483101561110157156110f2576110cb6110ef9392600892865282602052604086206117d0565b500190610100600160a81b0382549160081b1690610100600160a81b031916179055565b80f35b63e6c4247b60e01b8452600484fd5b6388d2adaf60e01b8552600485fd5b63257c05c760e11b8552600485fd5b50346101785761112e366117ba565b908083526008602052604083205482101561043d57808352600860205261115882604085206117d0565b50336001600160a01b036007541633148061141e575b60249060406001600160a01b0360025416815193848092633f7ec88960e11b82528960048301525afa80156113f357836020916111ec948a916113fe575b506001600160a01b036001541690604051809681948293636f261e1d60e11b8452600484019092916001600160a01b036020916040840195845216910152565b03915afa9182156113f35787926113b3575b506001600160a01b0380600286015416931681611398575b6001600160a01b036005541681149215938461138d575b505082611384575b508161137b575b5061136c576008810160ff815416906005821015611358576003821461134957805460ff1916600417905584919080159083821561133c575b8215611326575b50506112ab575b50807ff3ad9f310a1371c25f06d5a530282a227e94c2cabc99fd4afee3888080ee21fa91a380f35b6001600160a01b0360035416906001810154906005600482015491015492803b15610bb85784928360a4926040519687958694633ac0905b60e21b86528b6004870152602486015260448501526064840152600160848401525af180156109405715611283578161131b916118ed565b61096457825f611283565b9150919250610429579060028592145f8061127c565b5060018114915083611275565b633b7a179560e01b8652600486fd5b634e487b7160e01b86526021600452602486fd5b636da2c43360e11b8452600484fd5b9050155f61123c565b1591505f611235565b141592505f8061122d565b90506001600160a01b03600885015460081c16151590611216565b9091506020813d6020116113eb575b816113cf602093836118ed565b810103126113e7576113e090611925565b905f6111fe565b8680fd5b3d91506113c2565b6040513d89823e3d90fd5b611417915060403d6040116109915761098281836118ed565b505f6111ac565b32915061116e565b503461017857611435366117ba565b919081526008602052604081209081548310156101785761016061145984846117d0565b508054906001600160a01b03600182015491816002820154166003820154600483015460058401549060068501549260078601549460096008880154970154986040519a8b5260208b015260408a01526060890152608088015260a087015260c086015260e08501526114d3610100850160ff83166117fd565b60081c16610120830152610140820152f35b5034610178576114f4366117ba565b908083526008602052604083205482101561043d57808352600860205261151e82604085206117d0565b50602460406001600160a01b0360025416815192838092633f7ec88960e11b82528760048301525afa908115610f3957611593916020918791610f445750600154604051636f261e1d60e11b81526004810192909252336024830152909283916001600160a01b031690829081906044820190565b03915afa908115610f39578591611615575b506001600160a01b036005541633149015908161160c575b50610ee75760080160ff81541660058110156104295760020361041a57805460ff191660031790557f7c216d827663830a8eaf435519e88ebb0b1c00dccaf021972073a54c9535c3da8380a380f35b9050155f6115bd565b90506020813d602011611647575b81611630602093836118ed565b81010312610bb85761164190611925565b5f6115a5565b3d9150611623565b503461017857806003193601126101785760206001600160a01b0360015416604051908152f35b503461017857806003193601126101785760206001600160a01b0360025416604051908152f35b503461017857806003193601126101785760206001600160a01b0360035416604051908152f35b905034610a15576040366003190112610a15576024359060ff8216809203610a15576001600160a01b036006541633036117ab576040816024816001600160a01b0360025416633f7ec88960e11b825260043560048301525afa908115611780575f9161178b575b506001600160a01b036001541691823b15610a155760445f92836040519586948593630e0e332360e01b8552600485015260248401525af1801561178057611772575080f35b61177e91505f906118ed565b005b6040513d5f823e3d90fd5b6117a4915060403d6040116109915761098281836118ed565b505f61172c565b639a517dab60e01b5f5260045ffd5b6040906003190112610a15576004359060243590565b80548210156117e9575f52600a60205f20910201905f90565b634e487b7160e01b5f52603260045260245ffd5b90600582101561180a5752565b634e487b7160e01b5f52602160045260245ffd5b600435906001600160a01b0382168203610a1557565b610140809180518452602081015160208501526001600160a01b036040820151166040850152606081015160608501526080810151608085015260a081015160a085015260c081015160c085015260e081015160e08501526118a06101008201516101008601906117fd565b6001600160a01b03610120820151166101208501520151910152565b610160810190811067ffffffffffffffff8211176118d957604052565b634e487b7160e01b5f52604160045260245ffd5b90601f8019910116810190811067ffffffffffffffff8211176118d957604052565b9190826040910312610a15576020825192015190565b51908115158203610a1557565b9060405161193f816118bc565b809280548252600181015460208301526001600160a01b0360028201541660408301526003810154606083015260048101546080830152600581015460a0830152600681015460c0830152600781015460e0830152600881015460ff811691600583101561180a576001600160a01b036009926101409461010087015260081c166101208501520154910152565b80518210156117e95760209160051b010190565b51600581101561180a5790565b5f52600860205260405f20805467ffffffffffffffff81116118d95760405191611a1e60208360051b01846118ed565b81835260208301905f5260205f205f915b838310611aab57505050505f5b8151811015611aa557611a5c610100611a5583856119cd565b51016119e1565b600581101561180a576004141580611a82575b611a7b57600101611a3c565b5050600190565b50611a93610100611a5583856119cd565b600581101561180a5760031415611a6f565b50505f90565b600a6020600192611abb85611932565b815201920192019190611a2f565b81601f82011215610a155780519067ffffffffffffffff82116118d95760405192611afe601f8401601f1916602001856118ed565b82845260208383010111610a1557815f9260208093018386015e8301015290565b6001600160a01b035f54163303611b3257565b63118cdaa760e01b5f523360045260245ffd5b905f6001600160a01b0360035416905b858110611b6b5763c21723a960e01b5f5260045ffd5b6040516308ec952960e01b8152846004820152816024820152836044820152856064820152602081608481865afa908115611780575f91611bbd575b50611bb457600101611b55565b94505050505090565b90506020813d8211611bee575b81611bd7602093836118ed565b81010312610a1557611be890611925565b5f611ba7565b3d9150611bca56fea26469706673582212205a2592dd3c478dec68b8b0db30ca650b2c28cc784ba668103e13144829921b1364736f6c634300081c0033",
  "linkReferences": {},
  "deployedLinkReferences": {},
  "immutableReferences": {},
  "inputSourceName": "project/contracts/BookingManager.sol",
  "buildInfoId": "solc-0_8_28-4fcdb18056ccd947948e3acd56ca989af23af925"
}