{
  "_format": "hh3-artifact-1",
  "contractName": "BookingManager",
  "sourceName": "contracts/BookingManager.sol",
  "abi": [
    {
      "inputs": [
        {
          "internalType": "address",
          "name": "_propertyRegistry",
          "type": "address"
        },
        {
          "internalType": "address",
          "name": "_roomTypeNFT",
          "type": "address"
        },
        {
          "internalType": "address",
          "name": "_availabilityManager",
          "type": "address"
        },
        {
          "internalType": "address",
          "name": "_travelerSBT",
          "type": "address"
        }
      ],
      "stateMutability": "nonpayable",
      "type": "constructor"
    },
    {
      "inputs": [],
      "name": "InvalidAddress",
      "type": "error"
    },
    {
      "inputs": [],
      "name": "InvalidBookingIndex",
      "type": "error"
    },
    {
      "inputs": [],
      "name": "InvalidBookingStatus",
      "type": "error"
    },
    {
      "inputs": [],
      "name": "InvalidDateRange",
      "type": "error"
    },
    {
      "inputs": [],
      "name": "InvalidTokenId",
      "type": "error"
    },
    {
      "inputs": [],
      "name": "MustHaveTravelerSBT",
      "type": "error"
    },
    {
      "inputs": [],
      "name": "NoAvailableUnits",
      "type": "error"
    },
    {
      "inputs": [],
      "name": "NotEscrowFactory",
      "type": "error"
    },
    {
      "inputs": [],
      "name": "NotPropertyOwner",
      "type": "error"
    },
    {
      "inputs": [],
      "name": "NotTraveler",
      "type": "error"
    },
    {
      "inputs": [
        {
          "internalType": "address",
          "name": "owner",
          "type": "address"
        }
      ],
      "name": "OwnableInvalidOwner",
      "type": "error"
    },
    {
      "inputs": [
        {
          "internalType": "address",
          "name": "account",
          "type": "address"
        }
      ],
      "name": "OwnableUnauthorizedAccount",
      "type": "error"
    },
    {
      "inputs": [],
      "name": "RoomTypeNotActive",
      "type": "error"
    },
    {
      "anonymous": false,
      "inputs": [
        {
          "indexed": true,
          "internalType": "uint256",
          "name": "tokenId",
          "type": "uint256"
        },
        {
          "indexed": true,
          "internalType": "uint256",
          "name": "bookingIndex",
          "type": "uint256"
        }
      ],
      "name": "BookingCancelled",
      "type": "event"
    },
    {
      "anonymous": false,
      "inputs": [
        {
          "indexed": true,
          "internalType": "uint256",
          "name": "tokenId",
          "type": "uint256"
        },
        {
          "indexed": true,
          "internalType": "uint256",
          "name": "bookingIndex",
          "type": "uint256"
        }
      ],
      "name": "BookingCheckedIn",
      "type": "event"
    },
    {
      "anonymous": false,
      "inputs": [
        {
          "indexed": true,
          "internalType": "uint256",
          "name": "tokenId",
          "type": "uint256"
        },
        {
          "indexed": true,
          "internalType": "uint256",
          "name": "bookingIndex",
          "type": "uint256"
        }
      ],
      "name": "BookingCompleted",
      "type": "event"
    },
    {
      "anonymous": false,
      "inputs": [
        {
          "indexed": true,
          "internalType": "uint256",
          "name": "tokenId",
          "type": "uint256"
        },
        {
          "indexed": true,
          "internalType": "uint256",
          "name": "bookingIndex",
          "type": "uint256"
        }
      ],
      "name": "BookingConfirmed",
      "type": "event"
    },
    {
      "anonymous": false,
      "inputs": [
        {
          "indexed": true,
          "internalType": "uint256",
          "name": "tokenId",
          "type": "uint256"
        },
        {
          "indexed": true,
          "internalType": "uint256",
          "name": "bookingIndex",
          "type": "uint256"
        },
        {
          "indexed": true,
          "internalType": "address",
          "name": "traveler",
          "type": "address"
        },
        {
          "indexed": false,
          "internalType": "uint256",
          "name": "checkInDate",
          "type": "uint256"
        },
        {
          "indexed": false,
          "internalType": "uint256",
          "name": "checkOutDate",
          "type": "uint256"
        },
        {
          "indexed": false,
          "internalType": "uint256",
          "name": "totalPrice",
          "type": "uint256"
        }
      ],
      "name": "BookingCreated",
      "type": "event"
    },
    {
      "anonymous": false,
      "inputs": [
        {
          "indexed": true,
          "internalType": "address",
          "name": "previousOwner",
          "type": "address"
        },
        {
          "indexed": true,
          "internalType": "address",
          "name": "newOwner",
          "type": "address"
        }
      ],
      "name": "OwnershipTransferred",
      "type": "event"
    },
    {
      "inputs": [],
      "name": "availabilityManager",
      "outputs": [
        {
          "internalType": "contract IAvailabilityManager",
          "name": "",
          "type": "address"
        }
      ],
      "stateMutability": "view",
      "type": "function"
    },
    {
      "inputs": [
        {
          "internalType": "uint256",
          "name": "tokenId",
          "type": "uint256"
        },
        {
          "internalType": "uint256",
          "name": "checkInDate",
          "type": "uint256"
        },
        {
          "internalType": "uint256",
          "name": "checkOutDate",
          "type": "uint256"
        },
        {
          "internalType": "uint256",
          "name": "numGuests",
          "type": "uint256"
        },
        {
          "internalType": "address",
          "name": "escrowAddress",
          "type": "address"
        },
        {
          "internalType": "address",
          "name": "_traveler",
          "type": "address"
        }
      ],
      "name": "bookRoom",
      "outputs": [
        {
          "internalType": "uint256",
          "name": "bookingIndex",
          "type": "uint256"
        }
      ],
      "stateMutability": "nonpayable",
      "type": "function"
    },
    {
      "inputs": [
        {
          "internalType": "uint256",
          "name": "",
          "type": "uint256"
        },
        {
          "internalType": "uint256",
          "name": "",
          "type": "uint256"
        }
      ],
      "name": "bookings",
      "outputs": [
        {
          "internalType": "uint256",
          "name": "tokenId",
          "type": "uint256"
        },
        {
          "internalType": "uint256",
          "name": "unitIndex",
          "type": "uint256"
        },
        {
          "internalType": "address",
          "name": "traveler",
          "type": "address"
        },
        {
          "internalType": "uint256",
          "name": "travelerSbtTokenId",
          "type": "uint256"
        },
        {
          "internalType": "uint256",
          "name": "checkInDate",
          "type": "uint256"
        },
        {
          "internalType": "uint256",
          "name": "checkOutDate",
          "type": "uint256"
        },
        {
          "internalType": "uint256",
          "name": "numGuests",
          "type": "uint256"
        },
        {
          "internalType": "uint256",
          "name": "totalPrice",
          "type": "uint256"
        },
        {
          "internalType": "enum PropertyTypes.BookingStatus",
          "name": "status",
          "type": "uint8"
        },
        {
          "internalType": "address",
          "name": "escrowAddress",
          "type": "address"
        },
        {
          "internalType": "uint256",
          "name": "createdAt",
          "type": "uint256"
        }
      ],
      "stateMutability": "view",
      "type": "function"
    },
    {
      "inputs": [
        {
          "internalType": "uint256",
          "name": "tokenId",
          "type": "uint256"
        },
        {
          "internalType": "uint256",
          "name": "bookingIndex",
          "type": "uint256"
        }
      ],
      "name": "cancelBooking",
      "outputs": [],
      "stateMutability": "nonpayable",
      "type": "function"
    },
    {
      "inputs": [
        {
          "internalType": "uint256",
          "name": "tokenId",
          "type": "uint256"
        },
        {
          "internalType": "uint256",
          "name": "bookingIndex",
          "type": "uint256"
        }
      ],
      "name": "checkInBooking",
      "outputs": [],
      "stateMutability": "nonpayable",
      "type": "function"
    },
    {
      "inputs": [
        {
          "internalType": "uint256",
          "name": "tokenId",
          "type": "uint256"
        },
        {
          "internalType": "uint256",
          "name": "bookingIndex",
          "type": "uint256"
        }
      ],
      "name": "completeBooking",
      "outputs": [],
      "stateMutability": "nonpayable",
      "type": "function"
    },
    {
      "inputs": [
        {
          "internalType": "uint256",
          "name": "tokenId",
          "type": "uint256"
        },
        {
          "internalType": "uint256",
          "name": "bookingIndex",
          "type": "uint256"
        }
      ],
      "name": "confirmBooking",
      "outputs": [],
      "stateMutability": "nonpayable",
      "type": "function"
    },
    {
      "inputs": [],
      "name": "escrowFactory",
      "outputs": [
        {
          "internalType": "address",
          "name": "",
          "type": "address"
        }
      ],
      "stateMutability": "view",
      "type": "function"
    },
    {
      "inputs": [
        {
          "internalType": "uint256",
          "name": "tokenId",
          "type": "uint256"
        },
        {
          "internalType": "uint256",
          "name": "bookingIndex",
          "type": "uint256"
        }
      ],
      "name": "getBooking",
      "outputs": [
        {
          "components": [
            {
              "internalType": "uint256",
              "name": "tokenId",
              "type": "uint256"
            },
            {
              "internalType": "uint256",
              "name": "unitIndex",
              "type": "uint256"
            },
            {
              "internalType": "address",
              "name": "traveler",
              "type": "address"
            },
            {
              "internalType": "uint256",
              "name": "travelerSbtTokenId",
              "type": "uint256"
            },
            {
              "internalType": "uint256",
              "name": "checkInDate",
              "type": "uint256"
            },
            {
              "internalType": "uint256",
              "name": "checkOutDate",
              "type": "uint256"
            },
            {
              "internalType": "uint256",
              "name": "numGuests",
              "type": "uint256"
            },
            {
              "internalType": "uint256",
              "name": "totalPrice",
              "type": "uint256"
            },
            {
              "internalType": "enum PropertyTypes.BookingStatus",
              "name": "status",
              "type": "uint8"
            },
            {
              "internalType": "address",
              "name": "escrowAddress",
              "type": "address"
            },
            {
              "internalType": "uint256",
              "name": "createdAt",
              "type": "uint256"
            }
          ],
          "internalType": "struct PropertyTypes.Booking",
          "name": "",
          "type": "tuple"
        }
      ],
      "stateMutability": "view",
      "type": "function"
    },
    {
      "inputs": [
        {
          "internalType": "uint256",
          "name": "tokenId",
          "type": "uint256"
        }
      ],
      "name": "getBookings",
      "outputs": [
        {
          "components": [
            {
              "internalType": "uint256",
              "name": "tokenId",
              "type": "uint256"
            },
            {
              "internalType": "uint256",
              "name": "unitIndex",
              "type": "uint256"
            },
            {
              "internalType": "address",
              "name": "traveler",
              "type": "address"
            },
            {
              "internalType": "uint256",
              "name": "travelerSbtTokenId",
              "type": "uint256"
            },
            {
              "internalType": "uint256",
              "name": "checkInDate",
              "type": "uint256"
            },
            {
              "internalType": "uint256",
              "name": "checkOutDate",
              "type": "uint256"
            },
            {
              "internalType": "uint256",
              "name": "numGuests",
              "type": "uint256"
            },
            {
              "internalType": "uint256",
              "name": "totalPrice",
              "type": "uint256"
            },
            {
              "internalType": "enum PropertyTypes.BookingStatus",
              "name": "status",
              "type": "uint8"
            },
            {
              "internalType": "address",
              "name": "escrowAddress",
              "type": "address"
            },
            {
              "internalType": "uint256",
              "name": "createdAt",
              "type": "uint256"
            }
          ],
          "internalType": "struct PropertyTypes.Booking[]",
          "name": "",
          "type": "tuple[]"
        }
      ],
      "stateMutability": "view",
      "type": "function"
    },
    {
      "inputs": [
        {
          "internalType": "uint256",
          "name": "tokenId",
          "type": "uint256"
        }
      ],
      "name": "hasActiveBookings",
      "outputs": [
        {
          "internalType": "bool",
          "name": "",
          "type": "bool"
        }
      ],
      "stateMutability": "view",
      "type": "function"
    },
    {
      "inputs": [],
      "name": "hostSBT",
      "outputs": [
        {
          "internalType": "contract IHostSBT",
          "name": "",
          "type": "address"
        }
      ],
      "stateMutability": "view",
      "type": "function"
    },
    {
      "inputs": [],
      "name": "owner",
      "outputs": [
        {
          "internalType": "address",
          "name": "",
          "type": "address"
        }
      ],
      "stateMutability": "view",
      "type": "function"
    },
    {
      "inputs": [],
      "name": "propertyNFTAdapter",
      "outputs": [
        {
          "internalType": "address",
          "name": "",
          "type": "address"
        }
      ],
      "stateMutability": "view",
      "type": "function"
    },
    {
      "inputs": [],
      "name": "propertyRegistry",
      "outputs": [
        {
          "internalType": "contract IPropertyRegistry",
          "name": "",
          "type": "address"
        }
      ],
      "stateMutability": "view",
      "type": "function"
    },
    {
      "inputs": [],
      "name": "renounceOwnership",
      "outputs": [],
      "stateMutability": "nonpayable",
      "type": "function"
    },
    {
      "inputs": [],
      "name": "reviewRegistry",
      "outputs": [
        {
          "internalType": "address",
          "name": "",
          "type": "address"
        }
      ],
      "stateMutability": "view",
      "type": "function"
    },
    {
      "inputs": [],
      "name": "roomTypeNFT",
      "outputs": [
        {
          "internalType": "contract IRoomTypeNFT",
          "name": "",
          "type": "address"
        }
      ],
      "stateMutability": "view",
      "type": "function"
    },
    {
      "inputs": [
        {
          "internalType": "address",
          "name": "_availabilityManager",
          "type": "address"
        }
      ],
      "name": "setAvailabilityManager",
      "outputs": [],
      "stateMutability": "nonpayable",
      "type": "function"
    },
    {
      "inputs": [
        {
          "internalType": "uint256",
          "name": "tokenId",
          "type": "uint256"
        },
        {
          "internalType": "uint256",
          "name": "bookingIndex",
          "type": "uint256"
        },
        {
          "internalType": "address",
          "name": "escrowAddress",
          "type": "address"
        }
      ],
      "name": "setEscrowAddress",
      "outputs": [],
      "stateMutability": "nonpayable",
      "type": "function"
    },
    {
      "inputs": [
        {
          "internalType": "address",
          "name": "_escrowFactory",
          "type": "address"
        }
      ],
      "name": "setEscrowFactory",
      "outputs": [],
      "stateMutability": "nonpayable",
      "type": "function"
    },
    {
      "inputs": [
        {
          "internalType": "address",
          "name": "_hostSBT",
          "type": "address"
        }
      ],
      "name": "setHostSBT",
      "outputs": [],
      "stateMutability": "nonpayable",
      "type": "function"
    },
    {
      "inputs": [
        {
          "internalType": "address",
          "name": "_propertyNFTAdapter",
          "type": "address"
        }
      ],
      "name": "setPropertyNFTAdapter",
      "outputs": [],
      "stateMutability": "nonpayable",
      "type": "function"
    },
    {
      "inputs": [
        {
          "internalType": "address",
          "name": "_propertyRegistry",
          "type": "address"
        }
      ],
      "name": "setPropertyRegistry",
      "outputs": [],
      "stateMutability": "nonpayable",
      "type": "function"
    },
    {
      "inputs": [
        {
          "internalType": "address",
          "name": "_reviewRegistry",
          "type": "address"
        }
      ],
      "name": "setReviewRegistry",
      "outputs": [],
      "stateMutability": "nonpayable",
      "type": "function"
    },
    {
      "inputs": [
        {
          "internalType": "address",
          "name": "_roomTypeNFT",
          "type": "address"
        }
      ],
      "name": "setRoomTypeNFT",
      "outputs": [],
      "stateMutability": "nonpayable",
      "type": "function"
    },
    {
      "inputs": [
        {
          "internalType": "address",
          "name": "_travelerSBT",
          "type": "address"
        }
      ],
      "name": "setTravelerSBT",
      "outputs": [],
      "stateMutability": "nonpayable",
      "type": "function"
    },
    {
      "inputs": [
        {
          "internalType": "address",
          "name": "newOwner",
          "type": "address"
        }
      ],
      "name": "transferOwnership",
      "outputs": [],
      "stateMutability": "nonpayable",
      "type": "function"
    },
    {
      "inputs": [],
      "name": "travelerSBT",
      "outputs": [
        {
          "internalType": "contract ITravelerSBT",
          "name": "",
          "type": "address"
        }
      ],
      "stateMutability": "view",
      "type": "function"
    },
    {
      "inputs": [
        {
          "internalType": "uint256",
          "name": "tokenId",
          "type": "uint256"
        },
        {
          "internalType": "uint8",
          "name": "rating",
          "type": "uint8"
        }
      ],
      "name": "updatePropertyRating",
      "outputs": [],
      "stateMutability": "nonpayable",
      "type": "function"
    }
  ],
  "bytecode": "0x60803461012b57601f61231438819003918201601f19168301916001600160401b0383118484101761012f5780849260809460405283398101031261012b5761004781610143565b9061005460208201610143565b9061006d606061006660408401610143565b9201610143565b913315610118575f8054336001600160a01b0319821681178355604051969290916001600160a01b0316907f8be0079c531659141344cd1fd0a4f28419497f9722a3daafe3b4186f6b6457e09080a3600180546001600160a01b03199081166001600160a01b0393841617909155600280548216938316939093179092556003805483169382169390931790925560048054909116929091169190911790556121bc90816101588239f35b631e4fbdf760e01b5f525f60045260245ffd5b5f80fd5b634e487b7160e01b5f52604160045260245ffd5b51906001600160a01b038216820361012b5756fe6080806040526004361015610012575f80fd5b5f905f3560e01c9081630e0e332314611c3557508063142a50b314611c0e5780631d4f71b814611be7578063252facb714611bc057806326b703a714611b995780632f376857146118cf578063312c73b314611810578063322292051461137c5780633422e96f14610c465780633bb4f97a14610b64578063427a6c0f14610b1f57806342fda79b14610ada578063455b307014610a29578063501aa8631461085b57806358e11224146108325780635cab5082146107ed5780636f66f6ef146107c6578063715018a61461077457806371cfacc51461072f5780637661ba5f14610708578063794005d4146106c35780638da5cb5b1461069d5780639941039514610658578063bdd1daaa14610631578063daa5de891461039d578063df5db21814610358578063eed00d3d14610304578063f2fde38b14610271578063f4010995146101915763fbd5e15614610168575f80fd5b3461018e578060031936011261018e5760206001600160a01b0360075416604051908152f35b80fd5b503461018e57602036600319011261018e576004358152600960205260408120805467ffffffffffffffff811161025d57604051906101d660208260051b0183611e5e565b80825260208201809385526020852085915b83831061023f57868587604051928392602084019060208552518091526040840192915b81811061021a575050500390f35b919350916020610160826102316001948851611da5565b01940191019184939261020c565b600a602060019261024f85611f25565b8152019201920191906101e8565b634e487b7160e01b83526041600452602483fd5b503461018e57602036600319011261018e576001600160a01b03610293611d8f565b61029b612160565b1680156102f057815473ffffffffffffffffffffffffffffffffffffffff198116821783556001600160a01b03167f8be0079c531659141344cd1fd0a4f28419497f9722a3daafe3b4186f6b6457e08380a380f35b631e4fbdf760e01b82526004829052602482fd5b503461018e57602036600319011261018e576001600160a01b03610326611d8f565b61032e612160565b168015610349576001600160a01b0319600154161760015580f35b63e6c4247b60e01b8252600482fd5b503461018e57602036600319011261018e576001600160a01b0361037a611d8f565b610382612160565b168015610349576001600160a01b0319600454161760045580f35b503461018e576103ac36611d2b565b906001600160a01b03600654163314158061061c575b61060d57808352600960205260408320548210156105fe5780835260096020526103ef8260408520611d41565b506008810160ff81541660058110156105ea576105db57908491600160ff198254161790556001600160a01b036002816004541692015416813b1561055857829160248392604051948593849263f939916b60e01b845260048401525af1801561055c576105c6575b50602460406001600160a01b0360025416815192838092633f7ec88960e11b82528760048301525afa90811561055c578291610596575b5060206001600160a01b0360015416916024604051809481936368ff6de160e11b835260048301525afa90811561055c578291610567575b506001600160a01b03600554169081610504575b5050807f78f090ff3b5c3836bf8866b4540604599ead0dfb48ac30ebca8aabcefe15ab5991a380f35b813b15610558576001600160a01b0360248492836040519586948593633fd6998b60e11b85521660048401525af1801561055c57610543575b806104db565b8161054d91611e5e565b61055857825f61053d565b8280fd5b6040513d84823e3d90fd5b610589915060203d60201161058f575b6105818183611e5e565b810190611ea3565b5f6104c7565b503d610577565b6105b8915060403d6040116105bf575b6105b08183611e5e565b810190611e80565b505f61048f565b503d6105a6565b816105d091611e5e565b61055857825f610458565b633b7a179560e01b8552600485fd5b634e487b7160e01b86526021600452602486fd5b6388d2adaf60e01b8352600483fd5b63257c05c760e11b8352600483fd5b506001600160a01b03600854163314156103c2565b503461018e578060031936011261018e5760206001600160a01b0360065416604051908152f35b503461018e57602036600319011261018e576001600160a01b0361067a611d8f565b610682612160565b168015610349576001600160a01b0319600354161760035580f35b503461018e578060031936011261018e576001600160a01b036020915416604051908152f35b503461018e57602036600319011261018e576001600160a01b036106e5611d8f565b6106ed612160565b168015610349576001600160a01b0319600754161760075580f35b503461018e578060031936011261018e5760206001600160a01b0360085416604051908152f35b503461018e57602036600319011261018e576001600160a01b03610751611d8f565b610759612160565b168015610349576001600160a01b0319600654161760065580f35b503461018e578060031936011261018e5761078d612160565b806001600160a01b038154811981168355167f8be0079c531659141344cd1fd0a4f28419497f9722a3daafe3b4186f6b6457e08280a380f35b503461018e578060031936011261018e5760206001600160a01b0360045416604051908152f35b503461018e57602036600319011261018e576001600160a01b0361080f611d8f565b610817612160565b168015610349576001600160a01b0319600854161760085580f35b503461018e57602036600319011261018e576020610851600435611fd4565b6040519015158152f35b503461018e5761086a36611d2b565b90808352600960205260408320548210156105fe5780835260096020526108948260408520611d41565b50602460406001600160a01b0360025416815192838092633f7ec88960e11b82528760048301525afa9081156109fe5761090a916020918791610a09575b50600154604051636f261e1d60e11b81526004810192909252336024830152909283916001600160a01b031690829081906044820190565b03915afa9081156109fe5785916109c0575b50336001600160a01b0360028401541614901590816109b7575b506109a85760080160ff81541660058110156109945760010361098557805460ff191660021790557ff97a7a361605c540e8ed80450289c086bc1be9b367712bf65e8409b90dc716268380a380f35b633b7a179560e01b8452600484fd5b634e487b7160e01b85526021600452602485fd5b639a517dab60e01b8452600484fd5b9050155f610936565b90506020813d6020116109f6575b816109db60209383611e5e565b810103126109f2576109ec90611e96565b5f61091c565b8480fd5b3d91506109ce565b6040513d87823e3d90fd5b610a22915060403d6040116105bf576105b08183611e5e565b505f6108d2565b503461018e57610a3836611d2b565b919081610140604051610a4a81611e2d565b8281528260208201528260408201528260608201528260808201528260a08201528260c08201528260e08201528261010082015282610120820152015280825260096020526040822054831015610acb5761016092604083610ab693610abc9552600960205220611d41565b50611f25565b610ac96040518092611da5565bf35b6388d2adaf60e01b8252600482fd5b503461018e57602036600319011261018e576001600160a01b03610afc611d8f565b610b04612160565b168015610349576001600160a01b0319600554161760055580f35b503461018e57602036600319011261018e576001600160a01b03610b41611d8f565b610b49612160565b168015610349576001600160a01b0319600254161760025580f35b503461018e57606036600319011261018e576044356024356004356001600160a01b0383168084036109f2576001600160a01b036006541633141580610c31575b610c225781855260096020526040852054831015610c135715610c0457610bdd610c0193926008928652600960205260408620611d41565b500190610100600160a81b0382549160081b1690610100600160a81b031916179055565b80f35b63e6c4247b60e01b8452600484fd5b6388d2adaf60e01b8552600485fd5b63257c05c760e11b8552600485fd5b506001600160a01b0360085416331415610ba5565b503461018e5760c036600319011261018e5760043560243591604435608435936001600160a01b0385168095036105585760a435926001600160a01b038416938481036110b15733946001600160a01b0360085416331461136b575b50506001600160a01b0360045416956001600160a01b03604051956315aa711560e21b875216948560048201526020816024818b5afa908115611173578391611331575b50156113225790602491816001600160a01b03600254166040519485809262f4bc6560e71b82528b60048301525afa92831561055c578293611214575b5082511561120557610100830151156111f657848410156111e757600354604051630f13c27360e01b815260048101899052602481018690526044810187905290602090829060649082906001600160a01b03165afa9081156111735783916111b5575b50156111a657610d9d60e084015186868a6120af565b90848603868111611192576201518090049360808101518581029581870414901517156111925760a00151840180941161117e57602060249899604051998a8092639c2806c760e01b82528b60048301525afa97881561117357839861113b575b5088835260096020526040832054978984526009602052604084209060405192610e2784611e2d565b8b8452602084019185835260408501908b825260608601908152608086018a815260a08701908c825260c0880192606435845260e08901948c86526101008a01978c89526101208b019788526101408b0199428b52805490680100000000000000008210156111275790610ea091600182018155611d41565b9b909b61111357518b555160018b01556001600160a01b0360028b019151166001600160a01b031982541617905551600389015551600488015551600587015551600686015551600785015560088401915160058110156110ff578254915174ffffffffffffffffffffffffffffffffffffffffff1990921660ff9091161760089190911b610100600160a81b0316179055600990519101556001600160a01b036003541690813b1561055857829060a48a836040519586948593633ac0905b60e21b8552600485015260248401528960448401528a60648401528160848401525af1801561055c579082916110ea575b5050602460406001600160a01b0360025416815192838092633f7ec88960e11b82528c60048301525afa90811561055c5782916110ca575b506001600160a01b036001541690813b156105585782916024839260405194859384926342dd676960e11b845260048401525af1801561055c579082916110b5575b50506001600160a01b0360045416803b156110b157818091606460405180948193630bc7034b60e11b83528b60048401528d60248401528c60448401525af1801561055c5761109c575b505060408051928352602080840194909452820152909383917f1afaf48ea2dfb98ade4ffb74cf3da0b54cb835e92d9872a1b14603a88fba7ec890606090a4604051908152f35b6110a7828092611e5e565b61018e5780611055565b5080fd5b816110bf91611e5e565b61018e57805f61100b565b6110e3915060403d6040116105bf576105b08183611e5e565b505f610fc9565b816110f491611e5e565b61018e57805f610f91565b634e487b7160e01b87526021600452602487fd5b634e487b7160e01b8e5260048e905260248efd5b634e487b7160e01b8f52604160045260248ffd5b9097506020813d60201161116b575b8161115760209383611e5e565b810103126111675751965f610dfe565b5f80fd5b3d915061114a565b6040513d85823e3d90fd5b634e487b7160e01b83526011600452602483fd5b634e487b7160e01b84526011600452602484fd5b63c21723a960e01b8252600482fd5b90506020813d6020116111df575b816111d060209383611e5e565b8101031261116757515f610d87565b3d91506111c3565b637b1cb04d60e11b8252600482fd5b6307b2115b60e41b8252600482fd5b6307ed98ed60e31b8252600482fd5b9092503d8083833e6112268183611e5e565b8101906020818303126105585780519067ffffffffffffffff821161131e5701610120818303126105585760405191610120830183811067ffffffffffffffff82111761130a576040528151835260208201516020840152604082015167ffffffffffffffff81116109f2578161129e918401611ec2565b6040840152606082015167ffffffffffffffff81116109f257916112ca610100926112fd948301611ec2565b60608501526080810151608085015260a081015160a085015260c081015160c085015260e081015160e085015201611e96565b610100820152915f610d23565b634e487b7160e01b85526041600452602485fd5b8380fd5b638b16924760e01b8252600482fd5b90506020813d602011611363575b8161134c60209383611e5e565b810103126105585761135d90611e96565b5f610ce6565b3d915061133f565b9091945015610c0457925f80610ca2565b503461018e5761138b36611d2b565b90808352600960205260408320548210156105fe5780835260096020526113b58260408520611d41565b50336001600160a01b0360085416331491826117fb575b6024919260406001600160a01b0360025416815194858092633f7ec88960e11b82528960048301525afa9283156117f05787936117ce575b50600154604051636f261e1d60e11b8152600481018590526001600160a01b03868116602483015290939160209185916044918391165afa9283156117c3578893611783575b5060028101916001600160a01b038084541696168096149581611768575b6001600160a01b0360065416148415918261175f575b82611756575b508161174d575b5061173e57600881019060ff82541691600583101561170d576003831461172f57600460ff1982541617905588809183158015611721575b8381156116f9575b5061167d575b5050611669579081600189969594931490811561165e575b5061151a575b50505050807ff3ad9f310a1371c25f06d5a530282a227e94c2cabc99fd4afee3888080ee21fa91a380f35b6001600160a01b038060045416915416813b1561165a578591602483926040519485938492620411a160e31b845260048401525af19081156109fe578591611645575b505060206001600160a01b0360015416926024604051809581936368ff6de160e11b835260048301525afa91821561163a578492611619575b506001600160a01b03600554169283156114ef5781611610575b506115bd575b80806114ef565b813b15610558576001600160a01b0360248492836040519586948593620411a160e31b85521660048401525af1801561055c576115fb575b806115b6565b8161160591611e5e565b61055857825f6115f5565b9050155f6115b0565b61163391925060203d60201161058f576105818183611e5e565b905f611596565b6040513d86823e3d90fd5b8161164f91611e5e565b61131e57835f61155d565b8580fd5b60029150145f6114e9565b634e487b7160e01b88526021600452602488fd5b6001600160a01b0360035416600182015460056004840154930154823b156109f2578b85809460a4936040519788968795633ac0905b60e21b87526004870152602486015260448501526064840152600160848401525af1801561055c57156114d157816116ea91611e5e565b6116f557885f6114d1565b8880fd5b9192505061170d57899060028414836114cb565b634e487b7160e01b8a52602160045260248afd5b5091508091600184146114c3565b633b7a179560e01b8a5260048afd5b636da2c43360e11b8852600488fd5b9050155f61148b565b1591505f611484565b8715925061147e565b90506001600160a01b03600883015460081c16151590611468565b9092506020813d6020116117bb575b8161179f60209383611e5e565b810103126117b7576117b090611e96565b915f61144a565b8780fd5b3d9150611792565b6040513d8a823e3d90fd5b6117e891935060403d6040116105bf576105b08183611e5e565b50915f611404565b6040513d89823e3d90fd5b60028101546001600160a01b031691506113cc565b503461018e5761181f36611d2b565b9190815260096020526040812090815483101561018e576101606118438484611d41565b508054906001600160a01b03600182015491816002820154166003820154600483015460058401549060068501549260078601549460096008880154970154986040519a8b5260208b015260408a01526060890152608088015260a087015260c086015260e08501526118bd610100850160ff8316611d6e565b60081c16610120830152610140820152f35b503461018e576118de36611d2b565b90808352600960205260408320548210156105fe578083526009602052602461190a8360408620611d41565b5060406001600160a01b0360025416815193848092633f7ec88960e11b82528760048301525afa9182156109fe578592611b77575b50600154604051636f261e1d60e11b81526004810184905233602482015290602090829060449082906001600160a01b03165afa908115611b6c578691611b32575b506001600160a01b0360065416331490159081611b29575b50611b1a576008810160ff81541660058110156110ff57600203611b0b5790859291600360ff198254161790556001600160a01b036002816004541692015416813b1561131e5783916024839260405194859384926368efecd960e11b845260048401525af1908115611173578391611af6575b505060206001600160a01b0360015416916024604051809481936368ff6de160e11b835260048301525afa90811561055c578291611ad7575b506001600160a01b03600554169081611a83575b5050807f7c216d827663830a8eaf435519e88ebb0b1c00dccaf021972073a54c9535c3da91a380f35b813b15610558576001600160a01b036024849283604051958694859363d6d83c6f60e01b85521660048401525af1801561055c57611ac2575b80611a5a565b81611acc91611e5e565b61055857825f611abc565b611af0915060203d60201161058f576105818183611e5e565b5f611a46565b81611b0091611e5e565b6110b157815f611a0d565b633b7a179560e01b8652600486fd5b639a517dab60e01b8552600485fd5b9050155f611999565b90506020813d602011611b64575b81611b4d60209383611e5e565b8101031261165a57611b5e90611e96565b5f611981565b3d9150611b40565b6040513d88823e3d90fd5b611b9191925060403d6040116105bf576105b08183611e5e565b50905f61193f565b503461018e578060031936011261018e5760206001600160a01b0360015416604051908152f35b503461018e578060031936011261018e5760206001600160a01b0360025416604051908152f35b503461018e578060031936011261018e5760206001600160a01b0360055416604051908152f35b503461018e578060031936011261018e5760206001600160a01b0360035416604051908152f35b905034611167576040366003190112611167576024359060ff8216809203611167576001600160a01b03600754163303611d1c576040816024816001600160a01b0360025416633f7ec88960e11b825260043560048301525afa908115611cf1575f91611cfc575b506001600160a01b036001541691823b156111675760445f92836040519586948593630e0e332360e01b8552600485015260248401525af18015611cf157611ce3575080f35b611cef91505f90611e5e565b005b6040513d5f823e3d90fd5b611d15915060403d6040116105bf576105b08183611e5e565b505f611c9d565b639a517dab60e01b5f5260045ffd5b6040906003190112611167576004359060243590565b8054821015611d5a575f52600a60205f20910201905f90565b634e487b7160e01b5f52603260045260245ffd5b906005821015611d7b5752565b634e487b7160e01b5f52602160045260245ffd5b600435906001600160a01b038216820361116757565b610140809180518452602081015160208501526001600160a01b036040820151166040850152606081015160608501526080810151608085015260a081015160a085015260c081015160c085015260e081015160e0850152611e11610100820151610100860190611d6e565b6001600160a01b03610120820151166101208501520151910152565b610160810190811067ffffffffffffffff821117611e4a57604052565b634e487b7160e01b5f52604160045260245ffd5b90601f8019910116810190811067ffffffffffffffff821117611e4a57604052565b9190826040910312611167576020825192015190565b5190811515820361116757565b9081602091031261116757516001600160a01b03811681036111675790565b81601f820112156111675780519067ffffffffffffffff8211611e4a5760405192611ef7601f8401601f191660200185611e5e565b8284526020838301011161116757815f9260208093018386015e8301015290565b516005811015611d7b5790565b90604051611f3281611e2d565b809280548252600181015460208301526001600160a01b0360028201541660408301526003810154606083015260048101546080830152600581015460a0830152600681015460c0830152600781015460e0830152600881015460ff8116916005831015611d7b576001600160a01b036009926101409461010087015260081c166101208501520154910152565b8051821015611d5a5760209160051b010190565b5f52600960205260405f20805467ffffffffffffffff8111611e4a576040519161200460208360051b0184611e5e565b81835260208301905f5260205f205f915b83831061209157505050505f5b815181101561208b5761204261010061203b8385611fc0565b5101611f18565b6005811015611d7b576004141580612068575b61206157600101612022565b5050600190565b5061207961010061203b8385611fc0565b6005811015611d7b5760031415612055565b50505f90565b600a60206001926120a185611f25565b815201920192019190612015565b905f6001600160a01b0360035416905b8581106120d55763c21723a960e01b5f5260045ffd5b6040516308ec952960e01b8152846004820152816024820152836044820152856064820152602081608481865afa908115611cf1575f91612127575b5061211e576001016120bf565b94505050505090565b90506020813d8211612158575b8161214160209383611e5e565b810103126111675761215290611e96565b5f612111565b3d9150612134565b6001600160a01b035f5416330361217357565b63118cdaa760e01b5f523360045260245ffdfea2646970667358221220990776f0fb05be834ffba20d8fdf3afdfe997aede39ff6de9c7305b9c9fab2e664736f6c634300081c0033",
  "linkReferences": {},
  "deployedLinkReferences": {},
  "immutableReferences": {},
  "inputSourceName": "project/contracts/BookingManager.sol",
  "buildInfoId": "solc-0_8_28-8137a84e30165420019d2e2e375b925329a2392a"
}