{
  "_format": "hh3-artifact-1",
  "contractName": "BookingManager",
  "sourceName": "contracts/BookingManager.sol",
  "abi": [
    {
      "inputs": [
        {
          "internalType": "address",
          "name": "_propertyRegistry",
          "type": "address"
        },
        {
          "internalType": "address",
          "name": "_roomTypeNFT",
          "type": "address"
        },
        {
          "internalType": "address",
          "name": "_availabilityManager",
          "type": "address"
        },
        {
          "internalType": "address",
          "name": "_travelerSBT",
          "type": "address"
        }
      ],
      "stateMutability": "nonpayable",
      "type": "constructor"
    },
    {
      "inputs": [],
      "name": "InvalidAddress",
      "type": "error"
    },
    {
      "inputs": [],
      "name": "InvalidBookingIndex",
      "type": "error"
    },
    {
      "inputs": [],
      "name": "InvalidBookingStatus",
      "type": "error"
    },
    {
      "inputs": [],
      "name": "InvalidDateRange",
      "type": "error"
    },
    {
      "inputs": [],
      "name": "InvalidTokenId",
      "type": "error"
    },
    {
      "inputs": [],
      "name": "MustHaveTravelerSBT",
      "type": "error"
    },
    {
      "inputs": [],
      "name": "NoAvailableUnits",
      "type": "error"
    },
    {
      "inputs": [],
      "name": "NotEscrowFactory",
      "type": "error"
    },
    {
      "inputs": [],
      "name": "NotPropertyOwner",
      "type": "error"
    },
    {
      "inputs": [],
      "name": "NotTraveler",
      "type": "error"
    },
    {
      "inputs": [
        {
          "internalType": "address",
          "name": "owner",
          "type": "address"
        }
      ],
      "name": "OwnableInvalidOwner",
      "type": "error"
    },
    {
      "inputs": [
        {
          "internalType": "address",
          "name": "account",
          "type": "address"
        }
      ],
      "name": "OwnableUnauthorizedAccount",
      "type": "error"
    },
    {
      "inputs": [],
      "name": "RoomTypeNotActive",
      "type": "error"
    },
    {
      "anonymous": false,
      "inputs": [
        {
          "indexed": true,
          "internalType": "uint256",
          "name": "tokenId",
          "type": "uint256"
        },
        {
          "indexed": true,
          "internalType": "uint256",
          "name": "bookingIndex",
          "type": "uint256"
        }
      ],
      "name": "BookingCancelled",
      "type": "event"
    },
    {
      "anonymous": false,
      "inputs": [
        {
          "indexed": true,
          "internalType": "uint256",
          "name": "tokenId",
          "type": "uint256"
        },
        {
          "indexed": true,
          "internalType": "uint256",
          "name": "bookingIndex",
          "type": "uint256"
        }
      ],
      "name": "BookingCheckedIn",
      "type": "event"
    },
    {
      "anonymous": false,
      "inputs": [
        {
          "indexed": true,
          "internalType": "uint256",
          "name": "tokenId",
          "type": "uint256"
        },
        {
          "indexed": true,
          "internalType": "uint256",
          "name": "bookingIndex",
          "type": "uint256"
        }
      ],
      "name": "BookingCompleted",
      "type": "event"
    },
    {
      "anonymous": false,
      "inputs": [
        {
          "indexed": true,
          "internalType": "uint256",
          "name": "tokenId",
          "type": "uint256"
        },
        {
          "indexed": true,
          "internalType": "uint256",
          "name": "bookingIndex",
          "type": "uint256"
        }
      ],
      "name": "BookingConfirmed",
      "type": "event"
    },
    {
      "anonymous": false,
      "inputs": [
        {
          "indexed": true,
          "internalType": "uint256",
          "name": "tokenId",
          "type": "uint256"
        },
        {
          "indexed": true,
          "internalType": "uint256",
          "name": "bookingIndex",
          "type": "uint256"
        },
        {
          "indexed": true,
          "internalType": "address",
          "name": "traveler",
          "type": "address"
        },
        {
          "indexed": false,
          "internalType": "uint256",
          "name": "checkInDate",
          "type": "uint256"
        },
        {
          "indexed": false,
          "internalType": "uint256",
          "name": "checkOutDate",
          "type": "uint256"
        },
        {
          "indexed": false,
          "internalType": "uint256",
          "name": "totalPrice",
          "type": "uint256"
        }
      ],
      "name": "BookingCreated",
      "type": "event"
    },
    {
      "anonymous": false,
      "inputs": [
        {
          "indexed": true,
          "internalType": "address",
          "name": "previousOwner",
          "type": "address"
        },
        {
          "indexed": true,
          "internalType": "address",
          "name": "newOwner",
          "type": "address"
        }
      ],
      "name": "OwnershipTransferred",
      "type": "event"
    },
    {
      "inputs": [],
      "name": "availabilityManager",
      "outputs": [
        {
          "internalType": "contract IAvailabilityManager",
          "name": "",
          "type": "address"
        }
      ],
      "stateMutability": "view",
      "type": "function"
    },
    {
      "inputs": [
        {
          "internalType": "uint256",
          "name": "tokenId",
          "type": "uint256"
        },
        {
          "internalType": "uint256",
          "name": "checkInDate",
          "type": "uint256"
        },
        {
          "internalType": "uint256",
          "name": "checkOutDate",
          "type": "uint256"
        },
        {
          "internalType": "uint256",
          "name": "numGuests",
          "type": "uint256"
        },
        {
          "internalType": "address",
          "name": "escrowAddress",
          "type": "address"
        },
        {
          "internalType": "address",
          "name": "_traveler",
          "type": "address"
        }
      ],
      "name": "bookRoom",
      "outputs": [
        {
          "internalType": "uint256",
          "name": "bookingIndex",
          "type": "uint256"
        }
      ],
      "stateMutability": "nonpayable",
      "type": "function"
    },
    {
      "inputs": [
        {
          "internalType": "uint256",
          "name": "",
          "type": "uint256"
        },
        {
          "internalType": "uint256",
          "name": "",
          "type": "uint256"
        }
      ],
      "name": "bookings",
      "outputs": [
        {
          "internalType": "uint256",
          "name": "tokenId",
          "type": "uint256"
        },
        {
          "internalType": "uint256",
          "name": "unitIndex",
          "type": "uint256"
        },
        {
          "internalType": "address",
          "name": "traveler",
          "type": "address"
        },
        {
          "internalType": "uint256",
          "name": "travelerSbtTokenId",
          "type": "uint256"
        },
        {
          "internalType": "uint256",
          "name": "checkInDate",
          "type": "uint256"
        },
        {
          "internalType": "uint256",
          "name": "checkOutDate",
          "type": "uint256"
        },
        {
          "internalType": "uint256",
          "name": "numGuests",
          "type": "uint256"
        },
        {
          "internalType": "uint256",
          "name": "totalPrice",
          "type": "uint256"
        },
        {
          "internalType": "enum PropertyTypes.BookingStatus",
          "name": "status",
          "type": "uint8"
        },
        {
          "internalType": "address",
          "name": "escrowAddress",
          "type": "address"
        },
        {
          "internalType": "uint256",
          "name": "createdAt",
          "type": "uint256"
        }
      ],
      "stateMutability": "view",
      "type": "function"
    },
    {
      "inputs": [
        {
          "internalType": "uint256",
          "name": "tokenId",
          "type": "uint256"
        },
        {
          "internalType": "uint256",
          "name": "bookingIndex",
          "type": "uint256"
        }
      ],
      "name": "cancelBooking",
      "outputs": [],
      "stateMutability": "nonpayable",
      "type": "function"
    },
    {
      "inputs": [
        {
          "internalType": "uint256",
          "name": "tokenId",
          "type": "uint256"
        },
        {
          "internalType": "uint256",
          "name": "bookingIndex",
          "type": "uint256"
        }
      ],
      "name": "checkInBooking",
      "outputs": [],
      "stateMutability": "nonpayable",
      "type": "function"
    },
    {
      "inputs": [
        {
          "internalType": "uint256",
          "name": "tokenId",
          "type": "uint256"
        },
        {
          "internalType": "uint256",
          "name": "bookingIndex",
          "type": "uint256"
        }
      ],
      "name": "completeBooking",
      "outputs": [],
      "stateMutability": "nonpayable",
      "type": "function"
    },
    {
      "inputs": [
        {
          "internalType": "uint256",
          "name": "tokenId",
          "type": "uint256"
        },
        {
          "internalType": "uint256",
          "name": "bookingIndex",
          "type": "uint256"
        }
      ],
      "name": "confirmBooking",
      "outputs": [],
      "stateMutability": "nonpayable",
      "type": "function"
    },
    {
      "inputs": [],
      "name": "escrowFactory",
      "outputs": [
        {
          "internalType": "address",
          "name": "",
          "type": "address"
        }
      ],
      "stateMutability": "view",
      "type": "function"
    },
    {
      "inputs": [
        {
          "internalType": "uint256",
          "name": "tokenId",
          "type": "uint256"
        },
        {
          "internalType": "uint256",
          "name": "bookingIndex",
          "type": "uint256"
        }
      ],
      "name": "getBooking",
      "outputs": [
        {
          "components": [
            {
              "internalType": "uint256",
              "name": "tokenId",
              "type": "uint256"
            },
            {
              "internalType": "uint256",
              "name": "unitIndex",
              "type": "uint256"
            },
            {
              "internalType": "address",
              "name": "traveler",
              "type": "address"
            },
            {
              "internalType": "uint256",
              "name": "travelerSbtTokenId",
              "type": "uint256"
            },
            {
              "internalType": "uint256",
              "name": "checkInDate",
              "type": "uint256"
            },
            {
              "internalType": "uint256",
              "name": "checkOutDate",
              "type": "uint256"
            },
            {
              "internalType": "uint256",
              "name": "numGuests",
              "type": "uint256"
            },
            {
              "internalType": "uint256",
              "name": "totalPrice",
              "type": "uint256"
            },
            {
              "internalType": "enum PropertyTypes.BookingStatus",
              "name": "status",
              "type": "uint8"
            },
            {
              "internalType": "address",
              "name": "escrowAddress",
              "type": "address"
            },
            {
              "internalType": "uint256",
              "name": "createdAt",
              "type": "uint256"
            }
          ],
          "internalType": "struct PropertyTypes.Booking",
          "name": "",
          "type": "tuple"
        }
      ],
      "stateMutability": "view",
      "type": "function"
    },
    {
      "inputs": [
        {
          "internalType": "uint256",
          "name": "tokenId",
          "type": "uint256"
        }
      ],
      "name": "getBookings",
      "outputs": [
        {
          "components": [
            {
              "internalType": "uint256",
              "name": "tokenId",
              "type": "uint256"
            },
            {
              "internalType": "uint256",
              "name": "unitIndex",
              "type": "uint256"
            },
            {
              "internalType": "address",
              "name": "traveler",
              "type": "address"
            },
            {
              "internalType": "uint256",
              "name": "travelerSbtTokenId",
              "type": "uint256"
            },
            {
              "internalType": "uint256",
              "name": "checkInDate",
              "type": "uint256"
            },
            {
              "internalType": "uint256",
              "name": "checkOutDate",
              "type": "uint256"
            },
            {
              "internalType": "uint256",
              "name": "numGuests",
              "type": "uint256"
            },
            {
              "internalType": "uint256",
              "name": "totalPrice",
              "type": "uint256"
            },
            {
              "internalType": "enum PropertyTypes.BookingStatus",
              "name": "status",
              "type": "uint8"
            },
            {
              "internalType": "address",
              "name": "escrowAddress",
              "type": "address"
            },
            {
              "internalType": "uint256",
              "name": "createdAt",
              "type": "uint256"
            }
          ],
          "internalType": "struct PropertyTypes.Booking[]",
          "name": "",
          "type": "tuple[]"
        }
      ],
      "stateMutability": "view",
      "type": "function"
    },
    {
      "inputs": [
        {
          "internalType": "uint256",
          "name": "tokenId",
          "type": "uint256"
        }
      ],
      "name": "hasActiveBookings",
      "outputs": [
        {
          "internalType": "bool",
          "name": "",
          "type": "bool"
        }
      ],
      "stateMutability": "view",
      "type": "function"
    },
    {
      "inputs": [],
      "name": "owner",
      "outputs": [
        {
          "internalType": "address",
          "name": "",
          "type": "address"
        }
      ],
      "stateMutability": "view",
      "type": "function"
    },
    {
      "inputs": [],
      "name": "propertyNFTAdapter",
      "outputs": [
        {
          "internalType": "address",
          "name": "",
          "type": "address"
        }
      ],
      "stateMutability": "view",
      "type": "function"
    },
    {
      "inputs": [],
      "name": "propertyRegistry",
      "outputs": [
        {
          "internalType": "contract IPropertyRegistry",
          "name": "",
          "type": "address"
        }
      ],
      "stateMutability": "view",
      "type": "function"
    },
    {
      "inputs": [],
      "name": "renounceOwnership",
      "outputs": [],
      "stateMutability": "nonpayable",
      "type": "function"
    },
    {
      "inputs": [],
      "name": "reviewRegistry",
      "outputs": [
        {
          "internalType": "address",
          "name": "",
          "type": "address"
        }
      ],
      "stateMutability": "view",
      "type": "function"
    },
    {
      "inputs": [],
      "name": "roomTypeNFT",
      "outputs": [
        {
          "internalType": "contract IRoomTypeNFT",
          "name": "",
          "type": "address"
        }
      ],
      "stateMutability": "view",
      "type": "function"
    },
    {
      "inputs": [
        {
          "internalType": "address",
          "name": "_availabilityManager",
          "type": "address"
        }
      ],
      "name": "setAvailabilityManager",
      "outputs": [],
      "stateMutability": "nonpayable",
      "type": "function"
    },
    {
      "inputs": [
        {
          "internalType": "uint256",
          "name": "tokenId",
          "type": "uint256"
        },
        {
          "internalType": "uint256",
          "name": "bookingIndex",
          "type": "uint256"
        },
        {
          "internalType": "address",
          "name": "escrowAddress",
          "type": "address"
        }
      ],
      "name": "setEscrowAddress",
      "outputs": [],
      "stateMutability": "nonpayable",
      "type": "function"
    },
    {
      "inputs": [
        {
          "internalType": "address",
          "name": "_escrowFactory",
          "type": "address"
        }
      ],
      "name": "setEscrowFactory",
      "outputs": [],
      "stateMutability": "nonpayable",
      "type": "function"
    },
    {
      "inputs": [
        {
          "internalType": "address",
          "name": "_propertyNFTAdapter",
          "type": "address"
        }
      ],
      "name": "setPropertyNFTAdapter",
      "outputs": [],
      "stateMutability": "nonpayable",
      "type": "function"
    },
    {
      "inputs": [
        {
          "internalType": "address",
          "name": "_propertyRegistry",
          "type": "address"
        }
      ],
      "name": "setPropertyRegistry",
      "outputs": [],
      "stateMutability": "nonpayable",
      "type": "function"
    },
    {
      "inputs": [
        {
          "internalType": "address",
          "name": "_reviewRegistry",
          "type": "address"
        }
      ],
      "name": "setReviewRegistry",
      "outputs": [],
      "stateMutability": "nonpayable",
      "type": "function"
    },
    {
      "inputs": [
        {
          "internalType": "address",
          "name": "_roomTypeNFT",
          "type": "address"
        }
      ],
      "name": "setRoomTypeNFT",
      "outputs": [],
      "stateMutability": "nonpayable",
      "type": "function"
    },
    {
      "inputs": [
        {
          "internalType": "address",
          "name": "_travelerSBT",
          "type": "address"
        }
      ],
      "name": "setTravelerSBT",
      "outputs": [],
      "stateMutability": "nonpayable",
      "type": "function"
    },
    {
      "inputs": [
        {
          "internalType": "address",
          "name": "newOwner",
          "type": "address"
        }
      ],
      "name": "transferOwnership",
      "outputs": [],
      "stateMutability": "nonpayable",
      "type": "function"
    },
    {
      "inputs": [],
      "name": "travelerSBT",
      "outputs": [
        {
          "internalType": "contract ITravelerSBT",
          "name": "",
          "type": "address"
        }
      ],
      "stateMutability": "view",
      "type": "function"
    },
    {
      "inputs": [
        {
          "internalType": "uint256",
          "name": "tokenId",
          "type": "uint256"
        },
        {
          "internalType": "uint8",
          "name": "rating",
          "type": "uint8"
        }
      ],
      "name": "updatePropertyRating",
      "outputs": [],
      "stateMutability": "nonpayable",
      "type": "function"
    }
  ],
  "bytecode": "0x60803461012b57601f611db238819003918201601f19168301916001600160401b0383118484101761012f5780849260809460405283398101031261012b5761004781610143565b9061005460208201610143565b9061006d606061006660408401610143565b9201610143565b913315610118575f8054336001600160a01b0319821681178355604051969290916001600160a01b0316907f8be0079c531659141344cd1fd0a4f28419497f9722a3daafe3b4186f6b6457e09080a3600180546001600160a01b03199081166001600160a01b039384161790915560028054821693831693909317909255600380548316938216939093179092556004805490911692909116919091179055611c5a90816101588239f35b631e4fbdf760e01b5f525f60045260245ffd5b5f80fd5b634e487b7160e01b5f52604160045260245ffd5b51906001600160a01b038216820361012b5756fe6080806040526004361015610012575f80fd5b5f905f3560e01c9081630e0e3323146116f257508063142a50b3146116cb578063252facb7146116a457806326b703a71461167d5780632f37685714611513578063312c73b31461145457806332229205146111405780633422e96f146109fb5780633bb4f97a14610936578063427a6c0f146108f1578063455b307014610840578063501aa8631461068557806358e112241461065c5780635cab5082146106175780636f66f6ef146105f0578063715018a61461059e57806371cfacc5146105595780637661ba5f14610532578063794005d4146104ed5780638da5cb5b146104c75780639941039514610482578063bdd1daaa1461045b578063daa5de8914610387578063df5db21814610342578063eed00d3d146102ee578063f2fde38b1461025b578063f40109951461017b5763fbd5e15614610152575f80fd5b3461017857806003193601126101785760206001600160a01b0360065416604051908152f35b80fd5b5034610178576020366003190112610178576004358152600860205260408120805467ffffffffffffffff811161024757604051906101c060208260051b018361191b565b80825260208201809385526020852085915b83831061022957868587604051928392602084019060208552518091526040840192915b818110610204575050500390f35b9193509160206101608261021b6001948851611862565b0194019101918493926101f6565b600a6020600192610239856119c3565b8152019201920191906101d2565b634e487b7160e01b83526041600452602483fd5b5034610178576020366003190112610178576001600160a01b0361027d61184c565b610285611bfe565b1680156102da57815473ffffffffffffffffffffffffffffffffffffffff198116821783556001600160a01b03167f8be0079c531659141344cd1fd0a4f28419497f9722a3daafe3b4186f6b6457e08380a380f35b631e4fbdf760e01b82526004829052602482fd5b5034610178576020366003190112610178576001600160a01b0361031061184c565b610318611bfe565b168015610333576001600160a01b0319600154161760015580f35b63e6c4247b60e01b8252600482fd5b5034610178576020366003190112610178576001600160a01b0361036461184c565b61036c611bfe565b168015610333576001600160a01b0319600454161760045580f35b503461017857610396366117e8565b906001600160a01b0360055416330361044c578083526008602052604083205482101561043d57808352600860205260086103d483604086206117fe565b500160ff81541660058110156104295761041a57805460ff191660011790557f78f090ff3b5c3836bf8866b4540604599ead0dfb48ac30ebca8aabcefe15ab598380a380f35b633b7a179560e01b8452600484fd5b634e487b7160e01b85526021600452602485fd5b6388d2adaf60e01b8352600483fd5b63257c05c760e11b8352600483fd5b503461017857806003193601126101785760206001600160a01b0360055416604051908152f35b5034610178576020366003190112610178576001600160a01b036104a461184c565b6104ac611bfe565b168015610333576001600160a01b0319600354161760035580f35b50346101785780600319360112610178576001600160a01b036020915416604051908152f35b5034610178576020366003190112610178576001600160a01b0361050f61184c565b610517611bfe565b168015610333576001600160a01b0319600654161760065580f35b503461017857806003193601126101785760206001600160a01b0360075416604051908152f35b5034610178576020366003190112610178576001600160a01b0361057b61184c565b610583611bfe565b168015610333576001600160a01b0319600554161760055580f35b50346101785780600319360112610178576105b7611bfe565b806001600160a01b038154811981168355167f8be0079c531659141344cd1fd0a4f28419497f9722a3daafe3b4186f6b6457e08280a380f35b503461017857806003193601126101785760206001600160a01b0360045416604051908152f35b5034610178576020366003190112610178576001600160a01b0361063961184c565b610641611bfe565b168015610333576001600160a01b0319600754161760075580f35b503461017857602036600319011261017857602061067b600435611a72565b6040519015158152f35b503461017857610694366117e8565b908083526008602052604083205482101561043d5780835260086020526106be82604085206117fe565b50602460406001600160a01b0360025416815192838092633f7ec88960e11b82528760048301525afa90811561080557610734916020918791610810575b50600154604051636f261e1d60e11b81526004810192909252336024830152909283916001600160a01b031690829081906044820190565b03915afa9081156108055785916107c7575b50336001600160a01b0360028401541614901590816107be575b506107af5760080160ff81541660058110156104295760010361041a57805460ff191660021790557ff97a7a361605c540e8ed80450289c086bc1be9b367712bf65e8409b90dc716268380a380f35b639a517dab60e01b8452600484fd5b9050155f610760565b90506020813d6020116107fd575b816107e26020938361191b565b810103126107f9576107f390611953565b5f610746565b8480fd5b3d91506107d5565b6040513d87823e3d90fd5b610832915060403d604011610839575b61082a818361191b565b81019061193d565b505f6106fc565b503d610820565b50346101785761084f366117e8565b919081610140604051610861816118ea565b8281528260208201528260408201528260608201528260808201528260a08201528260c08201528260e082015282610100820152826101208201520152808252600860205260408220548310156108e257610160926040836108cd936108d395526008602052206117fe565b506119c3565b6108e06040518092611862565bf35b6388d2adaf60e01b8252600482fd5b5034610178576020366003190112610178576001600160a01b0361091361184c565b61091b611bfe565b168015610333576001600160a01b0319600254161760025580f35b5034610178576060366003190112610178576044356024356004356001600160a01b0383168084036107f9576001600160a01b036005541633036109ec57818552600860205260408520548310156109dd57156109ce576109a76109cb9392600892865282602052604086206117fe565b500190610100600160a81b0382549160081b1690610100600160a81b031916179055565b80f35b63e6c4247b60e01b8452600484fd5b6388d2adaf60e01b8552600485fd5b63257c05c760e11b8552600485fd5b50346101785760c03660031901126101785760043560243591604435608435936001600160a01b038516809503610e8a5760a435926001600160a01b03841693848103610e715733946001600160a01b0360075416331461112f575b50506001600160a01b0360045416956001600160a01b03604051956315aa711560e21b875216948560048201526020816024818b5afa908115610f375783916110f5575b50156110e65790602491816001600160a01b03600254166040519485809262f4bc6560e71b82528b60048301525afa928315610e66578293610fd8575b50825115610fc95761010083015115610fba5784841015610fab57600354604051630f13c27360e01b815260048101899052602481018690526044810187905290602090829060649082906001600160a01b03165afa908115610f37578391610f79575b5015610f6a57610b5260e084015186868a611b4d565b90848603868111610f5657620151809004936080810151858102958187041490151715610f565760a001518401809411610f4257602060249899604051998a8092639c2806c760e01b82528b60048301525afa978815610f37578398610eff575b5088835260086020526040832054978984526008602052604084209060405192610bdc846118ea565b8b8452602084019185835260408501908b825260608601908152608086018a815260a08701908c825260c0880192606435845260e08901948c86526101008a01978c89526101208b019788526101408b0199428b5280549068010000000000000000821015610eeb5790610c55916001820181556117fe565b9b909b610ed757518b555160018b01556001600160a01b0360028b019151166001600160a01b03198254161790555160038901555160048801555160058701555160068601555160078501556008840191516005811015610ec3578254915174ffffffffffffffffffffffffffffffffffffffffff1990921660ff9091161760089190911b610100600160a81b0316179055600990519101556001600160a01b036003541690813b15610e8a57829060a48a836040519586948593633ac0905b60e21b8552600485015260248401528960448401528a60648401528160848401525af18015610e6657908291610eae575b5050602460406001600160a01b0360025416815192838092633f7ec88960e11b82528c60048301525afa908115610e66578291610e8e575b506001600160a01b036001541690813b15610e8a5782916024839260405194859384926342dd676960e11b845260048401525af18015610e6657908291610e75575b50506001600160a01b0360045416803b15610e7157818091606460405180948193630bc7034b60e11b83528b60048401528d60248401528c60448401525af18015610e6657610e51575b505060408051928352602080840194909452820152909383917f1afaf48ea2dfb98ade4ffb74cf3da0b54cb835e92d9872a1b14603a88fba7ec890606090a4604051908152f35b610e5c82809261191b565b6101785780610e0a565b6040513d84823e3d90fd5b5080fd5b81610e7f9161191b565b61017857805f610dc0565b8280fd5b610ea7915060403d6040116108395761082a818361191b565b505f610d7e565b81610eb89161191b565b61017857805f610d46565b634e487b7160e01b87526021600452602487fd5b634e487b7160e01b8e5260048e905260248efd5b634e487b7160e01b8f52604160045260248ffd5b9097506020813d602011610f2f575b81610f1b6020938361191b565b81010312610f2b5751965f610bb3565b5f80fd5b3d9150610f0e565b6040513d85823e3d90fd5b634e487b7160e01b83526011600452602483fd5b634e487b7160e01b84526011600452602484fd5b63c21723a960e01b8252600482fd5b90506020813d602011610fa3575b81610f946020938361191b565b81010312610f2b57515f610b3c565b3d9150610f87565b637b1cb04d60e11b8252600482fd5b6307b2115b60e41b8252600482fd5b6307ed98ed60e31b8252600482fd5b9092503d8083833e610fea818361191b565b810190602081830312610e8a5780519067ffffffffffffffff82116110e2570161012081830312610e8a5760405191610120830183811067ffffffffffffffff8211176110ce576040528151835260208201516020840152604082015167ffffffffffffffff81116107f95781611062918401611960565b6040840152606082015167ffffffffffffffff81116107f9579161108e610100926110c1948301611960565b60608501526080810151608085015260a081015160a085015260c081015160c085015260e081015160e085015201611953565b610100820152915f610ad8565b634e487b7160e01b85526041600452602485fd5b8380fd5b638b16924760e01b8252600482fd5b90506020813d602011611127575b816111106020938361191b565b81010312610e8a5761112190611953565b5f610a9b565b3d9150611103565b90919450156109ce57925f80610a57565b50346101785761114f366117e8565b908083526008602052604083205482101561043d57808352600860205261117982604085206117fe565b50336001600160a01b036007541633148061143f575b60249060406001600160a01b0360025416815193848092633f7ec88960e11b82528960048301525afa8015611414578360209161120d948a9161141f575b506001600160a01b036001541690604051809681948293636f261e1d60e11b8452600484019092916001600160a01b036020916040840195845216910152565b03915afa9182156114145787926113d4575b506001600160a01b03806002860154169316816113b9575b6001600160a01b03600554168114921593846113ae575b5050826113a5575b508161139c575b5061138d576008810160ff815416906005821015611379576003821461136a57805460ff1916600417905584919080159083821561135d575b8215611347575b50506112cc575b50807ff3ad9f310a1371c25f06d5a530282a227e94c2cabc99fd4afee3888080ee21fa91a380f35b6001600160a01b0360035416906001810154906005600482015491015492803b156107f95784928360a4926040519687958694633ac0905b60e21b86528b6004870152602486015260448501526064840152600160848401525af18015610e6657156112a4578161133c9161191b565b610e8a57825f6112a4565b9150919250610429579060028592145f8061129d565b5060018114915083611296565b633b7a179560e01b8652600486fd5b634e487b7160e01b86526021600452602486fd5b636da2c43360e11b8452600484fd5b9050155f61125d565b1591505f611256565b141592505f8061124e565b90506001600160a01b03600885015460081c16151590611237565b9091506020813d60201161140c575b816113f06020938361191b565b810103126114085761140190611953565b905f61121f565b8680fd5b3d91506113e3565b6040513d89823e3d90fd5b611438915060403d6040116108395761082a818361191b565b505f6111cd565b60028301546001600160a01b0316915061118f565b503461017857611463366117e8565b919081526008602052604081209081548310156101785761016061148784846117fe565b508054906001600160a01b03600182015491816002820154166003820154600483015460058401549060068501549260078601549460096008880154970154986040519a8b5260208b015260408a01526060890152608088015260a087015260c086015260e0850152611501610100850160ff831661182b565b60081c16610120830152610140820152f35b503461017857611522366117e8565b908083526008602052604083205482101561043d57808352600860205261154c82604085206117fe565b50602460406001600160a01b0360025416815192838092633f7ec88960e11b82528760048301525afa908115610805576115c19160209187916108105750600154604051636f261e1d60e11b81526004810192909252336024830152909283916001600160a01b031690829081906044820190565b03915afa908115610805578591611643575b506001600160a01b036005541633149015908161163a575b506107af5760080160ff81541660058110156104295760020361041a57805460ff191660031790557f7c216d827663830a8eaf435519e88ebb0b1c00dccaf021972073a54c9535c3da8380a380f35b9050155f6115eb565b90506020813d602011611675575b8161165e6020938361191b565b810103126107f95761166f90611953565b5f6115d3565b3d9150611651565b503461017857806003193601126101785760206001600160a01b0360015416604051908152f35b503461017857806003193601126101785760206001600160a01b0360025416604051908152f35b503461017857806003193601126101785760206001600160a01b0360035416604051908152f35b905034610f2b576040366003190112610f2b576024359060ff8216809203610f2b576001600160a01b036006541633036117d9576040816024816001600160a01b0360025416633f7ec88960e11b825260043560048301525afa9081156117ae575f916117b9575b506001600160a01b036001541691823b15610f2b5760445f92836040519586948593630e0e332360e01b8552600485015260248401525af180156117ae576117a0575080f35b6117ac91505f9061191b565b005b6040513d5f823e3d90fd5b6117d2915060403d6040116108395761082a818361191b565b505f61175a565b639a517dab60e01b5f5260045ffd5b6040906003190112610f2b576004359060243590565b8054821015611817575f52600a60205f20910201905f90565b634e487b7160e01b5f52603260045260245ffd5b9060058210156118385752565b634e487b7160e01b5f52602160045260245ffd5b600435906001600160a01b0382168203610f2b57565b610140809180518452602081015160208501526001600160a01b036040820151166040850152606081015160608501526080810151608085015260a081015160a085015260c081015160c085015260e081015160e08501526118ce61010082015161010086019061182b565b6001600160a01b03610120820151166101208501520151910152565b610160810190811067ffffffffffffffff82111761190757604052565b634e487b7160e01b5f52604160045260245ffd5b90601f8019910116810190811067ffffffffffffffff82111761190757604052565b9190826040910312610f2b576020825192015190565b51908115158203610f2b57565b81601f82011215610f2b5780519067ffffffffffffffff82116119075760405192611995601f8401601f19166020018561191b565b82845260208383010111610f2b57815f9260208093018386015e8301015290565b5160058110156118385790565b906040516119d0816118ea565b809280548252600181015460208301526001600160a01b0360028201541660408301526003810154606083015260048101546080830152600581015460a0830152600681015460c0830152600781015460e0830152600881015460ff8116916005831015611838576001600160a01b036009926101409461010087015260081c166101208501520154910152565b80518210156118175760209160051b010190565b5f52600860205260405f20805467ffffffffffffffff81116119075760405191611aa260208360051b018461191b565b81835260208301905f5260205f205f915b838310611b2f57505050505f5b8151811015611b2957611ae0610100611ad98385611a5e565b51016119b6565b6005811015611838576004141580611b06575b611aff57600101611ac0565b5050600190565b50611b17610100611ad98385611a5e565b60058110156118385760031415611af3565b50505f90565b600a6020600192611b3f856119c3565b815201920192019190611ab3565b905f6001600160a01b0360035416905b858110611b735763c21723a960e01b5f5260045ffd5b6040516308ec952960e01b8152846004820152816024820152836044820152856064820152602081608481865afa9081156117ae575f91611bc5575b50611bbc57600101611b5d565b94505050505090565b90506020813d8211611bf6575b81611bdf6020938361191b565b81010312610f2b57611bf090611953565b5f611baf565b3d9150611bd2565b6001600160a01b035f54163303611c1157565b63118cdaa760e01b5f523360045260245ffdfea2646970667358221220819550e96103ac231b1fab7f8f5c95f6a5fa63299b91640b9382c02240266c4d64736f6c634300081c0033",
  "linkReferences": {},
  "deployedLinkReferences": {},
  "immutableReferences": {},
  "inputSourceName": "project/contracts/BookingManager.sol",
  "buildInfoId": "solc-0_8_28-307770a7b3e4992871373bbe079b9f9db4d920e8"
}