{
  "_format": "hh3-artifact-1",
  "contractName": "BookingManager",
  "sourceName": "contracts/BookingManager.sol",
  "abi": [
    {
      "inputs": [
        {
          "internalType": "address",
          "name": "_propertyRegistry",
          "type": "address"
        },
        {
          "internalType": "address",
          "name": "_roomTypeNFT",
          "type": "address"
        },
        {
          "internalType": "address",
          "name": "_availabilityManager",
          "type": "address"
        },
        {
          "internalType": "address",
          "name": "_travelerSBT",
          "type": "address"
        }
      ],
      "stateMutability": "nonpayable",
      "type": "constructor"
    },
    {
      "inputs": [],
      "name": "InvalidAddress",
      "type": "error"
    },
    {
      "inputs": [],
      "name": "InvalidBookingIndex",
      "type": "error"
    },
    {
      "inputs": [],
      "name": "InvalidBookingStatus",
      "type": "error"
    },
    {
      "inputs": [],
      "name": "InvalidDateRange",
      "type": "error"
    },
    {
      "inputs": [],
      "name": "InvalidTokenId",
      "type": "error"
    },
    {
      "inputs": [],
      "name": "MustHaveTravelerSBT",
      "type": "error"
    },
    {
      "inputs": [],
      "name": "NoAvailableUnits",
      "type": "error"
    },
    {
      "inputs": [],
      "name": "NotEscrowFactory",
      "type": "error"
    },
    {
      "inputs": [],
      "name": "NotPropertyOwner",
      "type": "error"
    },
    {
      "inputs": [],
      "name": "NotTraveler",
      "type": "error"
    },
    {
      "inputs": [
        {
          "internalType": "address",
          "name": "owner",
          "type": "address"
        }
      ],
      "name": "OwnableInvalidOwner",
      "type": "error"
    },
    {
      "inputs": [
        {
          "internalType": "address",
          "name": "account",
          "type": "address"
        }
      ],
      "name": "OwnableUnauthorizedAccount",
      "type": "error"
    },
    {
      "inputs": [],
      "name": "RoomTypeNotActive",
      "type": "error"
    },
    {
      "anonymous": false,
      "inputs": [
        {
          "indexed": true,
          "internalType": "uint256",
          "name": "tokenId",
          "type": "uint256"
        },
        {
          "indexed": true,
          "internalType": "uint256",
          "name": "bookingIndex",
          "type": "uint256"
        }
      ],
      "name": "BookingCancelled",
      "type": "event"
    },
    {
      "anonymous": false,
      "inputs": [
        {
          "indexed": true,
          "internalType": "uint256",
          "name": "tokenId",
          "type": "uint256"
        },
        {
          "indexed": true,
          "internalType": "uint256",
          "name": "bookingIndex",
          "type": "uint256"
        }
      ],
      "name": "BookingCheckedIn",
      "type": "event"
    },
    {
      "anonymous": false,
      "inputs": [
        {
          "indexed": true,
          "internalType": "uint256",
          "name": "tokenId",
          "type": "uint256"
        },
        {
          "indexed": true,
          "internalType": "uint256",
          "name": "bookingIndex",
          "type": "uint256"
        }
      ],
      "name": "BookingCompleted",
      "type": "event"
    },
    {
      "anonymous": false,
      "inputs": [
        {
          "indexed": true,
          "internalType": "uint256",
          "name": "tokenId",
          "type": "uint256"
        },
        {
          "indexed": true,
          "internalType": "uint256",
          "name": "bookingIndex",
          "type": "uint256"
        }
      ],
      "name": "BookingConfirmed",
      "type": "event"
    },
    {
      "anonymous": false,
      "inputs": [
        {
          "indexed": true,
          "internalType": "uint256",
          "name": "tokenId",
          "type": "uint256"
        },
        {
          "indexed": true,
          "internalType": "uint256",
          "name": "bookingIndex",
          "type": "uint256"
        },
        {
          "indexed": true,
          "internalType": "address",
          "name": "traveler",
          "type": "address"
        },
        {
          "indexed": false,
          "internalType": "uint256",
          "name": "checkInDate",
          "type": "uint256"
        },
        {
          "indexed": false,
          "internalType": "uint256",
          "name": "checkOutDate",
          "type": "uint256"
        },
        {
          "indexed": false,
          "internalType": "uint256",
          "name": "totalPrice",
          "type": "uint256"
        }
      ],
      "name": "BookingCreated",
      "type": "event"
    },
    {
      "anonymous": false,
      "inputs": [
        {
          "indexed": true,
          "internalType": "address",
          "name": "previousOwner",
          "type": "address"
        },
        {
          "indexed": true,
          "internalType": "address",
          "name": "newOwner",
          "type": "address"
        }
      ],
      "name": "OwnershipTransferred",
      "type": "event"
    },
    {
      "inputs": [],
      "name": "availabilityManager",
      "outputs": [
        {
          "internalType": "contract IAvailabilityManager",
          "name": "",
          "type": "address"
        }
      ],
      "stateMutability": "view",
      "type": "function"
    },
    {
      "inputs": [
        {
          "internalType": "uint256",
          "name": "tokenId",
          "type": "uint256"
        },
        {
          "internalType": "uint256",
          "name": "checkInDate",
          "type": "uint256"
        },
        {
          "internalType": "uint256",
          "name": "checkOutDate",
          "type": "uint256"
        },
        {
          "internalType": "uint256",
          "name": "numGuests",
          "type": "uint256"
        },
        {
          "internalType": "address",
          "name": "escrowAddress",
          "type": "address"
        },
        {
          "internalType": "address",
          "name": "_traveler",
          "type": "address"
        }
      ],
      "name": "bookRoom",
      "outputs": [
        {
          "internalType": "uint256",
          "name": "bookingIndex",
          "type": "uint256"
        }
      ],
      "stateMutability": "nonpayable",
      "type": "function"
    },
    {
      "inputs": [
        {
          "internalType": "uint256",
          "name": "",
          "type": "uint256"
        },
        {
          "internalType": "uint256",
          "name": "",
          "type": "uint256"
        }
      ],
      "name": "bookings",
      "outputs": [
        {
          "internalType": "uint256",
          "name": "tokenId",
          "type": "uint256"
        },
        {
          "internalType": "uint256",
          "name": "unitIndex",
          "type": "uint256"
        },
        {
          "internalType": "address",
          "name": "traveler",
          "type": "address"
        },
        {
          "internalType": "uint256",
          "name": "travelerSbtTokenId",
          "type": "uint256"
        },
        {
          "internalType": "uint256",
          "name": "checkInDate",
          "type": "uint256"
        },
        {
          "internalType": "uint256",
          "name": "checkOutDate",
          "type": "uint256"
        },
        {
          "internalType": "uint256",
          "name": "numGuests",
          "type": "uint256"
        },
        {
          "internalType": "uint256",
          "name": "totalPrice",
          "type": "uint256"
        },
        {
          "internalType": "enum PropertyTypes.BookingStatus",
          "name": "status",
          "type": "uint8"
        },
        {
          "internalType": "address",
          "name": "escrowAddress",
          "type": "address"
        },
        {
          "internalType": "uint256",
          "name": "createdAt",
          "type": "uint256"
        }
      ],
      "stateMutability": "view",
      "type": "function"
    },
    {
      "inputs": [
        {
          "internalType": "uint256",
          "name": "tokenId",
          "type": "uint256"
        },
        {
          "internalType": "uint256",
          "name": "bookingIndex",
          "type": "uint256"
        }
      ],
      "name": "cancelBooking",
      "outputs": [],
      "stateMutability": "nonpayable",
      "type": "function"
    },
    {
      "inputs": [
        {
          "internalType": "uint256",
          "name": "tokenId",
          "type": "uint256"
        },
        {
          "internalType": "uint256",
          "name": "bookingIndex",
          "type": "uint256"
        }
      ],
      "name": "checkInBooking",
      "outputs": [],
      "stateMutability": "nonpayable",
      "type": "function"
    },
    {
      "inputs": [
        {
          "internalType": "uint256",
          "name": "tokenId",
          "type": "uint256"
        },
        {
          "internalType": "uint256",
          "name": "bookingIndex",
          "type": "uint256"
        }
      ],
      "name": "completeBooking",
      "outputs": [],
      "stateMutability": "nonpayable",
      "type": "function"
    },
    {
      "inputs": [
        {
          "internalType": "uint256",
          "name": "tokenId",
          "type": "uint256"
        },
        {
          "internalType": "uint256",
          "name": "bookingIndex",
          "type": "uint256"
        }
      ],
      "name": "confirmBooking",
      "outputs": [],
      "stateMutability": "nonpayable",
      "type": "function"
    },
    {
      "inputs": [],
      "name": "escrowFactory",
      "outputs": [
        {
          "internalType": "address",
          "name": "",
          "type": "address"
        }
      ],
      "stateMutability": "view",
      "type": "function"
    },
    {
      "inputs": [
        {
          "internalType": "uint256",
          "name": "tokenId",
          "type": "uint256"
        },
        {
          "internalType": "uint256",
          "name": "bookingIndex",
          "type": "uint256"
        }
      ],
      "name": "getBooking",
      "outputs": [
        {
          "components": [
            {
              "internalType": "uint256",
              "name": "tokenId",
              "type": "uint256"
            },
            {
              "internalType": "uint256",
              "name": "unitIndex",
              "type": "uint256"
            },
            {
              "internalType": "address",
              "name": "traveler",
              "type": "address"
            },
            {
              "internalType": "uint256",
              "name": "travelerSbtTokenId",
              "type": "uint256"
            },
            {
              "internalType": "uint256",
              "name": "checkInDate",
              "type": "uint256"
            },
            {
              "internalType": "uint256",
              "name": "checkOutDate",
              "type": "uint256"
            },
            {
              "internalType": "uint256",
              "name": "numGuests",
              "type": "uint256"
            },
            {
              "internalType": "uint256",
              "name": "totalPrice",
              "type": "uint256"
            },
            {
              "internalType": "enum PropertyTypes.BookingStatus",
              "name": "status",
              "type": "uint8"
            },
            {
              "internalType": "address",
              "name": "escrowAddress",
              "type": "address"
            },
            {
              "internalType": "uint256",
              "name": "createdAt",
              "type": "uint256"
            }
          ],
          "internalType": "struct PropertyTypes.Booking",
          "name": "",
          "type": "tuple"
        }
      ],
      "stateMutability": "view",
      "type": "function"
    },
    {
      "inputs": [
        {
          "internalType": "uint256",
          "name": "tokenId",
          "type": "uint256"
        }
      ],
      "name": "getBookings",
      "outputs": [
        {
          "components": [
            {
              "internalType": "uint256",
              "name": "tokenId",
              "type": "uint256"
            },
            {
              "internalType": "uint256",
              "name": "unitIndex",
              "type": "uint256"
            },
            {
              "internalType": "address",
              "name": "traveler",
              "type": "address"
            },
            {
              "internalType": "uint256",
              "name": "travelerSbtTokenId",
              "type": "uint256"
            },
            {
              "internalType": "uint256",
              "name": "checkInDate",
              "type": "uint256"
            },
            {
              "internalType": "uint256",
              "name": "checkOutDate",
              "type": "uint256"
            },
            {
              "internalType": "uint256",
              "name": "numGuests",
              "type": "uint256"
            },
            {
              "internalType": "uint256",
              "name": "totalPrice",
              "type": "uint256"
            },
            {
              "internalType": "enum PropertyTypes.BookingStatus",
              "name": "status",
              "type": "uint8"
            },
            {
              "internalType": "address",
              "name": "escrowAddress",
              "type": "address"
            },
            {
              "internalType": "uint256",
              "name": "createdAt",
              "type": "uint256"
            }
          ],
          "internalType": "struct PropertyTypes.Booking[]",
          "name": "",
          "type": "tuple[]"
        }
      ],
      "stateMutability": "view",
      "type": "function"
    },
    {
      "inputs": [
        {
          "internalType": "uint256",
          "name": "tokenId",
          "type": "uint256"
        }
      ],
      "name": "hasActiveBookings",
      "outputs": [
        {
          "internalType": "bool",
          "name": "",
          "type": "bool"
        }
      ],
      "stateMutability": "view",
      "type": "function"
    },
    {
      "inputs": [],
      "name": "owner",
      "outputs": [
        {
          "internalType": "address",
          "name": "",
          "type": "address"
        }
      ],
      "stateMutability": "view",
      "type": "function"
    },
    {
      "inputs": [],
      "name": "propertyNFTAdapter",
      "outputs": [
        {
          "internalType": "address",
          "name": "",
          "type": "address"
        }
      ],
      "stateMutability": "view",
      "type": "function"
    },
    {
      "inputs": [],
      "name": "propertyRegistry",
      "outputs": [
        {
          "internalType": "contract IPropertyRegistry",
          "name": "",
          "type": "address"
        }
      ],
      "stateMutability": "view",
      "type": "function"
    },
    {
      "inputs": [],
      "name": "renounceOwnership",
      "outputs": [],
      "stateMutability": "nonpayable",
      "type": "function"
    },
    {
      "inputs": [],
      "name": "reviewRegistry",
      "outputs": [
        {
          "internalType": "address",
          "name": "",
          "type": "address"
        }
      ],
      "stateMutability": "view",
      "type": "function"
    },
    {
      "inputs": [],
      "name": "roomTypeNFT",
      "outputs": [
        {
          "internalType": "contract IRoomTypeNFT",
          "name": "",
          "type": "address"
        }
      ],
      "stateMutability": "view",
      "type": "function"
    },
    {
      "inputs": [
        {
          "internalType": "address",
          "name": "_availabilityManager",
          "type": "address"
        }
      ],
      "name": "setAvailabilityManager",
      "outputs": [],
      "stateMutability": "nonpayable",
      "type": "function"
    },
    {
      "inputs": [
        {
          "internalType": "uint256",
          "name": "tokenId",
          "type": "uint256"
        },
        {
          "internalType": "uint256",
          "name": "bookingIndex",
          "type": "uint256"
        },
        {
          "internalType": "address",
          "name": "escrowAddress",
          "type": "address"
        }
      ],
      "name": "setEscrowAddress",
      "outputs": [],
      "stateMutability": "nonpayable",
      "type": "function"
    },
    {
      "inputs": [
        {
          "internalType": "address",
          "name": "_escrowFactory",
          "type": "address"
        }
      ],
      "name": "setEscrowFactory",
      "outputs": [],
      "stateMutability": "nonpayable",
      "type": "function"
    },
    {
      "inputs": [
        {
          "internalType": "address",
          "name": "_propertyNFTAdapter",
          "type": "address"
        }
      ],
      "name": "setPropertyNFTAdapter",
      "outputs": [],
      "stateMutability": "nonpayable",
      "type": "function"
    },
    {
      "inputs": [
        {
          "internalType": "address",
          "name": "_propertyRegistry",
          "type": "address"
        }
      ],
      "name": "setPropertyRegistry",
      "outputs": [],
      "stateMutability": "nonpayable",
      "type": "function"
    },
    {
      "inputs": [
        {
          "internalType": "address",
          "name": "_reviewRegistry",
          "type": "address"
        }
      ],
      "name": "setReviewRegistry",
      "outputs": [],
      "stateMutability": "nonpayable",
      "type": "function"
    },
    {
      "inputs": [
        {
          "internalType": "address",
          "name": "_roomTypeNFT",
          "type": "address"
        }
      ],
      "name": "setRoomTypeNFT",
      "outputs": [],
      "stateMutability": "nonpayable",
      "type": "function"
    },
    {
      "inputs": [
        {
          "internalType": "address",
          "name": "_travelerSBT",
          "type": "address"
        }
      ],
      "name": "setTravelerSBT",
      "outputs": [],
      "stateMutability": "nonpayable",
      "type": "function"
    },
    {
      "inputs": [
        {
          "internalType": "address",
          "name": "newOwner",
          "type": "address"
        }
      ],
      "name": "transferOwnership",
      "outputs": [],
      "stateMutability": "nonpayable",
      "type": "function"
    },
    {
      "inputs": [],
      "name": "travelerSBT",
      "outputs": [
        {
          "internalType": "contract ITravelerSBT",
          "name": "",
          "type": "address"
        }
      ],
      "stateMutability": "view",
      "type": "function"
    },
    {
      "inputs": [
        {
          "internalType": "uint256",
          "name": "tokenId",
          "type": "uint256"
        },
        {
          "internalType": "uint8",
          "name": "rating",
          "type": "uint8"
        }
      ],
      "name": "updatePropertyRating",
      "outputs": [],
      "stateMutability": "nonpayable",
      "type": "function"
    }
  ],
  "bytecode": "0x60803461012b57601f611dea38819003918201601f19168301916001600160401b0383118484101761012f5780849260809460405283398101031261012b5761004781610143565b9061005460208201610143565b9061006d606061006660408401610143565b9201610143565b913315610118575f8054336001600160a01b0319821681178355604051969290916001600160a01b0316907f8be0079c531659141344cd1fd0a4f28419497f9722a3daafe3b4186f6b6457e09080a3600180546001600160a01b03199081166001600160a01b039384161790915560028054821693831693909317909255600380548316938216939093179092556004805490911692909116919091179055611c9290816101588239f35b631e4fbdf760e01b5f525f60045260245ffd5b5f80fd5b634e487b7160e01b5f52604160045260245ffd5b51906001600160a01b038216820361012b5756fe6080806040526004361015610012575f80fd5b5f905f3560e01c9081630e0e33231461172a57508063142a50b314611703578063252facb7146116dc57806326b703a7146116b55780632f3768571461154b578063312c73b31461148c57806332229205146111785780633422e96f14610a335780633bb4f97a14610952578063427a6c0f1461090d578063455b30701461085c578063501aa863146106a157806358e11224146106785780635cab5082146106335780636f66f6ef1461060c578063715018a6146105ba57806371cfacc5146105755780637661ba5f1461054e578063794005d4146105095780638da5cb5b146104e3578063994103951461049e578063bdd1daaa14610477578063daa5de8914610387578063df5db21814610342578063eed00d3d146102ee578063f2fde38b1461025b578063f40109951461017b5763fbd5e15614610152575f80fd5b3461017857806003193601126101785760206001600160a01b0360065416604051908152f35b80fd5b5034610178576020366003190112610178576004358152600860205260408120805467ffffffffffffffff811161024757604051906101c060208260051b0183611953565b80825260208201809385526020852085915b83831061022957868587604051928392602084019060208552518091526040840192915b818110610204575050500390f35b9193509160206101608261021b600194885161189a565b0194019101918493926101f6565b600a6020600192610239856119fb565b8152019201920191906101d2565b634e487b7160e01b83526041600452602483fd5b5034610178576020366003190112610178576001600160a01b0361027d611884565b610285611c36565b1680156102da57815473ffffffffffffffffffffffffffffffffffffffff198116821783556001600160a01b03167f8be0079c531659141344cd1fd0a4f28419497f9722a3daafe3b4186f6b6457e08380a380f35b631e4fbdf760e01b82526004829052602482fd5b5034610178576020366003190112610178576001600160a01b03610310611884565b610318611c36565b168015610333576001600160a01b0319600154161760015580f35b63e6c4247b60e01b8252600482fd5b5034610178576020366003190112610178576001600160a01b03610364611884565b61036c611c36565b168015610333576001600160a01b0319600454161760045580f35b50346101785761039636611820565b906001600160a01b036005541633141580610462575b610453578083526008602052604083205482101561044457808352600860205260086103db8360408620611836565b500160ff81541660058110156104305761042157805460ff191660011790557f78f090ff3b5c3836bf8866b4540604599ead0dfb48ac30ebca8aabcefe15ab598380a380f35b633b7a179560e01b8452600484fd5b634e487b7160e01b85526021600452602485fd5b6388d2adaf60e01b8352600483fd5b63257c05c760e11b8352600483fd5b506001600160a01b03600754163314156103ac565b503461017857806003193601126101785760206001600160a01b0360055416604051908152f35b5034610178576020366003190112610178576001600160a01b036104c0611884565b6104c8611c36565b168015610333576001600160a01b0319600354161760035580f35b50346101785780600319360112610178576001600160a01b036020915416604051908152f35b5034610178576020366003190112610178576001600160a01b0361052b611884565b610533611c36565b168015610333576001600160a01b0319600654161760065580f35b503461017857806003193601126101785760206001600160a01b0360075416604051908152f35b5034610178576020366003190112610178576001600160a01b03610597611884565b61059f611c36565b168015610333576001600160a01b0319600554161760055580f35b50346101785780600319360112610178576105d3611c36565b806001600160a01b038154811981168355167f8be0079c531659141344cd1fd0a4f28419497f9722a3daafe3b4186f6b6457e08280a380f35b503461017857806003193601126101785760206001600160a01b0360045416604051908152f35b5034610178576020366003190112610178576001600160a01b03610655611884565b61065d611c36565b168015610333576001600160a01b0319600754161760075580f35b5034610178576020366003190112610178576020610697600435611aaa565b6040519015158152f35b5034610178576106b036611820565b90808352600860205260408320548210156104445780835260086020526106da8260408520611836565b50602460406001600160a01b0360025416815192838092633f7ec88960e11b82528760048301525afa9081156108215761075091602091879161082c575b50600154604051636f261e1d60e11b81526004810192909252336024830152909283916001600160a01b031690829081906044820190565b03915afa9081156108215785916107e3575b50336001600160a01b0360028401541614901590816107da575b506107cb5760080160ff81541660058110156104305760010361042157805460ff191660021790557ff97a7a361605c540e8ed80450289c086bc1be9b367712bf65e8409b90dc716268380a380f35b639a517dab60e01b8452600484fd5b9050155f61077c565b90506020813d602011610819575b816107fe60209383611953565b810103126108155761080f9061198b565b5f610762565b8480fd5b3d91506107f1565b6040513d87823e3d90fd5b61084e915060403d604011610855575b6108468183611953565b810190611975565b505f610718565b503d61083c565b50346101785761086b36611820565b91908161014060405161087d81611922565b8281528260208201528260408201528260608201528260808201528260a08201528260c08201528260e082015282610100820152826101208201520152808252600860205260408220548310156108fe57610160926040836108e9936108ef9552600860205220611836565b506119fb565b6108fc604051809261189a565bf35b6388d2adaf60e01b8252600482fd5b5034610178576020366003190112610178576001600160a01b0361092f611884565b610937611c36565b168015610333576001600160a01b0319600254161760025580f35b5034610178576060366003190112610178576044356024356004356001600160a01b038316808403610815576001600160a01b036005541633141580610a1e575b610a0f5781855260086020526040852054831015610a0057156109f1576109ca6109ee939260089286528260205260408620611836565b500190610100600160a81b0382549160081b1690610100600160a81b031916179055565b80f35b63e6c4247b60e01b8452600484fd5b6388d2adaf60e01b8552600485fd5b63257c05c760e11b8552600485fd5b506001600160a01b0360075416331415610993565b50346101785760c03660031901126101785760043560243591604435608435936001600160a01b038516809503610ec25760a435926001600160a01b03841693848103610ea95733946001600160a01b03600754163314611167575b50506001600160a01b0360045416956001600160a01b03604051956315aa711560e21b875216948560048201526020816024818b5afa908115610f6f57839161112d575b501561111e5790602491816001600160a01b03600254166040519485809262f4bc6560e71b82528b60048301525afa928315610e9e578293611010575b508251156110015761010083015115610ff25784841015610fe357600354604051630f13c27360e01b815260048101899052602481018690526044810187905290602090829060649082906001600160a01b03165afa908115610f6f578391610fb1575b5015610fa257610b8a60e084015186868a611b85565b90848603868111610f8e57620151809004936080810151858102958187041490151715610f8e5760a001518401809411610f7a57602060249899604051998a8092639c2806c760e01b82528b60048301525afa978815610f6f578398610f37575b5088835260086020526040832054978984526008602052604084209060405192610c1484611922565b8b8452602084019185835260408501908b825260608601908152608086018a815260a08701908c825260c0880192606435845260e08901948c86526101008a01978c89526101208b019788526101408b0199428b5280549068010000000000000000821015610f235790610c8d91600182018155611836565b9b909b610f0f57518b555160018b01556001600160a01b0360028b019151166001600160a01b03198254161790555160038901555160048801555160058701555160068601555160078501556008840191516005811015610efb578254915174ffffffffffffffffffffffffffffffffffffffffff1990921660ff9091161760089190911b610100600160a81b0316179055600990519101556001600160a01b036003541690813b15610ec257829060a48a836040519586948593633ac0905b60e21b8552600485015260248401528960448401528a60648401528160848401525af18015610e9e57908291610ee6575b5050602460406001600160a01b0360025416815192838092633f7ec88960e11b82528c60048301525afa908115610e9e578291610ec6575b506001600160a01b036001541690813b15610ec25782916024839260405194859384926342dd676960e11b845260048401525af18015610e9e57908291610ead575b50506001600160a01b0360045416803b15610ea957818091606460405180948193630bc7034b60e11b83528b60048401528d60248401528c60448401525af18015610e9e57610e89575b505060408051928352602080840194909452820152909383917f1afaf48ea2dfb98ade4ffb74cf3da0b54cb835e92d9872a1b14603a88fba7ec890606090a4604051908152f35b610e94828092611953565b6101785780610e42565b6040513d84823e3d90fd5b5080fd5b81610eb791611953565b61017857805f610df8565b8280fd5b610edf915060403d604011610855576108468183611953565b505f610db6565b81610ef091611953565b61017857805f610d7e565b634e487b7160e01b87526021600452602487fd5b634e487b7160e01b8e5260048e905260248efd5b634e487b7160e01b8f52604160045260248ffd5b9097506020813d602011610f67575b81610f5360209383611953565b81010312610f635751965f610beb565b5f80fd5b3d9150610f46565b6040513d85823e3d90fd5b634e487b7160e01b83526011600452602483fd5b634e487b7160e01b84526011600452602484fd5b63c21723a960e01b8252600482fd5b90506020813d602011610fdb575b81610fcc60209383611953565b81010312610f6357515f610b74565b3d9150610fbf565b637b1cb04d60e11b8252600482fd5b6307b2115b60e41b8252600482fd5b6307ed98ed60e31b8252600482fd5b9092503d8083833e6110228183611953565b810190602081830312610ec25780519067ffffffffffffffff821161111a570161012081830312610ec25760405191610120830183811067ffffffffffffffff821117611106576040528151835260208201516020840152604082015167ffffffffffffffff8111610815578161109a918401611998565b6040840152606082015167ffffffffffffffff811161081557916110c6610100926110f9948301611998565b60608501526080810151608085015260a081015160a085015260c081015160c085015260e081015160e08501520161198b565b610100820152915f610b10565b634e487b7160e01b85526041600452602485fd5b8380fd5b638b16924760e01b8252600482fd5b90506020813d60201161115f575b8161114860209383611953565b81010312610ec2576111599061198b565b5f610ad3565b3d915061113b565b90919450156109f157925f80610a8f565b50346101785761118736611820565b90808352600860205260408320548210156104445780835260086020526111b18260408520611836565b50336001600160a01b0360075416331480611477575b60249060406001600160a01b0360025416815193848092633f7ec88960e11b82528960048301525afa801561144c5783602091611245948a91611457575b506001600160a01b036001541690604051809681948293636f261e1d60e11b8452600484019092916001600160a01b036020916040840195845216910152565b03915afa91821561144c57879261140c575b506001600160a01b03806002860154169316816113f1575b6001600160a01b03600554168114921593846113e6575b5050826113dd575b50816113d4575b506113c5576008810160ff8154169060058210156113b157600382146113a257805460ff19166004179055849190801590838215611395575b821561137f575b5050611304575b50807ff3ad9f310a1371c25f06d5a530282a227e94c2cabc99fd4afee3888080ee21fa91a380f35b6001600160a01b0360035416906001810154906005600482015491015492803b156108155784928360a4926040519687958694633ac0905b60e21b86528b6004870152602486015260448501526064840152600160848401525af18015610e9e57156112dc578161137491611953565b610ec257825f6112dc565b9150919250610430579060028592145f806112d5565b50600181149150836112ce565b633b7a179560e01b8652600486fd5b634e487b7160e01b86526021600452602486fd5b636da2c43360e11b8452600484fd5b9050155f611295565b1591505f61128e565b141592505f80611286565b90506001600160a01b03600885015460081c1615159061126f565b9091506020813d602011611444575b8161142860209383611953565b81010312611440576114399061198b565b905f611257565b8680fd5b3d915061141b565b6040513d89823e3d90fd5b611470915060403d604011610855576108468183611953565b505f611205565b60028301546001600160a01b031691506111c7565b50346101785761149b36611820565b91908152600860205260408120908154831015610178576101606114bf8484611836565b508054906001600160a01b03600182015491816002820154166003820154600483015460058401549060068501549260078601549460096008880154970154986040519a8b5260208b015260408a01526060890152608088015260a087015260c086015260e0850152611539610100850160ff8316611863565b60081c16610120830152610140820152f35b50346101785761155a36611820565b90808352600860205260408320548210156104445780835260086020526115848260408520611836565b50602460406001600160a01b0360025416815192838092633f7ec88960e11b82528760048301525afa908115610821576115f991602091879161082c5750600154604051636f261e1d60e11b81526004810192909252336024830152909283916001600160a01b031690829081906044820190565b03915afa90811561082157859161167b575b506001600160a01b0360055416331490159081611672575b506107cb5760080160ff81541660058110156104305760020361042157805460ff191660031790557f7c216d827663830a8eaf435519e88ebb0b1c00dccaf021972073a54c9535c3da8380a380f35b9050155f611623565b90506020813d6020116116ad575b8161169660209383611953565b81010312610815576116a79061198b565b5f61160b565b3d9150611689565b503461017857806003193601126101785760206001600160a01b0360015416604051908152f35b503461017857806003193601126101785760206001600160a01b0360025416604051908152f35b503461017857806003193601126101785760206001600160a01b0360035416604051908152f35b905034610f63576040366003190112610f63576024359060ff8216809203610f63576001600160a01b03600654163303611811576040816024816001600160a01b0360025416633f7ec88960e11b825260043560048301525afa9081156117e6575f916117f1575b506001600160a01b036001541691823b15610f635760445f92836040519586948593630e0e332360e01b8552600485015260248401525af180156117e6576117d8575080f35b6117e491505f90611953565b005b6040513d5f823e3d90fd5b61180a915060403d604011610855576108468183611953565b505f611792565b639a517dab60e01b5f5260045ffd5b6040906003190112610f63576004359060243590565b805482101561184f575f52600a60205f20910201905f90565b634e487b7160e01b5f52603260045260245ffd5b9060058210156118705752565b634e487b7160e01b5f52602160045260245ffd5b600435906001600160a01b0382168203610f6357565b610140809180518452602081015160208501526001600160a01b036040820151166040850152606081015160608501526080810151608085015260a081015160a085015260c081015160c085015260e081015160e0850152611906610100820151610100860190611863565b6001600160a01b03610120820151166101208501520151910152565b610160810190811067ffffffffffffffff82111761193f57604052565b634e487b7160e01b5f52604160045260245ffd5b90601f8019910116810190811067ffffffffffffffff82111761193f57604052565b9190826040910312610f63576020825192015190565b51908115158203610f6357565b81601f82011215610f635780519067ffffffffffffffff821161193f57604051926119cd601f8401601f191660200185611953565b82845260208383010111610f6357815f9260208093018386015e8301015290565b5160058110156118705790565b90604051611a0881611922565b809280548252600181015460208301526001600160a01b0360028201541660408301526003810154606083015260048101546080830152600581015460a0830152600681015460c0830152600781015460e0830152600881015460ff8116916005831015611870576001600160a01b036009926101409461010087015260081c166101208501520154910152565b805182101561184f5760209160051b010190565b5f52600860205260405f20805467ffffffffffffffff811161193f5760405191611ada60208360051b0184611953565b81835260208301905f5260205f205f915b838310611b6757505050505f5b8151811015611b6157611b18610100611b118385611a96565b51016119ee565b6005811015611870576004141580611b3e575b611b3757600101611af8565b5050600190565b50611b4f610100611b118385611a96565b60058110156118705760031415611b2b565b50505f90565b600a6020600192611b77856119fb565b815201920192019190611aeb565b905f6001600160a01b0360035416905b858110611bab5763c21723a960e01b5f5260045ffd5b6040516308ec952960e01b8152846004820152816024820152836044820152856064820152602081608481865afa9081156117e6575f91611bfd575b50611bf457600101611b95565b94505050505090565b90506020813d8211611c2e575b81611c1760209383611953565b81010312610f6357611c289061198b565b5f611be7565b3d9150611c0a565b6001600160a01b035f54163303611c4957565b63118cdaa760e01b5f523360045260245ffdfea26469706673582212208526b98195a5047decbcc745429d1e78fc4aa9378024cb636d7577347b72677464736f6c634300081c0033",
  "linkReferences": {},
  "deployedLinkReferences": {},
  "immutableReferences": {},
  "inputSourceName": "project/contracts/BookingManager.sol",
  "buildInfoId": "solc-0_8_28-9b7fd3df5adfc939096bdbc3009f76b63cb6d6bd"
}