{
  "_format": "hh3-artifact-1",
  "contractName": "EscrowFactory",
  "sourceName": "contracts/EscrowFactory.sol",
  "abi": [
    {
      "inputs": [
        {
          "internalType": "address",
          "name": "_platformWallet",
          "type": "address"
        },
        {
          "internalType": "address",
          "name": "_admin",
          "type": "address"
        },
        {
          "internalType": "address",
          "name": "_backendSigner",
          "type": "address"
        },
        {
          "internalType": "address",
          "name": "_USDC",
          "type": "address"
        },
        {
          "internalType": "address",
          "name": "_EURC",
          "type": "address"
        }
      ],
      "stateMutability": "nonpayable",
      "type": "constructor"
    },
    {
      "inputs": [],
      "name": "ECDSAInvalidSignature",
      "type": "error"
    },
    {
      "inputs": [
        {
          "internalType": "uint256",
          "name": "length",
          "type": "uint256"
        }
      ],
      "name": "ECDSAInvalidSignatureLength",
      "type": "error"
    },
    {
      "inputs": [
        {
          "internalType": "bytes32",
          "name": "s",
          "type": "bytes32"
        }
      ],
      "name": "ECDSAInvalidSignatureS",
      "type": "error"
    },
    {
      "inputs": [],
      "name": "EmptyRoomList",
      "type": "error"
    },
    {
      "inputs": [],
      "name": "EnforcedPause",
      "type": "error"
    },
    {
      "inputs": [],
      "name": "ExpectedPause",
      "type": "error"
    },
    {
      "inputs": [],
      "name": "InvalidAddress",
      "type": "error"
    },
    {
      "inputs": [],
      "name": "InvalidAmount",
      "type": "error"
    },
    {
      "inputs": [],
      "name": "InvalidFee",
      "type": "error"
    },
    {
      "inputs": [],
      "name": "InvalidQuote",
      "type": "error"
    },
    {
      "inputs": [
        {
          "internalType": "address",
          "name": "owner",
          "type": "address"
        }
      ],
      "name": "OwnableInvalidOwner",
      "type": "error"
    },
    {
      "inputs": [
        {
          "internalType": "address",
          "name": "account",
          "type": "address"
        }
      ],
      "name": "OwnableUnauthorizedAccount",
      "type": "error"
    },
    {
      "inputs": [],
      "name": "QuoteExpired",
      "type": "error"
    },
    {
      "inputs": [
        {
          "internalType": "address",
          "name": "token",
          "type": "address"
        }
      ],
      "name": "SafeERC20FailedOperation",
      "type": "error"
    },
    {
      "inputs": [],
      "name": "UnsupportedCurrency",
      "type": "error"
    },
    {
      "anonymous": false,
      "inputs": [
        {
          "indexed": true,
          "internalType": "uint256",
          "name": "batchId",
          "type": "uint256"
        },
        {
          "indexed": true,
          "internalType": "address",
          "name": "traveler",
          "type": "address"
        },
        {
          "indexed": false,
          "internalType": "address",
          "name": "currency",
          "type": "address"
        },
        {
          "indexed": false,
          "internalType": "uint256",
          "name": "totalPrice",
          "type": "uint256"
        },
        {
          "indexed": false,
          "internalType": "uint256",
          "name": "checkIn",
          "type": "uint256"
        },
        {
          "indexed": false,
          "internalType": "uint256",
          "name": "checkOut",
          "type": "uint256"
        },
        {
          "indexed": false,
          "internalType": "uint256",
          "name": "roomCount",
          "type": "uint256"
        },
        {
          "indexed": false,
          "internalType": "uint256[]",
          "name": "escrowIds",
          "type": "uint256[]"
        }
      ],
      "name": "BatchBookingCreated",
      "type": "event"
    },
    {
      "anonymous": false,
      "inputs": [
        {
          "indexed": true,
          "internalType": "address",
          "name": "escrowAddress",
          "type": "address"
        },
        {
          "indexed": true,
          "internalType": "address",
          "name": "buyer",
          "type": "address"
        },
        {
          "indexed": true,
          "internalType": "address",
          "name": "seller",
          "type": "address"
        },
        {
          "indexed": false,
          "internalType": "address",
          "name": "token",
          "type": "address"
        },
        {
          "indexed": false,
          "internalType": "uint256",
          "name": "amount",
          "type": "uint256"
        }
      ],
      "name": "EscrowCreated",
      "type": "event"
    },
    {
      "anonymous": false,
      "inputs": [
        {
          "indexed": true,
          "internalType": "address",
          "name": "previousOwner",
          "type": "address"
        },
        {
          "indexed": true,
          "internalType": "address",
          "name": "newOwner",
          "type": "address"
        }
      ],
      "name": "OwnershipTransferred",
      "type": "event"
    },
    {
      "anonymous": false,
      "inputs": [
        {
          "indexed": false,
          "internalType": "address",
          "name": "account",
          "type": "address"
        }
      ],
      "name": "Paused",
      "type": "event"
    },
    {
      "anonymous": false,
      "inputs": [
        {
          "indexed": true,
          "internalType": "address",
          "name": "escrowAddress",
          "type": "address"
        },
        {
          "indexed": true,
          "internalType": "uint256",
          "name": "tokenId",
          "type": "uint256"
        },
        {
          "indexed": true,
          "internalType": "address",
          "name": "traveler",
          "type": "address"
        },
        {
          "indexed": false,
          "internalType": "address",
          "name": "currency",
          "type": "address"
        },
        {
          "indexed": false,
          "internalType": "uint256",
          "name": "price",
          "type": "uint256"
        },
        {
          "indexed": false,
          "internalType": "uint256",
          "name": "checkIn",
          "type": "uint256"
        },
        {
          "indexed": false,
          "internalType": "uint256",
          "name": "checkOut",
          "type": "uint256"
        }
      ],
      "name": "TravelEscrowCreated",
      "type": "event"
    },
    {
      "anonymous": false,
      "inputs": [
        {
          "indexed": false,
          "internalType": "address",
          "name": "account",
          "type": "address"
        }
      ],
      "name": "Unpaused",
      "type": "event"
    },
    {
      "inputs": [],
      "name": "EURC",
      "outputs": [
        {
          "internalType": "address",
          "name": "",
          "type": "address"
        }
      ],
      "stateMutability": "view",
      "type": "function"
    },
    {
      "inputs": [],
      "name": "FEE_DENOMINATOR",
      "outputs": [
        {
          "internalType": "uint256",
          "name": "",
          "type": "uint256"
        }
      ],
      "stateMutability": "view",
      "type": "function"
    },
    {
      "inputs": [],
      "name": "USDC",
      "outputs": [
        {
          "internalType": "address",
          "name": "",
          "type": "address"
        }
      ],
      "stateMutability": "view",
      "type": "function"
    },
    {
      "inputs": [],
      "name": "admin",
      "outputs": [
        {
          "internalType": "address",
          "name": "",
          "type": "address"
        }
      ],
      "stateMutability": "view",
      "type": "function"
    },
    {
      "inputs": [],
      "name": "backendSigner",
      "outputs": [
        {
          "internalType": "address",
          "name": "",
          "type": "address"
        }
      ],
      "stateMutability": "view",
      "type": "function"
    },
    {
      "inputs": [],
      "name": "batchCount",
      "outputs": [
        {
          "internalType": "uint256",
          "name": "",
          "type": "uint256"
        }
      ],
      "stateMutability": "view",
      "type": "function"
    },
    {
      "inputs": [
        {
          "components": [
            {
              "components": [
                {
                  "internalType": "uint256",
                  "name": "tokenId",
                  "type": "uint256"
                },
                {
                  "internalType": "uint256",
                  "name": "quantity",
                  "type": "uint256"
                },
                {
                  "internalType": "uint256",
                  "name": "price",
                  "type": "uint256"
                }
              ],
              "internalType": "struct EscrowFactory.RoomBooking[]",
              "name": "rooms",
              "type": "tuple[]"
            },
            {
              "internalType": "uint256",
              "name": "checkIn",
              "type": "uint256"
            },
            {
              "internalType": "uint256",
              "name": "checkOut",
              "type": "uint256"
            },
            {
              "internalType": "uint256",
              "name": "totalPrice",
              "type": "uint256"
            },
            {
              "internalType": "address",
              "name": "currency",
              "type": "address"
            },
            {
              "internalType": "uint256",
              "name": "validUntil",
              "type": "uint256"
            },
            {
              "internalType": "bytes",
              "name": "signature",
              "type": "bytes"
            }
          ],
          "internalType": "struct EscrowFactory.BatchBookingQuote",
          "name": "quote",
          "type": "tuple"
        }
      ],
      "name": "createBatchTravelEscrow",
      "outputs": [
        {
          "internalType": "address[]",
          "name": "escrowAddresses",
          "type": "address[]"
        }
      ],
      "stateMutability": "nonpayable",
      "type": "function"
    },
    {
      "inputs": [
        {
          "components": [
            {
              "internalType": "uint256",
              "name": "tokenId",
              "type": "uint256"
            },
            {
              "internalType": "uint256",
              "name": "checkIn",
              "type": "uint256"
            },
            {
              "internalType": "uint256",
              "name": "checkOut",
              "type": "uint256"
            },
            {
              "internalType": "uint256",
              "name": "price",
              "type": "uint256"
            },
            {
              "internalType": "address",
              "name": "currency",
              "type": "address"
            },
            {
              "internalType": "uint256",
              "name": "validUntil",
              "type": "uint256"
            },
            {
              "internalType": "uint256",
              "name": "quantity",
              "type": "uint256"
            },
            {
              "internalType": "bytes",
              "name": "signature",
              "type": "bytes"
            }
          ],
          "internalType": "struct EscrowFactory.BookingQuote",
          "name": "quote",
          "type": "tuple"
        }
      ],
      "name": "createTravelEscrowWithQuote",
      "outputs": [
        {
          "internalType": "address",
          "name": "escrowAddress",
          "type": "address"
        }
      ],
      "stateMutability": "nonpayable",
      "type": "function"
    },
    {
      "inputs": [],
      "name": "escrowCount",
      "outputs": [
        {
          "internalType": "uint256",
          "name": "",
          "type": "uint256"
        }
      ],
      "stateMutability": "view",
      "type": "function"
    },
    {
      "inputs": [],
      "name": "escrowDeployer",
      "outputs": [
        {
          "internalType": "contract EscrowDeployer",
          "name": "",
          "type": "address"
        }
      ],
      "stateMutability": "view",
      "type": "function"
    },
    {
      "inputs": [],
      "name": "escrowRegistry",
      "outputs": [
        {
          "internalType": "contract EscrowRegistry",
          "name": "",
          "type": "address"
        }
      ],
      "stateMutability": "view",
      "type": "function"
    },
    {
      "inputs": [
        {
          "internalType": "uint256",
          "name": "escrowId",
          "type": "uint256"
        }
      ],
      "name": "escrows",
      "outputs": [
        {
          "internalType": "address",
          "name": "",
          "type": "address"
        }
      ],
      "stateMutability": "view",
      "type": "function"
    },
    {
      "inputs": [
        {
          "internalType": "uint256",
          "name": "batchId",
          "type": "uint256"
        }
      ],
      "name": "getBatchEscrows",
      "outputs": [
        {
          "internalType": "uint256[]",
          "name": "",
          "type": "uint256[]"
        }
      ],
      "stateMutability": "view",
      "type": "function"
    },
    {
      "inputs": [
        {
          "internalType": "address",
          "name": "user",
          "type": "address"
        }
      ],
      "name": "getUserEscrows",
      "outputs": [
        {
          "internalType": "uint256[]",
          "name": "",
          "type": "uint256[]"
        }
      ],
      "stateMutability": "view",
      "type": "function"
    },
    {
      "inputs": [],
      "name": "minFee",
      "outputs": [
        {
          "internalType": "uint256",
          "name": "",
          "type": "uint256"
        }
      ],
      "stateMutability": "view",
      "type": "function"
    },
    {
      "inputs": [],
      "name": "owner",
      "outputs": [
        {
          "internalType": "address",
          "name": "",
          "type": "address"
        }
      ],
      "stateMutability": "view",
      "type": "function"
    },
    {
      "inputs": [],
      "name": "pause",
      "outputs": [],
      "stateMutability": "nonpayable",
      "type": "function"
    },
    {
      "inputs": [],
      "name": "paused",
      "outputs": [
        {
          "internalType": "bool",
          "name": "",
          "type": "bool"
        }
      ],
      "stateMutability": "view",
      "type": "function"
    },
    {
      "inputs": [],
      "name": "platformFeePercent",
      "outputs": [
        {
          "internalType": "uint256",
          "name": "",
          "type": "uint256"
        }
      ],
      "stateMutability": "view",
      "type": "function"
    },
    {
      "inputs": [],
      "name": "platformWallet",
      "outputs": [
        {
          "internalType": "address",
          "name": "",
          "type": "address"
        }
      ],
      "stateMutability": "view",
      "type": "function"
    },
    {
      "inputs": [],
      "name": "propertyNFT",
      "outputs": [
        {
          "internalType": "address",
          "name": "",
          "type": "address"
        }
      ],
      "stateMutability": "view",
      "type": "function"
    },
    {
      "inputs": [],
      "name": "renounceOwnership",
      "outputs": [],
      "stateMutability": "nonpayable",
      "type": "function"
    },
    {
      "inputs": [
        {
          "internalType": "address",
          "name": "_newAdmin",
          "type": "address"
        }
      ],
      "name": "setAdmin",
      "outputs": [],
      "stateMutability": "nonpayable",
      "type": "function"
    },
    {
      "inputs": [
        {
          "internalType": "address",
          "name": "_newSigner",
          "type": "address"
        }
      ],
      "name": "setBackendSigner",
      "outputs": [],
      "stateMutability": "nonpayable",
      "type": "function"
    },
    {
      "inputs": [
        {
          "internalType": "address",
          "name": "_newEURC",
          "type": "address"
        }
      ],
      "name": "setEURC",
      "outputs": [],
      "stateMutability": "nonpayable",
      "type": "function"
    },
    {
      "inputs": [
        {
          "internalType": "address",
          "name": "_escrowDeployer",
          "type": "address"
        }
      ],
      "name": "setEscrowDeployer",
      "outputs": [],
      "stateMutability": "nonpayable",
      "type": "function"
    },
    {
      "inputs": [
        {
          "internalType": "address",
          "name": "_escrowRegistry",
          "type": "address"
        }
      ],
      "name": "setEscrowRegistry",
      "outputs": [],
      "stateMutability": "nonpayable",
      "type": "function"
    },
    {
      "inputs": [
        {
          "internalType": "uint256",
          "name": "_newMinFee",
          "type": "uint256"
        }
      ],
      "name": "setMinFee",
      "outputs": [],
      "stateMutability": "nonpayable",
      "type": "function"
    },
    {
      "inputs": [
        {
          "internalType": "uint256",
          "name": "_newFee",
          "type": "uint256"
        }
      ],
      "name": "setPlatformFee",
      "outputs": [],
      "stateMutability": "nonpayable",
      "type": "function"
    },
    {
      "inputs": [
        {
          "internalType": "address",
          "name": "_newWallet",
          "type": "address"
        }
      ],
      "name": "setPlatformWallet",
      "outputs": [],
      "stateMutability": "nonpayable",
      "type": "function"
    },
    {
      "inputs": [
        {
          "internalType": "address",
          "name": "_newPropertyNFT",
          "type": "address"
        }
      ],
      "name": "setPropertyNFT",
      "outputs": [],
      "stateMutability": "nonpayable",
      "type": "function"
    },
    {
      "inputs": [
        {
          "internalType": "address",
          "name": "_newUSDC",
          "type": "address"
        }
      ],
      "name": "setUSDC",
      "outputs": [],
      "stateMutability": "nonpayable",
      "type": "function"
    },
    {
      "inputs": [
        {
          "internalType": "address",
          "name": "newOwner",
          "type": "address"
        }
      ],
      "name": "transferOwnership",
      "outputs": [],
      "stateMutability": "nonpayable",
      "type": "function"
    },
    {
      "inputs": [],
      "name": "unpause",
      "outputs": [],
      "stateMutability": "nonpayable",
      "type": "function"
    }
  ],
  "bytecode": "0x6080346101cd57601f6124ca38819003918201601f19168301916001600160401b038311848410176101d15780849260a0946040528339810103126101cd57610047816101e5565b90610054602082016101e5565b90610061604082016101e5565b6100796080610072606085016101e5565b93016101e5565b9233156101ba575f8054336001600160a01b0319821681178355604051979290916001600160a01b0316907f8be0079c531659141344cd1fd0a4f28419497f9722a3daafe3b4186f6b6457e09080a36102ee6001556207a1206002556001600160a01b0316801580156101a9575b8015610198575b8015610187575b8015610176575b61016757600380546001600160a01b03199081169290921790556004805482166001600160a01b03938416179055600580548216938316939093179092556007805483169382169390931790925560088054909116929091169190911790556122d090816101fa8239f35b63e6c4247b60e01b5f5260045ffd5b506001600160a01b038516156100fc565b506001600160a01b038416156100f5565b506001600160a01b038316156100ee565b506001600160a01b038216156100e7565b631e4fbdf760e01b5f525f60045260245ffd5b5f80fd5b634e487b7160e01b5f52604160045260245ffd5b51906001600160a01b03821682036101cd5756fe6080806040526004361015610012575f80fd5b5f905f3560e01c908163012f52ee14611c7a5750806306f1305614611c305780630dab80b41461155757806312e8e2c31461153457806324ec75901461151657806331ac9920146114f357806334bfd2a91461149057806336f956701461144857806337f76838146114215780633f4ba83a146113b3578063406e1d181461138c5780635c975abb146113675780635ccea85e146112ca5780635f1fbccc1461128257806365d65e861461125b578063675ac67a146111cf578063704b6c0214611187578063715018a6146111355780638456cb59146110d45780638831e9cf1461108c57806389a30271146110655780638c639a85146110475780638da5cb5b146110215780639ab3876014610fd9578063aabfa37d14610fb2578063b3e089a214610f6a578063bee01be814610f22578063c694b03714610319578063cbcd99a3146102c2578063d73792a9146102a5578063ebd5d58c1461027e578063f2fde38b146101e4578063f851a440146101bd5763fa2af9da14610194575f80fd5b346101ba57806003193601126101ba5760206001600160a01b0360035416604051908152f35b80fd5b50346101ba57806003193601126101ba5760206001600160a01b0360045416604051908152f35b50346101ba5760203660031901126101ba576004356001600160a01b03811680910361027a576102126120c3565b801561026657815473ffffffffffffffffffffffffffffffffffffffff198116821783556001600160a01b03167f8be0079c531659141344cd1fd0a4f28419497f9722a3daafe3b4186f6b6457e08380a380f35b631e4fbdf760e01b82526004829052602482fd5b5080fd5b50346101ba57806003193601126101ba5760206001600160a01b03600a5416604051908152f35b50346101ba57806003193601126101ba5760206040516127108152f35b50346101ba5760203660031901126101ba576004356001600160a01b03811680910361027a576102f06120c3565b801561030a576001600160a01b0319600954161760095580f35b63e6c4247b60e01b8252600482fd5b50346101ba5760203660031901126101ba5760043567ffffffffffffffff811161027a5760e0600319823603011261027a57610353612022565b6103606004820180611f82565b905015610f13576103746004820180611f82565b9061037e82611fdc565b91845b818110610ef357506103999150506004830180611f82565b906103a382611fdc565b91855b818110610ed057506103be9150506004840180611f82565b906103c882611fdc565b91865b818110610ead575050506103f4916103fa610408926040519485936103f46020860180996120e9565b906120e9565b03601f198101835282611d22565b51902061044d6001600160a01b036104ef6104e661042860848701611d77565b60a48701359561043e60c4890189600401611d8b565b96908660055416973691611dbe565b91604051906020820192835260248a0135604083015260448a0135606083015260648a013560808301526bffffffffffffffffffffffff199060601b1660a08201528760b48201524660d48201523060601b60f482015260e881526104b461010882611d22565b5190207f19457468657265756d205369676e6564204d6573736167653a0a3332000000008952601c52603c882061216a565b909291926121a4565b1603610e9e574211610e8f5761050760848201611d77565b6001600160a01b0380600754169116141580610e6c575b610e5d576006546001600160a01b03169061053c6004820180611f82565b91909115610e495760408051633f7ec88960e11b81529235600484015282602481865afa918215610e3e578492610e1c575b506040516368ff6de160e11b81526004810183905292602084602481845afa938415610e11578594610df0575b506001600160a01b038416158015610dde575b610dcf578492835b6105c36004850180611f82565b905085101561073d576105e3856105dd6004870180611f82565b90611fb8565b60408051633f7ec88960e11b81529135600483015281602481875afa80156106f4578391899161070e575b50036106ff57610661602061062a876105dd6004890180611f82565b6040516001622a8fc360e11b0319815290356004820152602480880135908201526044878101359082015291829081906064820190565b0381875afa9081156106f45788916106c6575b50156106b757604061068d866105dd6004880180611f82565b013581018091116106a3576001909401936105b6565b634e487b7160e01b87526011600452602487fd5b63162908e360e11b8752600487fd5b6106e7915060203d81116106ed575b6106df8183611d22565b810190611e04565b5f610674565b503d6106d5565b6040513d8a823e3d90fd5b63e6c4247b60e01b8752600487fd5b61072f915060403d8111610736575b6107278183611d22565b810190611e1c565b505f61060e565b503d61071d565b8686858593606482013503610dc057806107756001600160a01b036107656084879501611d77565b166064830135903090339061203f565b60206001600160a01b036009541660046040518097819363592bf1a760e01b83525af1938415610db5578294610d81575b506107b46004820180611f82565b9390506107d96107c385611ef0565b946107d16040519687611d22565b808652611ef0565b601f19013660208601376107fa6107f36004840180611f82565b9050611fdc565b94835b61080a6004850180611f82565b9050811015610ca657610824816105dd6004870180611f82565b6127106108376001546040840135611e32565b04600254808210610c9e575b506040820135811015610c8f5760208201358015610c825760206108aa915b8c898b604051809681958294630f5aaa4d60e31b8452602460448201359101358c35600486019094935f9360809360a084019784526020840152604083015260608201520152565b03925af19081156106f4578891610c51575b5060206001600160a01b03600a5416926108d860848a01611d77565b936001600160a01b0360035416918b8a6109468d6001600160a01b036004541699898c6001600160a01b03600554166001600160a01b0360065416906040519e8f9c8d9b8c9a631aeb677560e01b8c52602460448b01359a01359860408835980135918d6004339101611e59565b03925af19182156106f4578892610c21575b508a3b15610c0857604051631dda7cbd60e11b815283356004820152602481018290526001600160a01b038316604482015288818d8183816064810103925af18015610bb057908991610c0c575b50506109cb6040840135836001600160a01b036109c560848c01611d77565b16612087565b8a3b15610c085760405163daa5de8960e01b81528335600482015260248101919091528781604481838f5af180156106f457908891610bef575b5050600954604051600162f13a3f60e01b031981526001600160a01b03838116600483015233602483015287811660448301529091602091839160649183918d91165af19081156106f4579088949392918591610bbb575b5060206001600160a01b0360095416604460405180988193634f9a543d60e01b83528660048401528b60248401525af18015610bb057610b7b575b600194506001600160a01b03610aae858c61200e565b9216809252610abd848c61200e565b52610aca60848801611d77565b604080516001600160a01b03928316815284820135602082015291881691339184917f5110acfd33aad02838430d854a830e50cb07377fab40a6e84daeedb1b15136009190a4610b1c60848801611d77565b604080516001600160a01b039290921682528381013560208301526024890135908201526044880135606082015233923591907fedeed7c4ec432055121ac018fb1eae97993002c35894a4659750e8a1fbbffda290608090a4016107fd565b6020853d8211610ba8575b81610b9360209383611d22565b81010312610ba45760019450610a98565b5f80fd5b3d9150610b86565b6040513d8b823e3d90fd5b9450506020843d8211610be7575b81610bd660209383611d22565b81010312610ba4578793518c610a5d565b3d9150610bc9565b81610bf991611d22565b610c0457868b610a05565b8680fd5b8780fd5b81610c1691611d22565b610c0857878c6109a6565b610c4391925060203d8111610c4a575b610c3b8183611d22565b810190611d58565b908b610958565b503d610c31565b90506020813d8211610c7a575b81610c6b60209383611d22565b81010312610ba457518b6108bc565b3d9150610c5e565b506108aa60206002610862565b6358d620b360e01b8752600487fd5b90508a610843565b858588847fcfe4fc975166df37c707e3243b5575485889ad5aea316bf4a85a02a2dcdc995d88610cd860848201611d77565b906044610ce86004830180611f82565b9290506001600160a01b0360405194168452606481013560208501526024810135604085015201356060830152608082015260c060a082015280610d31339560c0830190611cef565b0390a3604051918291602083016020845282518091526020604085019301915b818110610d5f575050500390f35b82516001600160a01b0316845285945060209384019390920191600101610d51565b9093506020813d602011610dad575b81610d9d60209383611d22565b81010312610ba4575192856107a6565b3d9150610d90565b6040513d84823e3d90fd5b63162908e360e11b8352600483fd5b63e6c4247b60e01b8552600485fd5b506001600160a01b03841633146105ae565b610e0a91945060203d602011610c4a57610c3b8183611d22565b925f61059b565b6040513d87823e3d90fd5b610e3691925060403d604011610736576107278183611d22565b50905f61056e565b6040513d86823e3d90fd5b634e487b7160e01b84526032600452602484fd5b631131fa7160e11b8252600482fd5b50610e7960848201611d77565b6001600160a01b0380600854169116141561051e565b638727a7f960e01b8252600482fd5b630f86180360e41b8352600483fd5b806040610ebd6001938587611fb8565b0135610ec9828761200e565b52016103cb565b806020610ee06001938587611fb8565b0135610eec828761200e565b52016103a6565b80610f016001928486611fb8565b35610f0c828761200e565b5201610381565b630bc5627960e01b8252600482fd5b50346101ba5760203660031901126101ba576004356001600160a01b03811680910361027a57610f506120c3565b801561030a576001600160a01b0319600a541617600a5580f35b50346101ba5760203660031901126101ba576004356001600160a01b03811680910361027a57610f986120c3565b801561030a576001600160a01b0319600754161760075580f35b50346101ba57806003193601126101ba5760206001600160a01b0360085416604051908152f35b50346101ba5760203660031901126101ba576004356001600160a01b03811680910361027a576110076120c3565b801561030a576001600160a01b0319600854161760085580f35b50346101ba57806003193601126101ba576001600160a01b036020915416604051908152f35b50346101ba57806003193601126101ba576020600154604051908152f35b50346101ba57806003193601126101ba5760206001600160a01b0360075416604051908152f35b50346101ba5760203660031901126101ba576004356001600160a01b03811680910361027a576110ba6120c3565b801561030a576001600160a01b0319600354161760035580f35b50346101ba57806003193601126101ba576110ed6120c3565b6110f5612022565b805460ff60a01b1916600160a01b1781556040513381527f62e78cea01bee320cd4e420270b5ea74000d11b0c9f74754ebdbfc544b05a25890602090a180f35b50346101ba57806003193601126101ba5761114e6120c3565b806001600160a01b038154811981168355167f8be0079c531659141344cd1fd0a4f28419497f9722a3daafe3b4186f6b6457e08280a380f35b50346101ba5760203660031901126101ba576004356001600160a01b03811680910361027a576111b56120c3565b801561030a576001600160a01b0319600454161760045580f35b50346101ba57806003193601126101ba5760049060206001600160a01b0360095416604051938480926363ee7c8d60e01b82525afa90811561124f579061121c575b602090604051908152f35b506020813d602011611247575b8161123660209383611d22565b81010312610ba45760209051611211565b3d9150611229565b604051903d90823e3d90fd5b50346101ba57806003193601126101ba5760206001600160a01b0360055416604051908152f35b50346101ba5760203660031901126101ba576004356001600160a01b03811680910361027a576112b06120c3565b801561030a576001600160a01b0319600654161760065580f35b50346101ba5760203660031901126101ba576004356001600160a01b03811680910361027a57816001600160a01b036009541691602460405180948193632e67542f60e11b835260048301525afa908115610db557826113409392611344575b5050604051918291602083526020830190611cef565b0390f35b61136092503d8091833e6113588183611d22565b810190611f08565b5f8061132a565b50346101ba57806003193601126101ba5760ff6020915460a01c166040519015158152f35b50346101ba57806003193601126101ba5760206001600160a01b0360095416604051908152f35b50346101ba57806003193601126101ba576113cc6120c3565b805460ff8160a01c16156114125760ff60a01b191681556040513381527f5db9ee0a495bf2e6ff9c91a7834c1ba4fdd244a5e8aa4e537bd38aeae4b073aa90602090a180f35b638dfc202b60e01b8252600482fd5b50346101ba57806003193601126101ba5760206001600160a01b0360065416604051908152f35b50346101ba5760203660031901126101ba576004356001600160a01b03811680910361027a576114766120c3565b801561030a576001600160a01b0319600554161760055580f35b50346101ba5760203660031901126101ba576024816001600160a01b0360095416604051928380926334bfd2a960e01b825260043560048301525afa908115610db557826113409392611344575050604051918291602083526020830190611cef565b50346101ba5760203660031901126101ba5761150d6120c3565b60043560025580f35b50346101ba57806003193601126101ba576020600254604051908152f35b50346101ba5760203660031901126101ba5761154e6120c3565b60043560015580f35b5034610ba4576020366003190112610ba45760043567ffffffffffffffff8111610ba45780600401916101006003198336030112610ba457611597612022565b60848201906115a582611d77565b9060a48401356115de6001600160a01b036116806104e660c4890135966115cf60e48b018c611d8b565b95908560055416963691611dbe565b9060405160208101918d35835260248d0135604083015260448d0135606083015260648d013560808301526bffffffffffffffffffffffff199060601b1660a08201528760b48201528960d48201524660f48201523060601b610114820152610108815261164e61012882611d22565b5190207f19457468657265756d205369676e6564204d6573736167653a0a3332000000005f52601c52603c5f2061216a565b1603611c21574211611c125761169583611d77565b6001600160a01b0380600754169116141580611bf2575b611be3576001600160a01b0360065416908115611b5e576040516001622a8fc360e11b03198152863560048201526024868101359082015260448087013590820152602081606481865afa908115611adb575f91611bc4575b5015611bb55760408051633f7ec88960e11b8152873560048201529081602481865afa908115611adb575f91611b95575b50604051906368ff6de160e11b82526004820152602081602481865afa908115611adb575f91611b76575b506001600160a01b0381169384158015611b6d575b611b5e5761271061178d60015460648a0135611e32565b0490600254808310611b56575b506064880135821015611b47576117cb6001600160a01b036117bb89611d77565b1660648a0135903090339061203f565b8015611b3e57935b604051630f5aaa4d60e31b8152893560048201526024808a0135908201526044808a01359082015260648101959095525f60848601526020858060a4810103815f855af1918215611adb5788955f93611b07575b50600a546001600160a01b03169061183e89611d77565b90856003546001600160a01b0316928d876004546001600160a01b03169b6005546001600160a01b03166006546001600160a01b0316906040519e8f998a998a99631aeb677560e01b8b5260448701359960248801359935976064013591339c6004019c6118ab9d611e59565b03815a6020945f91f1948515611adb575f95611ae6575b50803b15610ba457604051631dda7cbd60e11b81528935600482015260248101929092526001600160a01b03851660448301525f908290606490829084905af18015611adb57611ac2575b506020611973839261192f60648a0135876001600160a01b036109c58c611d77565b600954604051600162f13a3f60e01b031981526001600160a01b03888116600483015233602483015292831660448201529586939190921691839182906064820190565b03925af190811561124f5750611a66575b60207f5110acfd33aad02838430d854a830e50cb07377fab40a6e84daeedb1b15136008787611a167fedeed7c4ec432055121ac018fb1eae97993002c35894a4659750e8a1fbbffda2611a5b611a1e8b8b868c6001600160a01b036119e885611d77565b604080516001600160a01b03909216825260649490940135602082015291169a8b9833938a93918291820190565b0390a4611d77565b604080516001600160a01b039092168252606486013560208301526024860135908201526044909401356060850152339435939081906080820190565b0390a4604051908152f35b94929093916020863d602011611aba575b81611a8460209383611d22565b81010312610ba45792945090929091907fedeed7c4ec432055121ac018fb1eae97993002c35894a4659750e8a1fbbffda2611984565b3d9150611a77565b61197392505f611ad191611d22565b60205f925061190d565b6040513d5f823e3d90fd5b611b0091955060203d602011610c4a57610c3b8183611d22565b935f6118c2565b955091506020853d602011611b36575b81611b2460209383611d22565b81010312610ba457879451915f611827565b3d9150611b17565b506002936117d3565b6358d620b360e01b5f5260045ffd5b91505f61179a565b63e6c4247b60e01b5f5260045ffd5b50843314611776565b611b8f915060203d602011610c4a57610c3b8183611d22565b5f611761565b611bae915060403d604011610736576107278183611d22565b505f611736565b63162908e360e11b5f5260045ffd5b611bdd915060203d6020116106ed576106df8183611d22565b5f611705565b631131fa7160e11b5f5260045ffd5b50611bfc83611d77565b6001600160a01b038060085416911614156116ac565b638727a7f960e01b5f5260045ffd5b630f86180360e41b5f5260045ffd5b34610ba4575f366003190112610ba457600460206001600160a01b0360095416604051928380926369ff6abb60e01b82525afa8015611adb575f9061121c57602090604051908152f35b34610ba4576020366003190112610ba4576020816024816001600160a01b03600954166297a97760e11b825260043560048301525afa8015611adb576020915f91611cd2575b506001600160a01b0360405191168152f35b611ce99150823d8411610c4a57610c3b8183611d22565b82611cc0565b90602080835192838152019201905f5b818110611d0c5750505090565b8251845260209384019390920191600101611cff565b90601f8019910116810190811067ffffffffffffffff821117611d4457604052565b634e487b7160e01b5f52604160045260245ffd5b90816020910312610ba457516001600160a01b0381168103610ba45790565b356001600160a01b0381168103610ba45790565b903590601e1981360301821215610ba4570180359067ffffffffffffffff8211610ba457602001918136038313610ba457565b92919267ffffffffffffffff8211611d445760405191611de8601f8201601f191660200184611d22565b829481845281830111610ba4578281602093845f960137010152565b90816020910312610ba457518015158103610ba45790565b9190826040910312610ba4576020825192015190565b81810292918115918404141715611e4557565b634e487b7160e01b5f52601160045260245ffd5b9a98969492909d9c9b99979593916101a08c019e6001600160a01b03168c526001600160a01b031660208c01526001600160a01b031660408b015260608a015260808901526001600160a01b031660a08801526001600160a01b031660c08701526001600160a01b031660e08601526001600160a01b03166101008501526101208401526101408301526101608201526101800152565b67ffffffffffffffff8111611d445760051b60200190565b602081830312610ba45780519067ffffffffffffffff8211610ba457019080601f83011215610ba4578151611f3c81611ef0565b92611f4a6040519485611d22565b81845260208085019260051b820101928311610ba457602001905b828210611f725750505090565b8151815260209182019101611f65565b903590601e1981360301821215610ba4570180359067ffffffffffffffff8211610ba457602001916060820236038313610ba457565b9190811015611fc8576060020190565b634e487b7160e01b5f52603260045260245ffd5b90611fe682611ef0565b611ff36040519182611d22565b8281528092612004601f1991611ef0565b0190602036910137565b8051821015611fc85760209160051b010190565b60ff5f5460a01c1661203057565b63d93c066560e01b5f5260045ffd5b9091926001600160a01b036120859481604051956323b872dd60e01b6020880152166024860152166044840152606483015260648252612080608483611d22565b612116565b565b60405163a9059cbb60e01b60208201526001600160a01b0392909216602483015260448083019390935291815261208591612080606483611d22565b6001600160a01b035f541633036120d657565b63118cdaa760e01b5f523360045260245ffd5b80516020909101905f5b8181106121005750505090565b82518452602093840193909201916001016120f3565b905f602091828151910182855af115611adb575f513d61216157506001600160a01b0381163b155b6121455750565b6001600160a01b0390635274afe760e01b5f521660045260245ffd5b6001141561213e565b815191906041830361219a576121939250602082015190606060408401519301515f1a90612218565b9192909190565b50505f9160029190565b600481101561220457806121b6575050565b600181036121cd5763f645eedf60e01b5f5260045ffd5b600281036121e8575063fce698f760e01b5f5260045260245ffd5b6003146121f25750565b6335e2f38360e21b5f5260045260245ffd5b634e487b7160e01b5f52602160045260245ffd5b91907f7fffffffffffffffffffffffffffffff5d576e7357a4501ddfe92f46681b20a0841161228f579160209360809260ff5f9560405194855216868401526040830152606082015282805260015afa15611adb575f516001600160a01b0381161561228557905f905f90565b505f906001905f90565b5050505f916003919056fea2646970667358221220165c9e0b01e8ecbedafaa79148f8bf5b2caa11b3d27868328f913c50d8981ab664736f6c634300081c0033",
  "linkReferences": {},
  "deployedLinkReferences": {},
  "immutableReferences": {},
  "inputSourceName": "project/contracts/EscrowFactory.sol",
  "buildInfoId": "solc-0_8_28-4fcdb18056ccd947948e3acd56ca989af23af925"
}