{
  "_format": "hh3-artifact-1",
  "contractName": "EscrowFactory",
  "sourceName": "contracts/EscrowFactory.sol",
  "abi": [
    {
      "inputs": [
        {
          "internalType": "address",
          "name": "_platformWallet",
          "type": "address"
        },
        {
          "internalType": "address",
          "name": "_admin",
          "type": "address"
        },
        {
          "internalType": "address",
          "name": "_backendSigner",
          "type": "address"
        },
        {
          "internalType": "address",
          "name": "_USDC",
          "type": "address"
        },
        {
          "internalType": "address",
          "name": "_EURC",
          "type": "address"
        }
      ],
      "stateMutability": "nonpayable",
      "type": "constructor"
    },
    {
      "inputs": [],
      "name": "ECDSAInvalidSignature",
      "type": "error"
    },
    {
      "inputs": [
        {
          "internalType": "uint256",
          "name": "length",
          "type": "uint256"
        }
      ],
      "name": "ECDSAInvalidSignatureLength",
      "type": "error"
    },
    {
      "inputs": [
        {
          "internalType": "bytes32",
          "name": "s",
          "type": "bytes32"
        }
      ],
      "name": "ECDSAInvalidSignatureS",
      "type": "error"
    },
    {
      "inputs": [],
      "name": "EmptyRoomList",
      "type": "error"
    },
    {
      "inputs": [],
      "name": "EnforcedPause",
      "type": "error"
    },
    {
      "inputs": [],
      "name": "ExpectedPause",
      "type": "error"
    },
    {
      "inputs": [],
      "name": "InvalidAddress",
      "type": "error"
    },
    {
      "inputs": [],
      "name": "InvalidAmount",
      "type": "error"
    },
    {
      "inputs": [],
      "name": "InvalidFee",
      "type": "error"
    },
    {
      "inputs": [],
      "name": "InvalidQuote",
      "type": "error"
    },
    {
      "inputs": [
        {
          "internalType": "address",
          "name": "owner",
          "type": "address"
        }
      ],
      "name": "OwnableInvalidOwner",
      "type": "error"
    },
    {
      "inputs": [
        {
          "internalType": "address",
          "name": "account",
          "type": "address"
        }
      ],
      "name": "OwnableUnauthorizedAccount",
      "type": "error"
    },
    {
      "inputs": [],
      "name": "QuoteExpired",
      "type": "error"
    },
    {
      "inputs": [
        {
          "internalType": "address",
          "name": "token",
          "type": "address"
        }
      ],
      "name": "SafeERC20FailedOperation",
      "type": "error"
    },
    {
      "inputs": [],
      "name": "UnsupportedCurrency",
      "type": "error"
    },
    {
      "anonymous": false,
      "inputs": [
        {
          "indexed": true,
          "internalType": "uint256",
          "name": "batchId",
          "type": "uint256"
        },
        {
          "indexed": true,
          "internalType": "address",
          "name": "traveler",
          "type": "address"
        },
        {
          "indexed": false,
          "internalType": "address",
          "name": "currency",
          "type": "address"
        },
        {
          "indexed": false,
          "internalType": "uint256",
          "name": "totalPrice",
          "type": "uint256"
        },
        {
          "indexed": false,
          "internalType": "uint256",
          "name": "checkIn",
          "type": "uint256"
        },
        {
          "indexed": false,
          "internalType": "uint256",
          "name": "checkOut",
          "type": "uint256"
        },
        {
          "indexed": false,
          "internalType": "uint256",
          "name": "roomCount",
          "type": "uint256"
        },
        {
          "indexed": false,
          "internalType": "uint256[]",
          "name": "escrowIds",
          "type": "uint256[]"
        }
      ],
      "name": "BatchBookingCreated",
      "type": "event"
    },
    {
      "anonymous": false,
      "inputs": [
        {
          "indexed": true,
          "internalType": "address",
          "name": "escrowAddress",
          "type": "address"
        },
        {
          "indexed": true,
          "internalType": "address",
          "name": "buyer",
          "type": "address"
        },
        {
          "indexed": true,
          "internalType": "address",
          "name": "seller",
          "type": "address"
        },
        {
          "indexed": false,
          "internalType": "address",
          "name": "token",
          "type": "address"
        },
        {
          "indexed": false,
          "internalType": "uint256",
          "name": "amount",
          "type": "uint256"
        }
      ],
      "name": "EscrowCreated",
      "type": "event"
    },
    {
      "anonymous": false,
      "inputs": [
        {
          "indexed": true,
          "internalType": "address",
          "name": "previousOwner",
          "type": "address"
        },
        {
          "indexed": true,
          "internalType": "address",
          "name": "newOwner",
          "type": "address"
        }
      ],
      "name": "OwnershipTransferred",
      "type": "event"
    },
    {
      "anonymous": false,
      "inputs": [
        {
          "indexed": false,
          "internalType": "address",
          "name": "account",
          "type": "address"
        }
      ],
      "name": "Paused",
      "type": "event"
    },
    {
      "anonymous": false,
      "inputs": [
        {
          "indexed": true,
          "internalType": "address",
          "name": "escrowAddress",
          "type": "address"
        },
        {
          "indexed": true,
          "internalType": "uint256",
          "name": "tokenId",
          "type": "uint256"
        },
        {
          "indexed": true,
          "internalType": "address",
          "name": "traveler",
          "type": "address"
        },
        {
          "indexed": false,
          "internalType": "address",
          "name": "currency",
          "type": "address"
        },
        {
          "indexed": false,
          "internalType": "uint256",
          "name": "price",
          "type": "uint256"
        },
        {
          "indexed": false,
          "internalType": "uint256",
          "name": "checkIn",
          "type": "uint256"
        },
        {
          "indexed": false,
          "internalType": "uint256",
          "name": "checkOut",
          "type": "uint256"
        }
      ],
      "name": "TravelEscrowCreated",
      "type": "event"
    },
    {
      "anonymous": false,
      "inputs": [
        {
          "indexed": false,
          "internalType": "address",
          "name": "account",
          "type": "address"
        }
      ],
      "name": "Unpaused",
      "type": "event"
    },
    {
      "inputs": [],
      "name": "EURC",
      "outputs": [
        {
          "internalType": "address",
          "name": "",
          "type": "address"
        }
      ],
      "stateMutability": "view",
      "type": "function"
    },
    {
      "inputs": [],
      "name": "FEE_DENOMINATOR",
      "outputs": [
        {
          "internalType": "uint256",
          "name": "",
          "type": "uint256"
        }
      ],
      "stateMutability": "view",
      "type": "function"
    },
    {
      "inputs": [],
      "name": "USDC",
      "outputs": [
        {
          "internalType": "address",
          "name": "",
          "type": "address"
        }
      ],
      "stateMutability": "view",
      "type": "function"
    },
    {
      "inputs": [],
      "name": "admin",
      "outputs": [
        {
          "internalType": "address",
          "name": "",
          "type": "address"
        }
      ],
      "stateMutability": "view",
      "type": "function"
    },
    {
      "inputs": [],
      "name": "backendSigner",
      "outputs": [
        {
          "internalType": "address",
          "name": "",
          "type": "address"
        }
      ],
      "stateMutability": "view",
      "type": "function"
    },
    {
      "inputs": [],
      "name": "batchCount",
      "outputs": [
        {
          "internalType": "uint256",
          "name": "",
          "type": "uint256"
        }
      ],
      "stateMutability": "view",
      "type": "function"
    },
    {
      "inputs": [
        {
          "components": [
            {
              "components": [
                {
                  "internalType": "uint256",
                  "name": "tokenId",
                  "type": "uint256"
                },
                {
                  "internalType": "uint256",
                  "name": "quantity",
                  "type": "uint256"
                },
                {
                  "internalType": "uint256",
                  "name": "price",
                  "type": "uint256"
                }
              ],
              "internalType": "struct EscrowFactory.RoomBooking[]",
              "name": "rooms",
              "type": "tuple[]"
            },
            {
              "internalType": "uint256",
              "name": "checkIn",
              "type": "uint256"
            },
            {
              "internalType": "uint256",
              "name": "checkOut",
              "type": "uint256"
            },
            {
              "internalType": "uint256",
              "name": "totalPrice",
              "type": "uint256"
            },
            {
              "internalType": "address",
              "name": "currency",
              "type": "address"
            },
            {
              "internalType": "uint256",
              "name": "validUntil",
              "type": "uint256"
            },
            {
              "internalType": "bytes",
              "name": "signature",
              "type": "bytes"
            }
          ],
          "internalType": "struct EscrowFactory.BatchBookingQuote",
          "name": "quote",
          "type": "tuple"
        }
      ],
      "name": "createBatchTravelEscrow",
      "outputs": [
        {
          "internalType": "address[]",
          "name": "escrowAddresses",
          "type": "address[]"
        }
      ],
      "stateMutability": "nonpayable",
      "type": "function"
    },
    {
      "inputs": [
        {
          "components": [
            {
              "internalType": "uint256",
              "name": "tokenId",
              "type": "uint256"
            },
            {
              "internalType": "uint256",
              "name": "checkIn",
              "type": "uint256"
            },
            {
              "internalType": "uint256",
              "name": "checkOut",
              "type": "uint256"
            },
            {
              "internalType": "uint256",
              "name": "price",
              "type": "uint256"
            },
            {
              "internalType": "address",
              "name": "currency",
              "type": "address"
            },
            {
              "internalType": "uint256",
              "name": "validUntil",
              "type": "uint256"
            },
            {
              "internalType": "uint256",
              "name": "quantity",
              "type": "uint256"
            },
            {
              "internalType": "bytes",
              "name": "signature",
              "type": "bytes"
            }
          ],
          "internalType": "struct EscrowFactory.BookingQuote",
          "name": "quote",
          "type": "tuple"
        }
      ],
      "name": "createTravelEscrowWithQuote",
      "outputs": [
        {
          "internalType": "address",
          "name": "escrowAddress",
          "type": "address"
        }
      ],
      "stateMutability": "nonpayable",
      "type": "function"
    },
    {
      "inputs": [],
      "name": "escrowCount",
      "outputs": [
        {
          "internalType": "uint256",
          "name": "",
          "type": "uint256"
        }
      ],
      "stateMutability": "view",
      "type": "function"
    },
    {
      "inputs": [],
      "name": "escrowDeployer",
      "outputs": [
        {
          "internalType": "contract EscrowDeployer",
          "name": "",
          "type": "address"
        }
      ],
      "stateMutability": "view",
      "type": "function"
    },
    {
      "inputs": [],
      "name": "escrowRegistry",
      "outputs": [
        {
          "internalType": "contract EscrowRegistry",
          "name": "",
          "type": "address"
        }
      ],
      "stateMutability": "view",
      "type": "function"
    },
    {
      "inputs": [
        {
          "internalType": "uint256",
          "name": "escrowId",
          "type": "uint256"
        }
      ],
      "name": "escrows",
      "outputs": [
        {
          "internalType": "address",
          "name": "",
          "type": "address"
        }
      ],
      "stateMutability": "view",
      "type": "function"
    },
    {
      "inputs": [
        {
          "internalType": "uint256",
          "name": "batchId",
          "type": "uint256"
        }
      ],
      "name": "getBatchEscrows",
      "outputs": [
        {
          "internalType": "uint256[]",
          "name": "",
          "type": "uint256[]"
        }
      ],
      "stateMutability": "view",
      "type": "function"
    },
    {
      "inputs": [
        {
          "internalType": "address",
          "name": "user",
          "type": "address"
        }
      ],
      "name": "getUserEscrows",
      "outputs": [
        {
          "internalType": "uint256[]",
          "name": "",
          "type": "uint256[]"
        }
      ],
      "stateMutability": "view",
      "type": "function"
    },
    {
      "inputs": [],
      "name": "minFee",
      "outputs": [
        {
          "internalType": "uint256",
          "name": "",
          "type": "uint256"
        }
      ],
      "stateMutability": "view",
      "type": "function"
    },
    {
      "inputs": [],
      "name": "owner",
      "outputs": [
        {
          "internalType": "address",
          "name": "",
          "type": "address"
        }
      ],
      "stateMutability": "view",
      "type": "function"
    },
    {
      "inputs": [],
      "name": "pause",
      "outputs": [],
      "stateMutability": "nonpayable",
      "type": "function"
    },
    {
      "inputs": [],
      "name": "paused",
      "outputs": [
        {
          "internalType": "bool",
          "name": "",
          "type": "bool"
        }
      ],
      "stateMutability": "view",
      "type": "function"
    },
    {
      "inputs": [],
      "name": "platformFeePercent",
      "outputs": [
        {
          "internalType": "uint256",
          "name": "",
          "type": "uint256"
        }
      ],
      "stateMutability": "view",
      "type": "function"
    },
    {
      "inputs": [],
      "name": "platformWallet",
      "outputs": [
        {
          "internalType": "address",
          "name": "",
          "type": "address"
        }
      ],
      "stateMutability": "view",
      "type": "function"
    },
    {
      "inputs": [],
      "name": "propertyNFT",
      "outputs": [
        {
          "internalType": "address",
          "name": "",
          "type": "address"
        }
      ],
      "stateMutability": "view",
      "type": "function"
    },
    {
      "inputs": [],
      "name": "renounceOwnership",
      "outputs": [],
      "stateMutability": "nonpayable",
      "type": "function"
    },
    {
      "inputs": [
        {
          "internalType": "address",
          "name": "_newAdmin",
          "type": "address"
        }
      ],
      "name": "setAdmin",
      "outputs": [],
      "stateMutability": "nonpayable",
      "type": "function"
    },
    {
      "inputs": [
        {
          "internalType": "address",
          "name": "_newSigner",
          "type": "address"
        }
      ],
      "name": "setBackendSigner",
      "outputs": [],
      "stateMutability": "nonpayable",
      "type": "function"
    },
    {
      "inputs": [
        {
          "internalType": "address",
          "name": "_newEURC",
          "type": "address"
        }
      ],
      "name": "setEURC",
      "outputs": [],
      "stateMutability": "nonpayable",
      "type": "function"
    },
    {
      "inputs": [
        {
          "internalType": "address",
          "name": "_escrowDeployer",
          "type": "address"
        }
      ],
      "name": "setEscrowDeployer",
      "outputs": [],
      "stateMutability": "nonpayable",
      "type": "function"
    },
    {
      "inputs": [
        {
          "internalType": "address",
          "name": "_escrowRegistry",
          "type": "address"
        }
      ],
      "name": "setEscrowRegistry",
      "outputs": [],
      "stateMutability": "nonpayable",
      "type": "function"
    },
    {
      "inputs": [
        {
          "internalType": "uint256",
          "name": "_newMinFee",
          "type": "uint256"
        }
      ],
      "name": "setMinFee",
      "outputs": [],
      "stateMutability": "nonpayable",
      "type": "function"
    },
    {
      "inputs": [
        {
          "internalType": "uint256",
          "name": "_newFee",
          "type": "uint256"
        }
      ],
      "name": "setPlatformFee",
      "outputs": [],
      "stateMutability": "nonpayable",
      "type": "function"
    },
    {
      "inputs": [
        {
          "internalType": "address",
          "name": "_newWallet",
          "type": "address"
        }
      ],
      "name": "setPlatformWallet",
      "outputs": [],
      "stateMutability": "nonpayable",
      "type": "function"
    },
    {
      "inputs": [
        {
          "internalType": "address",
          "name": "_newPropertyNFT",
          "type": "address"
        }
      ],
      "name": "setPropertyNFT",
      "outputs": [],
      "stateMutability": "nonpayable",
      "type": "function"
    },
    {
      "inputs": [
        {
          "internalType": "address",
          "name": "_newUSDC",
          "type": "address"
        }
      ],
      "name": "setUSDC",
      "outputs": [],
      "stateMutability": "nonpayable",
      "type": "function"
    },
    {
      "inputs": [
        {
          "internalType": "address",
          "name": "newOwner",
          "type": "address"
        }
      ],
      "name": "transferOwnership",
      "outputs": [],
      "stateMutability": "nonpayable",
      "type": "function"
    },
    {
      "inputs": [],
      "name": "unpause",
      "outputs": [],
      "stateMutability": "nonpayable",
      "type": "function"
    }
  ],
  "bytecode": "0x6080346101cd57601f6124e438819003918201601f19168301916001600160401b038311848410176101d15780849260a0946040528339810103126101cd57610047816101e5565b90610054602082016101e5565b90610061604082016101e5565b6100796080610072606085016101e5565b93016101e5565b9233156101ba575f8054336001600160a01b0319821681178355604051979290916001600160a01b0316907f8be0079c531659141344cd1fd0a4f28419497f9722a3daafe3b4186f6b6457e09080a36102ee6001556207a1206002556001600160a01b0316801580156101a9575b8015610198575b8015610187575b8015610176575b61016757600380546001600160a01b03199081169290921790556004805482166001600160a01b03938416179055600580548216938316939093179092556007805483169382169390931790925560088054909116929091169190911790556122ea90816101fa8239f35b63e6c4247b60e01b5f5260045ffd5b506001600160a01b038516156100fc565b506001600160a01b038416156100f5565b506001600160a01b038316156100ee565b506001600160a01b038216156100e7565b631e4fbdf760e01b5f525f60045260245ffd5b5f80fd5b634e487b7160e01b5f52604160045260245ffd5b51906001600160a01b03821682036101cd5756fe6080806040526004361015610012575f80fd5b5f905f3560e01c908163012f52ee14611c945750806306f1305614611c4a5780630dab80b41461156257806312e8e2c31461153f57806324ec75901461152157806331ac9920146114fe57806334bfd2a91461149b57806336f956701461145357806337f768381461142c5780633f4ba83a146113be578063406e1d18146113975780635c975abb146113725780635ccea85e146112d55780635f1fbccc1461128d57806365d65e8614611266578063675ac67a146111da578063704b6c0214611192578063715018a6146111405780638456cb59146110df5780638831e9cf1461109757806389a30271146110705780638c639a85146110525780638da5cb5b1461102c5780639ab3876014610fe4578063aabfa37d14610fbd578063b3e089a214610f75578063bee01be814610f2d578063c694b03714610319578063cbcd99a3146102c2578063d73792a9146102a5578063ebd5d58c1461027e578063f2fde38b146101e4578063f851a440146101bd5763fa2af9da14610194575f80fd5b346101ba57806003193601126101ba5760206001600160a01b0360035416604051908152f35b80fd5b50346101ba57806003193601126101ba5760206001600160a01b0360045416604051908152f35b50346101ba5760203660031901126101ba576004356001600160a01b03811680910361027a576102126120dd565b801561026657815473ffffffffffffffffffffffffffffffffffffffff198116821783556001600160a01b03167f8be0079c531659141344cd1fd0a4f28419497f9722a3daafe3b4186f6b6457e08380a380f35b631e4fbdf760e01b82526004829052602482fd5b5080fd5b50346101ba57806003193601126101ba5760206001600160a01b03600a5416604051908152f35b50346101ba57806003193601126101ba5760206040516127108152f35b50346101ba5760203660031901126101ba576004356001600160a01b03811680910361027a576102f06120dd565b801561030a576001600160a01b0319600954161760095580f35b63e6c4247b60e01b8252600482fd5b50346101ba5760203660031901126101ba5760043567ffffffffffffffff811161027a5760e0600319823603011261027a5761035361203c565b6103606004820180611f9c565b905015610f1e576103746004820180611f9c565b9061037e82611ff6565b91845b818110610efe57506103999150506004830180611f9c565b906103a382611ff6565b91855b818110610edb57506103be9150506004840180611f9c565b906103c882611ff6565b91865b818110610eb8575050506103f4916103fa610408926040519485936103f4602086018099612103565b90612103565b03601f198101835282611d3c565b51902061044d6001600160a01b036104ef6104e661042860848701611d91565b60a48701359561043e60c4890189600401611da5565b96908660055416973691611dd8565b91604051906020820192835260248a0135604083015260448a0135606083015260648a013560808301526bffffffffffffffffffffffff199060601b1660a08201528760b48201524660d48201523060601b60f482015260e881526104b461010882611d3c565b5190207f19457468657265756d205369676e6564204d6573736167653a0a3332000000008952601c52603c8820612184565b909291926121be565b1603610ea9574211610e9a5761050760848201611d91565b6001600160a01b0380600754169116141580610e77575b610e68576006546001600160a01b03169061053c6004820180611f9c565b91909115610e545760408051633f7ec88960e11b81529235600484015282602481865afa918215610e49578492610e27575b506040516368ff6de160e11b81526004810183905292602084602481845afa938415610e1c578594610dfb575b506001600160a01b038416158015610de9575b610dda578492835b6105c36004850180611f9c565b905085101561073d576105e3856105dd6004870180611f9c565b90611fd2565b60408051633f7ec88960e11b81529135600483015281602481875afa80156106f4578391899161070e575b50036106ff57610661602061062a876105dd6004890180611f9c565b6040516001622a8fc360e11b0319815290356004820152602480880135908201526044878101359082015291829081906064820190565b0381875afa9081156106f45788916106c6575b50156106b757604061068d866105dd6004880180611f9c565b013581018091116106a3576001909401936105b6565b634e487b7160e01b87526011600452602487fd5b63162908e360e11b8752600487fd5b6106e7915060203d81116106ed575b6106df8183611d3c565b810190611e1e565b5f610674565b503d6106d5565b6040513d8a823e3d90fd5b63e6c4247b60e01b8752600487fd5b61072f915060403d8111610736575b6107278183611d3c565b810190611e36565b505f61060e565b503d61071d565b8686858593606482013503610dcb57806107756001600160a01b036107656084879501611d91565b1660648301359030903390612059565b60206001600160a01b036009541660046040518097819363592bf1a760e01b83525af1938415610dc0578294610d8c575b506107b46004820180611f9c565b9390506107d96107c385611f0a565b946107d16040519687611d3c565b808652611f0a565b601f19013660208601376107fa6107f36004840180611f9c565b9050611ff6565b94835b61080a6004850180611f9c565b9050811015610cb157610824816105dd6004870180611f9c565b6127106108376001546040840135611e4c565b04600254808210610ca9575b506040820135811015610c9a57896020830135878115610c8b576108b3926020925b604051633422e96f60e01b815287356004820152602480850135908201526044938401359381019390935260648301525f60848301523360a4830152909283919082908c90829060c4820190565b03925af19081156106f4578891610c5a575b5060206001600160a01b03600a5416926108e160848a01611d91565b936001600160a01b0360035416918b8a61094f8d6001600160a01b036004541699898c6001600160a01b03600554166001600160a01b0360065416906040519e8f9c8d9b8c9a631aeb677560e01b8c52602460448b01359a01359860408835980135918d6004339101611e73565b03925af19182156106f4578892610c2a575b508a3b15610c1157604051631dda7cbd60e11b815283356004820152602481018290526001600160a01b038316604482015288818d8183816064810103925af18015610bb957908991610c15575b50506109d46040840135836001600160a01b036109ce60848c01611d91565b166120a1565b8a3b15610c115760405163daa5de8960e01b81528335600482015260248101919091528781604481838f5af180156106f457908891610bf8575b5050600954604051600162f13a3f60e01b031981526001600160a01b03838116600483015233602483015287811660448301529091602091839160649183918d91165af19081156106f4579088949392918591610bc4575b5060206001600160a01b0360095416604460405180988193634f9a543d60e01b83528660048401528b60248401525af18015610bb957610b84575b600194506001600160a01b03610ab7858c612028565b9216809252610ac6848c612028565b52610ad360848801611d91565b604080516001600160a01b03928316815284820135602082015291881691339184917f5110acfd33aad02838430d854a830e50cb07377fab40a6e84daeedb1b15136009190a4610b2560848801611d91565b604080516001600160a01b039290921682528381013560208301526024890135908201526044880135606082015233923591907fedeed7c4ec432055121ac018fb1eae97993002c35894a4659750e8a1fbbffda290608090a4016107fd565b6020853d8211610bb1575b81610b9c60209383611d3c565b81010312610bad5760019450610aa1565b5f80fd5b3d9150610b8f565b6040513d8b823e3d90fd5b9450506020843d8211610bf0575b81610bdf60209383611d3c565b81010312610bad578793518c610a66565b3d9150610bd2565b81610c0291611d3c565b610c0d57868b610a0e565b8680fd5b8780fd5b81610c1f91611d3c565b610c1157878c6109af565b610c4c91925060203d8111610c53575b610c448183611d3c565b810190611d72565b908b610961565b503d610c3a565b90506020813d8211610c83575b81610c7460209383611d3c565b81010312610bad57518b6108c5565b3d9150610c67565b602091506108b3926002610865565b6358d620b360e01b8752600487fd5b90508a610843565b858588847fcfe4fc975166df37c707e3243b5575485889ad5aea316bf4a85a02a2dcdc995d88610ce360848201611d91565b906044610cf36004830180611f9c565b9290506001600160a01b0360405194168452606481013560208501526024810135604085015201356060830152608082015260c060a082015280610d3c339560c0830190611d09565b0390a3604051918291602083016020845282518091526020604085019301915b818110610d6a575050500390f35b82516001600160a01b0316845285945060209384019390920191600101610d5c565b9093506020813d602011610db8575b81610da860209383611d3c565b81010312610bad575192856107a6565b3d9150610d9b565b6040513d84823e3d90fd5b63162908e360e11b8352600483fd5b63e6c4247b60e01b8552600485fd5b506001600160a01b03841633146105ae565b610e1591945060203d602011610c5357610c448183611d3c565b925f61059b565b6040513d87823e3d90fd5b610e4191925060403d604011610736576107278183611d3c565b50905f61056e565b6040513d86823e3d90fd5b634e487b7160e01b84526032600452602484fd5b631131fa7160e11b8252600482fd5b50610e8460848201611d91565b6001600160a01b0380600854169116141561051e565b638727a7f960e01b8252600482fd5b630f86180360e41b8352600483fd5b806040610ec86001938587611fd2565b0135610ed48287612028565b52016103cb565b806020610eeb6001938587611fd2565b0135610ef78287612028565b52016103a6565b80610f0c6001928486611fd2565b35610f178287612028565b5201610381565b630bc5627960e01b8252600482fd5b50346101ba5760203660031901126101ba576004356001600160a01b03811680910361027a57610f5b6120dd565b801561030a576001600160a01b0319600a541617600a5580f35b50346101ba5760203660031901126101ba576004356001600160a01b03811680910361027a57610fa36120dd565b801561030a576001600160a01b0319600754161760075580f35b50346101ba57806003193601126101ba5760206001600160a01b0360085416604051908152f35b50346101ba5760203660031901126101ba576004356001600160a01b03811680910361027a576110126120dd565b801561030a576001600160a01b0319600854161760085580f35b50346101ba57806003193601126101ba576001600160a01b036020915416604051908152f35b50346101ba57806003193601126101ba576020600154604051908152f35b50346101ba57806003193601126101ba5760206001600160a01b0360075416604051908152f35b50346101ba5760203660031901126101ba576004356001600160a01b03811680910361027a576110c56120dd565b801561030a576001600160a01b0319600354161760035580f35b50346101ba57806003193601126101ba576110f86120dd565b61110061203c565b805460ff60a01b1916600160a01b1781556040513381527f62e78cea01bee320cd4e420270b5ea74000d11b0c9f74754ebdbfc544b05a25890602090a180f35b50346101ba57806003193601126101ba576111596120dd565b806001600160a01b038154811981168355167f8be0079c531659141344cd1fd0a4f28419497f9722a3daafe3b4186f6b6457e08280a380f35b50346101ba5760203660031901126101ba576004356001600160a01b03811680910361027a576111c06120dd565b801561030a576001600160a01b0319600454161760045580f35b50346101ba57806003193601126101ba5760049060206001600160a01b0360095416604051938480926363ee7c8d60e01b82525afa90811561125a5790611227575b602090604051908152f35b506020813d602011611252575b8161124160209383611d3c565b81010312610bad576020905161121c565b3d9150611234565b604051903d90823e3d90fd5b50346101ba57806003193601126101ba5760206001600160a01b0360055416604051908152f35b50346101ba5760203660031901126101ba576004356001600160a01b03811680910361027a576112bb6120dd565b801561030a576001600160a01b0319600654161760065580f35b50346101ba5760203660031901126101ba576004356001600160a01b03811680910361027a57816001600160a01b036009541691602460405180948193632e67542f60e11b835260048301525afa908115610dc0578261134b939261134f575b5050604051918291602083526020830190611d09565b0390f35b61136b92503d8091833e6113638183611d3c565b810190611f22565b5f80611335565b50346101ba57806003193601126101ba5760ff6020915460a01c166040519015158152f35b50346101ba57806003193601126101ba5760206001600160a01b0360095416604051908152f35b50346101ba57806003193601126101ba576113d76120dd565b805460ff8160a01c161561141d5760ff60a01b191681556040513381527f5db9ee0a495bf2e6ff9c91a7834c1ba4fdd244a5e8aa4e537bd38aeae4b073aa90602090a180f35b638dfc202b60e01b8252600482fd5b50346101ba57806003193601126101ba5760206001600160a01b0360065416604051908152f35b50346101ba5760203660031901126101ba576004356001600160a01b03811680910361027a576114816120dd565b801561030a576001600160a01b0319600554161760055580f35b50346101ba5760203660031901126101ba576024816001600160a01b0360095416604051928380926334bfd2a960e01b825260043560048301525afa908115610dc0578261134b939261134f575050604051918291602083526020830190611d09565b50346101ba5760203660031901126101ba576115186120dd565b60043560025580f35b50346101ba57806003193601126101ba576020600254604051908152f35b50346101ba5760203660031901126101ba576115596120dd565b60043560015580f35b5034610bad576020366003190112610bad5760043567ffffffffffffffff8111610bad5780600401916101006003198336030112610bad576115a261203c565b60848201906115b082611d91565b60a48401356115e86001600160a01b0361168a6104e660c4890135956115d960e48b018c611da5565b95908560055416963691611dd8565b9060405160208101918d35835260248d0135604083015260448d0135606083015260648d013560808301526bffffffffffffffffffffffff199060601b1660a08201528760b48201528860d48201524660f48201523060601b610114820152610108815261165861012882611d3c565b5190207f19457468657265756d205369676e6564204d6573736167653a0a3332000000005f52601c52603c5f20612184565b1603611c3b574211611c2c5761169f83611d91565b6001600160a01b0380600754169116141580611c0c575b611bfd576001600160a01b0360065416918215611b78576040516001622a8fc360e11b03198152863560048201526024868101359082015260448087013590820152602081606481875afa908115611af3575f91611bde575b5015611bcf5760408051633f7ec88960e11b8152873560048201529081602481875afa908115611af3575f91611baf575b50604051906368ff6de160e11b82526004820152602081602481875afa908115611af3575f91611b90575b506001600160a01b0381169384158015611b87575b611b785761271061179760015460648a0135611e4c565b0490600254808310611b70575b506064880135821015611b6157611829946117d96001600160a01b036117c98a611d91565b1660648b01359030903390612059565b898115611b56576020915b604051633422e96f60e01b8152913560048301526024808c0135908301526044808c01359083015260648201525f60848201523360a4820152958690819060c4820190565b03815f855af1918215611af35788955f93611b1f575b50600a546001600160a01b03169061185689611d91565b90856003546001600160a01b0316928d876004546001600160a01b03169b6005546001600160a01b03166006546001600160a01b0316906040519e8f998a998a99631aeb677560e01b8b5260448701359960248801359935976064013591339c6004019c6118c39d611e73565b03815a6020945f91f1948515611af3575f95611afe575b50803b15610bad57604051631dda7cbd60e11b81528935600482015260248101929092526001600160a01b03851660448301525f908290606490829084905af18015611af357611ada575b50602061198b839261194760648a0135876001600160a01b036109ce8c611d91565b600954604051600162f13a3f60e01b031981526001600160a01b03888116600483015233602483015292831660448201529586939190921691839182906064820190565b03925af190811561125a5750611a7e575b60207f5110acfd33aad02838430d854a830e50cb07377fab40a6e84daeedb1b15136008787611a2e7fedeed7c4ec432055121ac018fb1eae97993002c35894a4659750e8a1fbbffda2611a73611a368b8b868c6001600160a01b03611a0085611d91565b604080516001600160a01b03909216825260649490940135602082015291169a8b9833938a93918291820190565b0390a4611d91565b604080516001600160a01b039092168252606486013560208301526024860135908201526044909401356060850152339435939081906080820190565b0390a4604051908152f35b94929093916020863d602011611ad2575b81611a9c60209383611d3c565b81010312610bad5792945090929091907fedeed7c4ec432055121ac018fb1eae97993002c35894a4659750e8a1fbbffda261199c565b3d9150611a8f565b61198b92505f611ae991611d3c565b60205f9250611925565b6040513d5f823e3d90fd5b611b1891955060203d602011610c5357610c448183611d3c565b935f6118da565b955091506020853d602011611b4e575b81611b3c60209383611d3c565b81010312610bad57879451915f61183f565b3d9150611b2f565b6020915060026117e4565b6358d620b360e01b5f5260045ffd5b91505f6117a4565b63e6c4247b60e01b5f5260045ffd5b50843314611780565b611ba9915060203d602011610c5357610c448183611d3c565b5f61176b565b611bc8915060403d604011610736576107278183611d3c565b505f611740565b63162908e360e11b5f5260045ffd5b611bf7915060203d6020116106ed576106df8183611d3c565b5f61170f565b631131fa7160e11b5f5260045ffd5b50611c1683611d91565b6001600160a01b038060085416911614156116b6565b638727a7f960e01b5f5260045ffd5b630f86180360e41b5f5260045ffd5b34610bad575f366003190112610bad57600460206001600160a01b0360095416604051928380926369ff6abb60e01b82525afa8015611af3575f9061122757602090604051908152f35b34610bad576020366003190112610bad576020816024816001600160a01b03600954166297a97760e11b825260043560048301525afa8015611af3576020915f91611cec575b506001600160a01b0360405191168152f35b611d039150823d8411610c5357610c448183611d3c565b82611cda565b90602080835192838152019201905f5b818110611d265750505090565b8251845260209384019390920191600101611d19565b90601f8019910116810190811067ffffffffffffffff821117611d5e57604052565b634e487b7160e01b5f52604160045260245ffd5b90816020910312610bad57516001600160a01b0381168103610bad5790565b356001600160a01b0381168103610bad5790565b903590601e1981360301821215610bad570180359067ffffffffffffffff8211610bad57602001918136038313610bad57565b92919267ffffffffffffffff8211611d5e5760405191611e02601f8201601f191660200184611d3c565b829481845281830111610bad578281602093845f960137010152565b90816020910312610bad57518015158103610bad5790565b9190826040910312610bad576020825192015190565b81810292918115918404141715611e5f57565b634e487b7160e01b5f52601160045260245ffd5b9a98969492909d9c9b99979593916101a08c019e6001600160a01b03168c526001600160a01b031660208c01526001600160a01b031660408b015260608a015260808901526001600160a01b031660a08801526001600160a01b031660c08701526001600160a01b031660e08601526001600160a01b03166101008501526101208401526101408301526101608201526101800152565b67ffffffffffffffff8111611d5e5760051b60200190565b602081830312610bad5780519067ffffffffffffffff8211610bad57019080601f83011215610bad578151611f5681611f0a565b92611f646040519485611d3c565b81845260208085019260051b820101928311610bad57602001905b828210611f8c5750505090565b8151815260209182019101611f7f565b903590601e1981360301821215610bad570180359067ffffffffffffffff8211610bad57602001916060820236038313610bad57565b9190811015611fe2576060020190565b634e487b7160e01b5f52603260045260245ffd5b9061200082611f0a565b61200d6040519182611d3c565b828152809261201e601f1991611f0a565b0190602036910137565b8051821015611fe25760209160051b010190565b60ff5f5460a01c1661204a57565b63d93c066560e01b5f5260045ffd5b9091926001600160a01b0361209f9481604051956323b872dd60e01b602088015216602486015216604484015260648301526064825261209a608483611d3c565b612130565b565b60405163a9059cbb60e01b60208201526001600160a01b0392909216602483015260448083019390935291815261209f9161209a606483611d3c565b6001600160a01b035f541633036120f057565b63118cdaa760e01b5f523360045260245ffd5b80516020909101905f5b81811061211a5750505090565b825184526020938401939092019160010161210d565b905f602091828151910182855af115611af3575f513d61217b57506001600160a01b0381163b155b61215f5750565b6001600160a01b0390635274afe760e01b5f521660045260245ffd5b60011415612158565b81519190604183036121b4576121ad9250602082015190606060408401519301515f1a90612232565b9192909190565b50505f9160029190565b600481101561221e57806121d0575050565b600181036121e75763f645eedf60e01b5f5260045ffd5b60028103612202575063fce698f760e01b5f5260045260245ffd5b60031461220c5750565b6335e2f38360e21b5f5260045260245ffd5b634e487b7160e01b5f52602160045260245ffd5b91907f7fffffffffffffffffffffffffffffff5d576e7357a4501ddfe92f46681b20a084116122a9579160209360809260ff5f9560405194855216868401526040830152606082015282805260015afa15611af3575f516001600160a01b0381161561229f57905f905f90565b505f906001905f90565b5050505f916003919056fea26469706673582212204f0d15482724e40904fa20464a1214b2773123cdad6b86ba721808f94d0407ef64736f6c634300081c0033",
  "linkReferences": {},
  "deployedLinkReferences": {},
  "immutableReferences": {},
  "inputSourceName": "project/contracts/EscrowFactory.sol",
  "buildInfoId": "solc-0_8_28-307770a7b3e4992871373bbe079b9f9db4d920e8"
}