{
  "_format": "hh3-artifact-1",
  "contractName": "PropertyRegistry",
  "sourceName": "contracts/PropertyRegistry.sol",
  "abi": [
    {
      "inputs": [
        {
          "internalType": "address",
          "name": "_hostSBT",
          "type": "address"
        },
        {
          "internalType": "address",
          "name": "_platform",
          "type": "address"
        }
      ],
      "stateMutability": "nonpayable",
      "type": "constructor"
    },
    {
      "inputs": [],
      "name": "InvalidAddress",
      "type": "error"
    },
    {
      "inputs": [],
      "name": "InvalidRating",
      "type": "error"
    },
    {
      "inputs": [],
      "name": "MustHaveHostSBT",
      "type": "error"
    },
    {
      "inputs": [],
      "name": "NotAuthorized",
      "type": "error"
    },
    {
      "inputs": [],
      "name": "NotPlatform",
      "type": "error"
    },
    {
      "inputs": [],
      "name": "NotPropertyOwner",
      "type": "error"
    },
    {
      "inputs": [
        {
          "internalType": "address",
          "name": "owner",
          "type": "address"
        }
      ],
      "name": "OwnableInvalidOwner",
      "type": "error"
    },
    {
      "inputs": [
        {
          "internalType": "address",
          "name": "account",
          "type": "address"
        }
      ],
      "name": "OwnableUnauthorizedAccount",
      "type": "error"
    },
    {
      "anonymous": false,
      "inputs": [
        {
          "indexed": true,
          "internalType": "address",
          "name": "previousOwner",
          "type": "address"
        },
        {
          "indexed": true,
          "internalType": "address",
          "name": "newOwner",
          "type": "address"
        }
      ],
      "name": "OwnershipTransferred",
      "type": "event"
    },
    {
      "anonymous": false,
      "inputs": [
        {
          "indexed": true,
          "internalType": "uint256",
          "name": "propertyId",
          "type": "uint256"
        }
      ],
      "name": "PropertyActivated",
      "type": "event"
    },
    {
      "anonymous": false,
      "inputs": [
        {
          "indexed": true,
          "internalType": "uint256",
          "name": "propertyId",
          "type": "uint256"
        },
        {
          "indexed": true,
          "internalType": "address",
          "name": "host",
          "type": "address"
        },
        {
          "indexed": true,
          "internalType": "uint256",
          "name": "hostSbtTokenId",
          "type": "uint256"
        },
        {
          "indexed": false,
          "internalType": "string",
          "name": "ipfsHash",
          "type": "string"
        }
      ],
      "name": "PropertyCreated",
      "type": "event"
    },
    {
      "anonymous": false,
      "inputs": [
        {
          "indexed": true,
          "internalType": "uint256",
          "name": "propertyId",
          "type": "uint256"
        }
      ],
      "name": "PropertyDeactivated",
      "type": "event"
    },
    {
      "anonymous": false,
      "inputs": [
        {
          "indexed": true,
          "internalType": "uint256",
          "name": "propertyId",
          "type": "uint256"
        },
        {
          "indexed": true,
          "internalType": "address",
          "name": "oldOwner",
          "type": "address"
        },
        {
          "indexed": true,
          "internalType": "address",
          "name": "newOwner",
          "type": "address"
        }
      ],
      "name": "PropertyOwnershipTransferred",
      "type": "event"
    },
    {
      "anonymous": false,
      "inputs": [
        {
          "indexed": true,
          "internalType": "uint256",
          "name": "propertyId",
          "type": "uint256"
        },
        {
          "indexed": false,
          "internalType": "uint8",
          "name": "rating",
          "type": "uint8"
        },
        {
          "indexed": false,
          "internalType": "uint256",
          "name": "newAverageRating",
          "type": "uint256"
        }
      ],
      "name": "PropertyRated",
      "type": "event"
    },
    {
      "inputs": [],
      "name": "bookingManager",
      "outputs": [
        {
          "internalType": "address",
          "name": "",
          "type": "address"
        }
      ],
      "stateMutability": "view",
      "type": "function"
    },
    {
      "inputs": [
        {
          "internalType": "string",
          "name": "ipfsHash",
          "type": "string"
        },
        {
          "internalType": "string",
          "name": "propertyType",
          "type": "string"
        },
        {
          "internalType": "string",
          "name": "location",
          "type": "string"
        }
      ],
      "name": "createProperty",
      "outputs": [
        {
          "internalType": "uint256",
          "name": "propertyId",
          "type": "uint256"
        }
      ],
      "stateMutability": "nonpayable",
      "type": "function"
    },
    {
      "inputs": [
        {
          "internalType": "uint256",
          "name": "propertyId",
          "type": "uint256"
        }
      ],
      "name": "getProperty",
      "outputs": [
        {
          "components": [
            {
              "internalType": "uint256",
              "name": "propertyId",
              "type": "uint256"
            },
            {
              "internalType": "address",
              "name": "hostWallet",
              "type": "address"
            },
            {
              "internalType": "uint256",
              "name": "hostSbtTokenId",
              "type": "uint256"
            },
            {
              "internalType": "bool",
              "name": "isActive",
              "type": "bool"
            },
            {
              "internalType": "uint256",
              "name": "totalBookings",
              "type": "uint256"
            },
            {
              "internalType": "uint256",
              "name": "averageRating",
              "type": "uint256"
            },
            {
              "internalType": "uint256",
              "name": "totalReviewsReceived",
              "type": "uint256"
            },
            {
              "internalType": "uint256",
              "name": "createdAt",
              "type": "uint256"
            },
            {
              "internalType": "uint256",
              "name": "lastBookingTimestamp",
              "type": "uint256"
            },
            {
              "internalType": "string",
              "name": "propertyType",
              "type": "string"
            },
            {
              "internalType": "string",
              "name": "location",
              "type": "string"
            },
            {
              "internalType": "string",
              "name": "ipfsMetadataHash",
              "type": "string"
            }
          ],
          "internalType": "struct PropertyTypes.Property",
          "name": "",
          "type": "tuple"
        }
      ],
      "stateMutability": "view",
      "type": "function"
    },
    {
      "inputs": [],
      "name": "hostSBT",
      "outputs": [
        {
          "internalType": "contract IHostSBT",
          "name": "",
          "type": "address"
        }
      ],
      "stateMutability": "view",
      "type": "function"
    },
    {
      "inputs": [
        {
          "internalType": "uint256",
          "name": "propertyId",
          "type": "uint256"
        }
      ],
      "name": "incrementBookingCount",
      "outputs": [],
      "stateMutability": "nonpayable",
      "type": "function"
    },
    {
      "inputs": [
        {
          "internalType": "uint256",
          "name": "propertyId",
          "type": "uint256"
        },
        {
          "internalType": "address",
          "name": "account",
          "type": "address"
        }
      ],
      "name": "isPropertyOwner",
      "outputs": [
        {
          "internalType": "bool",
          "name": "",
          "type": "bool"
        }
      ],
      "stateMutability": "view",
      "type": "function"
    },
    {
      "inputs": [],
      "name": "owner",
      "outputs": [
        {
          "internalType": "address",
          "name": "",
          "type": "address"
        }
      ],
      "stateMutability": "view",
      "type": "function"
    },
    {
      "inputs": [],
      "name": "platform",
      "outputs": [
        {
          "internalType": "address",
          "name": "",
          "type": "address"
        }
      ],
      "stateMutability": "view",
      "type": "function"
    },
    {
      "inputs": [
        {
          "internalType": "uint256",
          "name": "",
          "type": "uint256"
        }
      ],
      "name": "properties",
      "outputs": [
        {
          "internalType": "uint256",
          "name": "propertyId",
          "type": "uint256"
        },
        {
          "internalType": "address",
          "name": "hostWallet",
          "type": "address"
        },
        {
          "internalType": "uint256",
          "name": "hostSbtTokenId",
          "type": "uint256"
        },
        {
          "internalType": "bool",
          "name": "isActive",
          "type": "bool"
        },
        {
          "internalType": "uint256",
          "name": "totalBookings",
          "type": "uint256"
        },
        {
          "internalType": "uint256",
          "name": "averageRating",
          "type": "uint256"
        },
        {
          "internalType": "uint256",
          "name": "totalReviewsReceived",
          "type": "uint256"
        },
        {
          "internalType": "uint256",
          "name": "createdAt",
          "type": "uint256"
        },
        {
          "internalType": "uint256",
          "name": "lastBookingTimestamp",
          "type": "uint256"
        },
        {
          "internalType": "string",
          "name": "propertyType",
          "type": "string"
        },
        {
          "internalType": "string",
          "name": "location",
          "type": "string"
        },
        {
          "internalType": "string",
          "name": "ipfsMetadataHash",
          "type": "string"
        }
      ],
      "stateMutability": "view",
      "type": "function"
    },
    {
      "inputs": [
        {
          "internalType": "uint256",
          "name": "",
          "type": "uint256"
        }
      ],
      "name": "propertyOwner",
      "outputs": [
        {
          "internalType": "address",
          "name": "",
          "type": "address"
        }
      ],
      "stateMutability": "view",
      "type": "function"
    },
    {
      "inputs": [],
      "name": "renounceOwnership",
      "outputs": [],
      "stateMutability": "nonpayable",
      "type": "function"
    },
    {
      "inputs": [],
      "name": "reviewRegistry",
      "outputs": [
        {
          "internalType": "address",
          "name": "",
          "type": "address"
        }
      ],
      "stateMutability": "view",
      "type": "function"
    },
    {
      "inputs": [],
      "name": "roomTypeNFT",
      "outputs": [
        {
          "internalType": "address",
          "name": "",
          "type": "address"
        }
      ],
      "stateMutability": "view",
      "type": "function"
    },
    {
      "inputs": [
        {
          "internalType": "address",
          "name": "_bookingManager",
          "type": "address"
        }
      ],
      "name": "setBookingManager",
      "outputs": [],
      "stateMutability": "nonpayable",
      "type": "function"
    },
    {
      "inputs": [
        {
          "internalType": "address",
          "name": "_platform",
          "type": "address"
        }
      ],
      "name": "setPlatform",
      "outputs": [],
      "stateMutability": "nonpayable",
      "type": "function"
    },
    {
      "inputs": [
        {
          "internalType": "uint256",
          "name": "propertyId",
          "type": "uint256"
        },
        {
          "internalType": "bool",
          "name": "active",
          "type": "bool"
        }
      ],
      "name": "setPropertyActive",
      "outputs": [],
      "stateMutability": "nonpayable",
      "type": "function"
    },
    {
      "inputs": [
        {
          "internalType": "address",
          "name": "_reviewRegistry",
          "type": "address"
        }
      ],
      "name": "setReviewRegistry",
      "outputs": [],
      "stateMutability": "nonpayable",
      "type": "function"
    },
    {
      "inputs": [
        {
          "internalType": "address",
          "name": "_roomTypeNFT",
          "type": "address"
        }
      ],
      "name": "setRoomTypeNFT",
      "outputs": [],
      "stateMutability": "nonpayable",
      "type": "function"
    },
    {
      "inputs": [],
      "name": "totalProperties",
      "outputs": [
        {
          "internalType": "uint256",
          "name": "",
          "type": "uint256"
        }
      ],
      "stateMutability": "view",
      "type": "function"
    },
    {
      "inputs": [
        {
          "internalType": "address",
          "name": "newOwner",
          "type": "address"
        }
      ],
      "name": "transferOwnership",
      "outputs": [],
      "stateMutability": "nonpayable",
      "type": "function"
    },
    {
      "inputs": [
        {
          "internalType": "uint256",
          "name": "propertyId",
          "type": "uint256"
        },
        {
          "internalType": "address",
          "name": "newOwner",
          "type": "address"
        }
      ],
      "name": "transferPropertyOwnership",
      "outputs": [],
      "stateMutability": "nonpayable",
      "type": "function"
    },
    {
      "inputs": [
        {
          "internalType": "uint256",
          "name": "propertyId",
          "type": "uint256"
        },
        {
          "internalType": "uint8",
          "name": "rating",
          "type": "uint8"
        }
      ],
      "name": "updatePropertyRating",
      "outputs": [],
      "stateMutability": "nonpayable",
      "type": "function"
    }
  ],
  "bytecode": "0x6080346100f357601f61163e38819003918201601f19168301916001600160401b038311848410176100f75780849260409485528339810103126100f357610052602061004b8361010b565b920161010b565b33156100e0575f8054336001600160a01b0319821681178355604051949290916001600160a01b0316907f8be0079c531659141344cd1fd0a4f28419497f9722a3daafe3b4186f6b6457e09080a36001600355600480546001600160a01b039283166001600160a01b0319918216179091556005805493909216921691909117905561151e90816101208239f35b631e4fbdf760e01b5f525f60045260245ffd5b5f80fd5b634e487b7160e01b5f52604160045260245ffd5b51906001600160a01b03821682036100f35756fe60806040526004361015610011575f80fd5b5f5f3560e01c8062d913e01461121f5780630b3bce20146111f65780630e0e3323146110935780631d4f71b81461106d578063252facb71461104757806332665ffb14610e6b578063427a6c0f14610e265780634bde38c814610e005780636945c5ea14610dbb578063715018a614610d64578063794005d414610d1f5780638558148614610ccb57806385baced214610c71578063885816be14610c4b5780638da5cb5b14610c26578063aeb0e2fa146105e5578063b98dbbbc14610328578063d1fedbc2146102f5578063de4c3c3a146102af578063f2fde38b14610229578063f7b10808146101345763fbd5e1561461010b575f80fd5b3461013157806003193601126101315760206001600160a01b0360085416604051908152f35b80fd5b5034610131576020366003190112610131576004358152600160205260409020805460018201546001600160a01b031691600281015490600381015460ff166004820154600583015460068401546007850154916008860154936009870161019b906113fc565b956101a8600a89016113fc565b97600b016101b5906113fc565b986040519b8c9b8c5260208c015260408b0152151560608a0152608089015260a088015260c087015260e0860152610100850152610120840161018090526101808401610201916112df565b838103610140850152610213916112df565b828103610160840152610225916112df565b0390f35b5034610131576020366003190112610131576001600160a01b0361024b611303565b6102536114c2565b16801561029b5781546001600160a01b03198116821783556001600160a01b03167f8be0079c531659141344cd1fd0a4f28419497f9722a3daafe3b4186f6b6457e08380a380f35b631e4fbdf760e01b82526004829052602482fd5b5034610131576040366003190112610131576020906001600160a01b0360406102d6611319565b926004358152600285522054166001600160a01b036040519216148152f35b5034610131576020366003190112610131576001600160a01b036040602092600435815260028452205416604051908152f35b503461013157604036600319011261013157600435610345611319565b6001600160a01b036005541633036105d6576001600160a01b0360045416916040516315aa711560e21b81526020816024816001600160a01b038716978860048301525afa9081156105cb57859161059c575b501561058d578084526002602052836001600160a01b03604082205416928282526001602052602460408320848452600260205260408420876001600160a01b031982541617905560018101876001600160a01b031982541617905560206001600160a01b036004541660405193848092639c2806c760e01b82528b60048301525afa918215610582578492610546575b50600201556001600160a01b0360045416803b1561051e576040516326b757ab60e21b81526001600160a01b0386166004820152602481018590529083908290604490829084905af190811561053b578391610522575b50506001600160a01b0360045416803b1561051e57604051631f04eef760e11b81526001600160a01b039290921660048301526024820184905282908290604490829084905af18015610513576104fa575b50807fa5c64c8204a6a698b47e944c0c3e6d9699f44cf150c89378d697fbf682d5b6e491a480f35b816105049161134c565b61050f57835f6104d2565b8380fd5b6040513d84823e3d90fd5b8280fd5b8161052c9161134c565b61053757815f610480565b5080fd5b6040513d85823e3d90fd5b935090506020833d60201161057a575b816105636020938361134c565b8101031261057657915186926002610429565b5f80fd5b3d9150610556565b6040513d86823e3d90fd5b63015c5e7760e01b8452600484fd5b6105be915060203d6020116105c4575b6105b6818361134c565b8101906114aa565b5f610398565b503d6105ac565b6040513d87823e3d90fd5b63016bdfed60e71b8352600483fd5b346105765760603660031901126105765760043567ffffffffffffffff81116105765761061690369060040161136e565b60243567ffffffffffffffff81116105765761063690369060040161136e565b60443567ffffffffffffffff81116105765761065690369060040161136e565b906001600160a01b03600454166040516315aa711560e21b8152336004820152602081602481855afa90811561096f575f91610c07575b5015610bf857602060249160405192838092639c2806c760e01b82523360048301525afa91821561096f5784915f93610bc1575b50600354936106cf8561149c565b600355604051916106df8361132f565b85835282866020820133815260408301888152606084016001815261079160808601915f835260a08701935f85526001600160a01b0360c08901965f885260e08a0198428a526101606101008c019b5f8d5261012081019d8e5261014081019e8f52019e8f525f52600160205260405f209c518d5551166001600160a01b0360018d0191166001600160a01b03198254161790555160028b015551151560038a019060ff801983541691151516179055565b516004880155516005870155516006860155516007850155516008840155518051600984019167ffffffffffffffff8211610a385781906107d284546113c4565b601f8111610b71575b50602090601f8311600114610b0e575f92610b03575b50508160011b915f199060031b1c19161790555b518051600a83019167ffffffffffffffff8211610a385761082683546113c4565b601f8111610abe575b50602090601f8311600114610a5757600b949392915f9183610a4c575b50508160011b915f199060031b1c19161790555b01905180519067ffffffffffffffff8211610a3857819061088184546113c4565b601f81116109e8575b50602090601f8311600114610985575f9261097a575b50508160011b915f199060031b1c19161790555b5f82815260026020526040902080546001600160a01b031916331790556004546001600160a01b031692833b1561057657604051631f04eef760e11b815233600482015260248101849052935f908590604490829084905af193841561096f5760209461095f575b50827f7e266b5ab9ee4f65e7b605b0f776473424c32492b210d3ea4cbf98855608923a604051868152806109543395898301906112df565b0390a4604051908152f35b5f6109699161134c565b5f61091c565b6040513d5f823e3d90fd5b0151905086806108a0565b5f8581528281209350601f198516905b8181106109d057509084600195949392106109b8575b505050811b0190556108b4565b01515f1960f88460031b161c191690558680806109ab565b92936020600181928786015181550195019301610995565b909150835f5260205f20601f840160051c81019160208510610a2e575b90601f859493920160051c01905b818110610a20575061088a565b5f8155849350600101610a13565b9091508190610a05565b634e487b7160e01b5f52604160045260245ffd5b01519050898061084c565b90601f19831691845f52815f20925f5b818110610aa65750916001939185600b9897969410610a8e575b505050811b019055610860565b01515f1960f88460031b161c19169055898080610a81565b92936020600181928786015181550195019301610a67565b835f5260205f20601f840160051c81019160208510610af9575b601f0160051c01905b818110610aee575061082f565b5f8155600101610ae1565b9091508190610ad8565b0151905089806107f1565b5f8581528281209350601f198516905b818110610b595750908460019594939210610b41575b505050811b019055610805565b01515f1960f88460031b161c19169055898080610b34565b92936020600181928786015181550195019301610b1e565b909150835f5260205f20601f840160051c81019160208510610bb7575b90601f859493920160051c01905b818110610ba957506107db565b5f8155849350600101610b9c565b9091508190610b8e565b915091506020813d602011610bf0575b81610bde6020938361134c565b810103126105765783905191856106c1565b3d9150610bd1565b63015c5e7760e01b5f5260045ffd5b610c20915060203d6020116105c4576105b6818361134c565b8561068d565b34610576575f3660031901126105765760206001600160a01b035f5416604051908152f35b34610576575f3660031901126105765760206001600160a01b0360075416604051908152f35b34610576576020366003190112610576576001600160a01b03600754163303610cbc576004355f52600160205260405f2060048101610cb0815461149c565b90556008429101555f80f35b63ea8e4eb560e01b5f5260045ffd5b34610576576020366003190112610576576001600160a01b03610cec611303565b610cf46114c2565b168015610d10576001600160a01b031960075416176007555f80f35b63e6c4247b60e01b5f5260045ffd5b34610576576020366003190112610576576001600160a01b03610d40611303565b610d486114c2565b168015610d10576001600160a01b031960085416176008555f80f35b34610576575f36600319011261057657610d7c6114c2565b5f80546001600160a01b0319811682556001600160a01b03167f8be0079c531659141344cd1fd0a4f28419497f9722a3daafe3b4186f6b6457e08280a3005b34610576576020366003190112610576576001600160a01b03610ddc611303565b610de46114c2565b168015610d10576001600160a01b031960055416176005555f80f35b34610576575f3660031901126105765760206001600160a01b0360055416604051908152f35b34610576576020366003190112610576576001600160a01b03610e47611303565b610e4f6114c2565b168015610d10576001600160a01b031960065416176006555f80f35b3461057657602036600319011261057657604051610e888161132f565b5f8152602081015f9052604081015f9052606081015f9052608081015f905260a081015f905260c081015f905260e081015f905261010081015f905261012081016060905261014081016060905261016001606090526004355f52600160205260405f20604051610ef88161132f565b8154815260018201546001600160a01b0316916020820192835260028101549060408301918252600381015460ff16606084019015158152600482015460808501908152600583015460a08601908152600684015460c0870190815260078501549160e08801928352600886015493610100890194855260098701610f7c906113fc565b6101208a0190815295610f91600a89016113fc565b976101408b01988952600b01610fa6906113fc565b986101608b01998a526040519b8c9b60208d525160208d0152516001600160a01b031660408c01525160608b015251151560808a01525160a08901525160c08801525160e0870152516101008601525161012085015251610140840161018090526101a08401611015916112df565b9051838203601f190161016085015261102e91906112df565b9051828203601f190161018084015261022591906112df565b34610576575f3660031901126105765760206001600160a01b0360065416604051908152f35b34610576575f3660031901126105765760206001600160a01b0360045416604051908152f35b346105765760403660031901126105765760043560243560ff8116809103610576576001600160a01b03600854163303610cbc576001811080156111ec575b6111dd57815f52600160205260405f206006810180546110f18161149c565b80925580155f1461115f57505060648202918083046064148115171561114b5760056040927fa0c73ef05a0d9061bed35e766d75b97f659005860c459f64283064805e4c0295949182915b015582519182526020820152a2005b634e487b7160e01b5f52601160045260245ffd5b600583949293015481810291818304149015171561114b57606482028281046064148315171561114b57810180911161114b5782156111c9577fa0c73ef05a0d9061bed35e766d75b97f659005860c459f64283064805e4c0295936040936005920491829161113c565b634e487b7160e01b5f52601260045260245ffd5b63d29df2dd60e01b5f5260045ffd5b50600581116110d2565b34610576575f366003190112610576576003545f19810190811161114b57602090604051908152f35b3461057657604036600319011261057657600435602435801515810361057657815f5260026020526001600160a01b0360405f20541633036112d057815f52600160205261127f81600360405f20019060ff801983541691151516179055565b156112aa577fe3836b49ece7d09ac8d5d523484863a237f6472e6b200998904461ce29505c4b5f80a2005b7f7bc5467b3abd536b298666c57448e8ec6a25e7929f01a0789e4ef525716f45e35f80a2005b639a517dab60e01b5f5260045ffd5b805180835260209291819084018484015e5f828201840152601f01601f1916010190565b600435906001600160a01b038216820361057657565b602435906001600160a01b038216820361057657565b610180810190811067ffffffffffffffff821117610a3857604052565b90601f8019910116810190811067ffffffffffffffff821117610a3857604052565b81601f820112156105765780359067ffffffffffffffff8211610a3857604051926113a3601f8401601f19166020018561134c565b8284526020838301011161057657815f926020809301838601378301015290565b90600182811c921680156113f2575b60208310146113de57565b634e487b7160e01b5f52602260045260245ffd5b91607f16916113d3565b9060405191825f82549261140f846113c4565b808452936001811690811561147a5750600114611436575b506114349250038361134c565b565b90505f9291925260205f20905f915b81831061145e575050906020611434928201015f611427565b6020919350806001915483858901015201910190918492611445565b90506020925061143494915060ff191682840152151560051b8201015f611427565b5f19811461114b5760010190565b90816020910312610576575180151581036105765790565b6001600160a01b035f541633036114d557565b63118cdaa760e01b5f523360045260245ffdfea2646970667358221220a9d117ecda4b43bbf572c12b2166a3995c9b90c205e4f26e5699310da6e037fd64736f6c634300081c0033",
  "linkReferences": {},
  "deployedLinkReferences": {},
  "immutableReferences": {},
  "inputSourceName": "project/contracts/PropertyRegistry.sol",
  "buildInfoId": "solc-0_8_28-4fcdb18056ccd947948e3acd56ca989af23af925"
}