{
  "_format": "hh3-artifact-1",
  "contractName": "PropertyRegistry",
  "sourceName": "contracts/PropertyRegistry.sol",
  "abi": [
    {
      "inputs": [
        {
          "internalType": "address",
          "name": "_hostSBT",
          "type": "address"
        },
        {
          "internalType": "address",
          "name": "_platform",
          "type": "address"
        }
      ],
      "stateMutability": "nonpayable",
      "type": "constructor"
    },
    {
      "inputs": [],
      "name": "InvalidAddress",
      "type": "error"
    },
    {
      "inputs": [],
      "name": "InvalidRating",
      "type": "error"
    },
    {
      "inputs": [],
      "name": "MustHaveHostSBT",
      "type": "error"
    },
    {
      "inputs": [],
      "name": "NotAuthorized",
      "type": "error"
    },
    {
      "inputs": [],
      "name": "NotPlatform",
      "type": "error"
    },
    {
      "inputs": [],
      "name": "NotPropertyOwner",
      "type": "error"
    },
    {
      "inputs": [
        {
          "internalType": "address",
          "name": "owner",
          "type": "address"
        }
      ],
      "name": "OwnableInvalidOwner",
      "type": "error"
    },
    {
      "inputs": [
        {
          "internalType": "address",
          "name": "account",
          "type": "address"
        }
      ],
      "name": "OwnableUnauthorizedAccount",
      "type": "error"
    },
    {
      "anonymous": false,
      "inputs": [
        {
          "indexed": true,
          "internalType": "address",
          "name": "previousOwner",
          "type": "address"
        },
        {
          "indexed": true,
          "internalType": "address",
          "name": "newOwner",
          "type": "address"
        }
      ],
      "name": "OwnershipTransferred",
      "type": "event"
    },
    {
      "anonymous": false,
      "inputs": [
        {
          "indexed": true,
          "internalType": "uint256",
          "name": "propertyId",
          "type": "uint256"
        }
      ],
      "name": "PropertyActivated",
      "type": "event"
    },
    {
      "anonymous": false,
      "inputs": [
        {
          "indexed": true,
          "internalType": "uint256",
          "name": "propertyId",
          "type": "uint256"
        },
        {
          "indexed": true,
          "internalType": "address",
          "name": "host",
          "type": "address"
        },
        {
          "indexed": true,
          "internalType": "uint256",
          "name": "hostSbtTokenId",
          "type": "uint256"
        },
        {
          "indexed": false,
          "internalType": "string",
          "name": "ipfsHash",
          "type": "string"
        }
      ],
      "name": "PropertyCreated",
      "type": "event"
    },
    {
      "anonymous": false,
      "inputs": [
        {
          "indexed": true,
          "internalType": "uint256",
          "name": "propertyId",
          "type": "uint256"
        }
      ],
      "name": "PropertyDeactivated",
      "type": "event"
    },
    {
      "anonymous": false,
      "inputs": [
        {
          "indexed": true,
          "internalType": "uint256",
          "name": "propertyId",
          "type": "uint256"
        },
        {
          "indexed": false,
          "internalType": "string",
          "name": "oldIpfsHash",
          "type": "string"
        },
        {
          "indexed": false,
          "internalType": "string",
          "name": "newIpfsHash",
          "type": "string"
        }
      ],
      "name": "PropertyMetadataUpdated",
      "type": "event"
    },
    {
      "anonymous": false,
      "inputs": [
        {
          "indexed": true,
          "internalType": "uint256",
          "name": "propertyId",
          "type": "uint256"
        },
        {
          "indexed": true,
          "internalType": "address",
          "name": "oldOwner",
          "type": "address"
        },
        {
          "indexed": true,
          "internalType": "address",
          "name": "newOwner",
          "type": "address"
        }
      ],
      "name": "PropertyOwnershipTransferred",
      "type": "event"
    },
    {
      "anonymous": false,
      "inputs": [
        {
          "indexed": true,
          "internalType": "uint256",
          "name": "propertyId",
          "type": "uint256"
        },
        {
          "indexed": false,
          "internalType": "uint8",
          "name": "rating",
          "type": "uint8"
        },
        {
          "indexed": false,
          "internalType": "uint256",
          "name": "newAverageRating",
          "type": "uint256"
        }
      ],
      "name": "PropertyRated",
      "type": "event"
    },
    {
      "inputs": [],
      "name": "bookingManager",
      "outputs": [
        {
          "internalType": "address",
          "name": "",
          "type": "address"
        }
      ],
      "stateMutability": "view",
      "type": "function"
    },
    {
      "inputs": [
        {
          "internalType": "string",
          "name": "ipfsHash",
          "type": "string"
        },
        {
          "internalType": "string",
          "name": "propertyType",
          "type": "string"
        },
        {
          "internalType": "string",
          "name": "location",
          "type": "string"
        }
      ],
      "name": "createProperty",
      "outputs": [
        {
          "internalType": "uint256",
          "name": "propertyId",
          "type": "uint256"
        }
      ],
      "stateMutability": "nonpayable",
      "type": "function"
    },
    {
      "inputs": [
        {
          "internalType": "uint256",
          "name": "propertyId",
          "type": "uint256"
        }
      ],
      "name": "getProperty",
      "outputs": [
        {
          "components": [
            {
              "internalType": "uint256",
              "name": "propertyId",
              "type": "uint256"
            },
            {
              "internalType": "address",
              "name": "hostWallet",
              "type": "address"
            },
            {
              "internalType": "uint256",
              "name": "hostSbtTokenId",
              "type": "uint256"
            },
            {
              "internalType": "bool",
              "name": "isActive",
              "type": "bool"
            },
            {
              "internalType": "uint256",
              "name": "totalBookings",
              "type": "uint256"
            },
            {
              "internalType": "uint256",
              "name": "averageRating",
              "type": "uint256"
            },
            {
              "internalType": "uint256",
              "name": "totalReviewsReceived",
              "type": "uint256"
            },
            {
              "internalType": "uint256",
              "name": "createdAt",
              "type": "uint256"
            },
            {
              "internalType": "uint256",
              "name": "lastBookingTimestamp",
              "type": "uint256"
            },
            {
              "internalType": "string",
              "name": "propertyType",
              "type": "string"
            },
            {
              "internalType": "string",
              "name": "location",
              "type": "string"
            },
            {
              "internalType": "string",
              "name": "ipfsMetadataHash",
              "type": "string"
            }
          ],
          "internalType": "struct PropertyTypes.Property",
          "name": "",
          "type": "tuple"
        }
      ],
      "stateMutability": "view",
      "type": "function"
    },
    {
      "inputs": [],
      "name": "hostSBT",
      "outputs": [
        {
          "internalType": "contract IHostSBT",
          "name": "",
          "type": "address"
        }
      ],
      "stateMutability": "view",
      "type": "function"
    },
    {
      "inputs": [
        {
          "internalType": "uint256",
          "name": "propertyId",
          "type": "uint256"
        }
      ],
      "name": "incrementBookingCount",
      "outputs": [],
      "stateMutability": "nonpayable",
      "type": "function"
    },
    {
      "inputs": [
        {
          "internalType": "uint256",
          "name": "propertyId",
          "type": "uint256"
        },
        {
          "internalType": "address",
          "name": "account",
          "type": "address"
        }
      ],
      "name": "isPropertyOwner",
      "outputs": [
        {
          "internalType": "bool",
          "name": "",
          "type": "bool"
        }
      ],
      "stateMutability": "view",
      "type": "function"
    },
    {
      "inputs": [],
      "name": "owner",
      "outputs": [
        {
          "internalType": "address",
          "name": "",
          "type": "address"
        }
      ],
      "stateMutability": "view",
      "type": "function"
    },
    {
      "inputs": [],
      "name": "platform",
      "outputs": [
        {
          "internalType": "address",
          "name": "",
          "type": "address"
        }
      ],
      "stateMutability": "view",
      "type": "function"
    },
    {
      "inputs": [
        {
          "internalType": "uint256",
          "name": "",
          "type": "uint256"
        }
      ],
      "name": "properties",
      "outputs": [
        {
          "internalType": "uint256",
          "name": "propertyId",
          "type": "uint256"
        },
        {
          "internalType": "address",
          "name": "hostWallet",
          "type": "address"
        },
        {
          "internalType": "uint256",
          "name": "hostSbtTokenId",
          "type": "uint256"
        },
        {
          "internalType": "bool",
          "name": "isActive",
          "type": "bool"
        },
        {
          "internalType": "uint256",
          "name": "totalBookings",
          "type": "uint256"
        },
        {
          "internalType": "uint256",
          "name": "averageRating",
          "type": "uint256"
        },
        {
          "internalType": "uint256",
          "name": "totalReviewsReceived",
          "type": "uint256"
        },
        {
          "internalType": "uint256",
          "name": "createdAt",
          "type": "uint256"
        },
        {
          "internalType": "uint256",
          "name": "lastBookingTimestamp",
          "type": "uint256"
        },
        {
          "internalType": "string",
          "name": "propertyType",
          "type": "string"
        },
        {
          "internalType": "string",
          "name": "location",
          "type": "string"
        },
        {
          "internalType": "string",
          "name": "ipfsMetadataHash",
          "type": "string"
        }
      ],
      "stateMutability": "view",
      "type": "function"
    },
    {
      "inputs": [
        {
          "internalType": "uint256",
          "name": "",
          "type": "uint256"
        }
      ],
      "name": "propertyOwner",
      "outputs": [
        {
          "internalType": "address",
          "name": "",
          "type": "address"
        }
      ],
      "stateMutability": "view",
      "type": "function"
    },
    {
      "inputs": [],
      "name": "renounceOwnership",
      "outputs": [],
      "stateMutability": "nonpayable",
      "type": "function"
    },
    {
      "inputs": [],
      "name": "reviewRegistry",
      "outputs": [
        {
          "internalType": "address",
          "name": "",
          "type": "address"
        }
      ],
      "stateMutability": "view",
      "type": "function"
    },
    {
      "inputs": [],
      "name": "roomTypeNFT",
      "outputs": [
        {
          "internalType": "address",
          "name": "",
          "type": "address"
        }
      ],
      "stateMutability": "view",
      "type": "function"
    },
    {
      "inputs": [
        {
          "internalType": "address",
          "name": "_bookingManager",
          "type": "address"
        }
      ],
      "name": "setBookingManager",
      "outputs": [],
      "stateMutability": "nonpayable",
      "type": "function"
    },
    {
      "inputs": [
        {
          "internalType": "address",
          "name": "_platform",
          "type": "address"
        }
      ],
      "name": "setPlatform",
      "outputs": [],
      "stateMutability": "nonpayable",
      "type": "function"
    },
    {
      "inputs": [
        {
          "internalType": "uint256",
          "name": "propertyId",
          "type": "uint256"
        },
        {
          "internalType": "bool",
          "name": "active",
          "type": "bool"
        }
      ],
      "name": "setPropertyActive",
      "outputs": [],
      "stateMutability": "nonpayable",
      "type": "function"
    },
    {
      "inputs": [
        {
          "internalType": "address",
          "name": "_reviewRegistry",
          "type": "address"
        }
      ],
      "name": "setReviewRegistry",
      "outputs": [],
      "stateMutability": "nonpayable",
      "type": "function"
    },
    {
      "inputs": [
        {
          "internalType": "address",
          "name": "_roomTypeNFT",
          "type": "address"
        }
      ],
      "name": "setRoomTypeNFT",
      "outputs": [],
      "stateMutability": "nonpayable",
      "type": "function"
    },
    {
      "inputs": [],
      "name": "totalProperties",
      "outputs": [
        {
          "internalType": "uint256",
          "name": "",
          "type": "uint256"
        }
      ],
      "stateMutability": "view",
      "type": "function"
    },
    {
      "inputs": [
        {
          "internalType": "address",
          "name": "newOwner",
          "type": "address"
        }
      ],
      "name": "transferOwnership",
      "outputs": [],
      "stateMutability": "nonpayable",
      "type": "function"
    },
    {
      "inputs": [
        {
          "internalType": "uint256",
          "name": "propertyId",
          "type": "uint256"
        },
        {
          "internalType": "address",
          "name": "newOwner",
          "type": "address"
        }
      ],
      "name": "transferPropertyOwnership",
      "outputs": [],
      "stateMutability": "nonpayable",
      "type": "function"
    },
    {
      "inputs": [
        {
          "internalType": "uint256",
          "name": "propertyId",
          "type": "uint256"
        },
        {
          "internalType": "string",
          "name": "newIpfsHash",
          "type": "string"
        }
      ],
      "name": "updatePropertyMetadata",
      "outputs": [],
      "stateMutability": "nonpayable",
      "type": "function"
    },
    {
      "inputs": [
        {
          "internalType": "uint256",
          "name": "propertyId",
          "type": "uint256"
        },
        {
          "internalType": "uint8",
          "name": "rating",
          "type": "uint8"
        }
      ],
      "name": "updatePropertyRating",
      "outputs": [],
      "stateMutability": "nonpayable",
      "type": "function"
    }
  ],
  "bytecode": "0x6080346100f357601f61183a38819003918201601f19168301916001600160401b038311848410176100f75780849260409485528339810103126100f357610052602061004b8361010b565b920161010b565b33156100e0575f8054336001600160a01b0319821681178355604051949290916001600160a01b0316907f8be0079c531659141344cd1fd0a4f28419497f9722a3daafe3b4186f6b6457e09080a36001600355600480546001600160a01b039283166001600160a01b0319918216179091556005805493909216921691909117905561171a90816101208239f35b631e4fbdf760e01b5f525f60045260245ffd5b5f80fd5b634e487b7160e01b5f52604160045260245ffd5b51906001600160a01b03821682036100f35756fe60806040526004361015610011575f80fd5b5f5f3560e01c8062d913e01461142a5780630b3bce20146114015780630e0e33231461129e5780631d4f71b8146112785780631f2fbb0214611078578063252facb71461105257806332665ffb14610e76578063427a6c0f14610e315780634bde38c814610e0b5780636945c5ea14610dc6578063715018a614610d6f578063794005d414610d2a5780638558148614610cd657806385baced214610c7c578063885816be14610c565780638da5cb5b14610c31578063aeb0e2fa146105f0578063b98dbbbc14610333578063d1fedbc214610300578063de4c3c3a146102ba578063f2fde38b14610234578063f7b108081461013f5763fbd5e15614610116575f80fd5b3461013c578060031936011261013c5760206001600160a01b0360085416604051908152f35b80fd5b503461013c57602036600319011261013c576004358152600160205260409020805460018201546001600160a01b031691600281015490600381015460ff16600482015460058301546006840154600785015491600886015493600987016101a6906115f8565b956101b3600a89016115f8565b97600b016101c0906115f8565b986040519b8c9b8c5260208c015260408b0152151560608a0152608089015260a088015260c087015260e086015261010085015261012084016101809052610180840161020c91611570565b83810361014085015261021e91611570565b82810361016084015261023091611570565b0390f35b503461013c57602036600319011261013c576001600160a01b03610256611594565b61025e6116be565b1680156102a65781546001600160a01b03198116821783556001600160a01b03167f8be0079c531659141344cd1fd0a4f28419497f9722a3daafe3b4186f6b6457e08380a380f35b631e4fbdf760e01b82526004829052602482fd5b503461013c57604036600319011261013c576020906001600160a01b0360406102e16115aa565b926004358152600285522054166001600160a01b036040519216148152f35b503461013c57602036600319011261013c576001600160a01b036040602092600435815260028452205416604051908152f35b503461013c57604036600319011261013c576004356103506115aa565b6001600160a01b036005541633036105e1576001600160a01b0360045416916040516315aa711560e21b81526020816024816001600160a01b038716978860048301525afa9081156105d65785916105a7575b5015610598578084526002602052836001600160a01b03604082205416928282526001602052602460408320848452600260205260408420876001600160a01b031982541617905560018101876001600160a01b031982541617905560206001600160a01b036004541660405193848092639c2806c760e01b82528b60048301525afa91821561058d578492610551575b50600201556001600160a01b0360045416803b15610529576040516326b757ab60e21b81526001600160a01b0386166004820152602481018590529083908290604490829084905af190811561054657839161052d575b50506001600160a01b0360045416803b1561052957604051631f04eef760e11b81526001600160a01b039290921660048301526024820184905282908290604490829084905af1801561051e57610505575b50807fa5c64c8204a6a698b47e944c0c3e6d9699f44cf150c89378d697fbf682d5b6e491a480f35b8161050f916114f8565b61051a57835f6104dd565b8380fd5b6040513d84823e3d90fd5b8280fd5b81610537916114f8565b61054257815f61048b565b5080fd5b6040513d85823e3d90fd5b935090506020833d602011610585575b8161056e602093836114f8565b8101031261058157915186926002610434565b5f80fd5b3d9150610561565b6040513d86823e3d90fd5b63015c5e7760e01b8452600484fd5b6105c9915060203d6020116105cf575b6105c181836114f8565b8101906116a6565b5f6103a3565b503d6105b7565b6040513d87823e3d90fd5b63016bdfed60e71b8352600483fd5b346105815760603660031901126105815760043567ffffffffffffffff81116105815761062190369060040161151a565b60243567ffffffffffffffff81116105815761064190369060040161151a565b60443567ffffffffffffffff81116105815761066190369060040161151a565b906001600160a01b03600454166040516315aa711560e21b8152336004820152602081602481855afa90811561097a575f91610c12575b5015610c0357602060249160405192838092639c2806c760e01b82523360048301525afa91821561097a5784915f93610bcc575b50600354936106da85611698565b600355604051916106ea836114db565b85835282866020820133815260408301888152606084016001815261079c60808601915f835260a08701935f85526001600160a01b0360c08901965f885260e08a0198428a526101606101008c019b5f8d5261012081019d8e5261014081019e8f52019e8f525f52600160205260405f209c518d5551166001600160a01b0360018d0191166001600160a01b03198254161790555160028b015551151560038a019060ff801983541691151516179055565b516004880155516005870155516006860155516007850155516008840155518051600984019167ffffffffffffffff8211610a435781906107dd84546115c0565b601f8111610b7c575b50602090601f8311600114610b19575f92610b0e575b50508160011b915f199060031b1c19161790555b518051600a83019167ffffffffffffffff8211610a435761083183546115c0565b601f8111610ac9575b50602090601f8311600114610a6257600b949392915f9183610a57575b50508160011b915f199060031b1c19161790555b01905180519067ffffffffffffffff8211610a4357819061088c84546115c0565b601f81116109f3575b50602090601f8311600114610990575f92610985575b50508160011b915f199060031b1c19161790555b5f82815260026020526040902080546001600160a01b031916331790556004546001600160a01b031692833b1561058157604051631f04eef760e11b815233600482015260248101849052935f908590604490829084905af193841561097a5760209461096a575b50827f7e266b5ab9ee4f65e7b605b0f776473424c32492b210d3ea4cbf98855608923a6040518681528061095f339589830190611570565b0390a4604051908152f35b5f610974916114f8565b5f610927565b6040513d5f823e3d90fd5b0151905086806108ab565b5f8581528281209350601f198516905b8181106109db57509084600195949392106109c3575b505050811b0190556108bf565b01515f1960f88460031b161c191690558680806109b6565b929360206001819287860151815501950193016109a0565b909150835f5260205f20601f840160051c81019160208510610a39575b90601f859493920160051c01905b818110610a2b5750610895565b5f8155849350600101610a1e565b9091508190610a10565b634e487b7160e01b5f52604160045260245ffd5b015190508980610857565b90601f19831691845f52815f20925f5b818110610ab15750916001939185600b9897969410610a99575b505050811b01905561086b565b01515f1960f88460031b161c19169055898080610a8c565b92936020600181928786015181550195019301610a72565b835f5260205f20601f840160051c81019160208510610b04575b601f0160051c01905b818110610af9575061083a565b5f8155600101610aec565b9091508190610ae3565b0151905089806107fc565b5f8581528281209350601f198516905b818110610b645750908460019594939210610b4c575b505050811b019055610810565b01515f1960f88460031b161c19169055898080610b3f565b92936020600181928786015181550195019301610b29565b909150835f5260205f20601f840160051c81019160208510610bc2575b90601f859493920160051c01905b818110610bb457506107e6565b5f8155849350600101610ba7565b9091508190610b99565b915091506020813d602011610bfb575b81610be9602093836114f8565b810103126105815783905191856106cc565b3d9150610bdc565b63015c5e7760e01b5f5260045ffd5b610c2b915060203d6020116105cf576105c181836114f8565b85610698565b34610581575f3660031901126105815760206001600160a01b035f5416604051908152f35b34610581575f3660031901126105815760206001600160a01b0360075416604051908152f35b34610581576020366003190112610581576001600160a01b03600754163303610cc7576004355f52600160205260405f2060048101610cbb8154611698565b90556008429101555f80f35b63ea8e4eb560e01b5f5260045ffd5b34610581576020366003190112610581576001600160a01b03610cf7611594565b610cff6116be565b168015610d1b576001600160a01b031960075416176007555f80f35b63e6c4247b60e01b5f5260045ffd5b34610581576020366003190112610581576001600160a01b03610d4b611594565b610d536116be565b168015610d1b576001600160a01b031960085416176008555f80f35b34610581575f36600319011261058157610d876116be565b5f80546001600160a01b0319811682556001600160a01b03167f8be0079c531659141344cd1fd0a4f28419497f9722a3daafe3b4186f6b6457e08280a3005b34610581576020366003190112610581576001600160a01b03610de7611594565b610def6116be565b168015610d1b576001600160a01b031960055416176005555f80f35b34610581575f3660031901126105815760206001600160a01b0360055416604051908152f35b34610581576020366003190112610581576001600160a01b03610e52611594565b610e5a6116be565b168015610d1b576001600160a01b031960065416176006555f80f35b3461058157602036600319011261058157604051610e93816114db565b5f8152602081015f9052604081015f9052606081015f9052608081015f905260a081015f905260c081015f905260e081015f905261010081015f905261012081016060905261014081016060905261016001606090526004355f52600160205260405f20604051610f03816114db565b8154815260018201546001600160a01b0316916020820192835260028101549060408301918252600381015460ff16606084019015158152600482015460808501908152600583015460a08601908152600684015460c0870190815260078501549160e08801928352600886015493610100890194855260098701610f87906115f8565b6101208a0190815295610f9c600a89016115f8565b976101408b01988952600b01610fb1906115f8565b986101608b01998a526040519b8c9b60208d525160208d0152516001600160a01b031660408c01525160608b015251151560808a01525160a08901525160c08801525160e0870152516101008601525161012085015251610140840161018090526101a0840161102091611570565b9051838203601f19016101608501526110399190611570565b9051828203601f19016101808401526102309190611570565b34610581575f3660031901126105815760206001600160a01b0360065416604051908152f35b346105815760403660031901126105815760043560243567ffffffffffffffff8111610581576110ac90369060040161151a565b815f5260026020526001600160a01b0360405f205416330361126957815f5260016020526110df600b60405f20016115f8565b90825f526001602052600b60405f2001815167ffffffffffffffff8111610a435761110a82546115c0565b601f8111611224575b506020601f821160011461119a57927f7e22251ef199416ecf2435cfec5aec6a25a6e6d29b9b97ddcc1327f118ea943a94928261118a9361117c965f9161118f575b508160011b915f199060031b1c19161790555b604051938493604085526040850190611570565b908382036020850152611570565b0390a2005b905083015189611155565b601f19821690835f52805f20915f5b81811061120c57508361117c96937f7e22251ef199416ecf2435cfec5aec6a25a6e6d29b9b97ddcc1327f118ea943a98969361118a96600194106111f4575b5050811b019055611168565b8501515f1960f88460031b161c1916905589806111e8565b9192602060018192868a0151815501940192016111a9565b825f5260205f20601f830160051c8101916020841061125f575b601f0160051c01905b8181106112545750611113565b5f8155600101611247565b909150819061123e565b639a517dab60e01b5f5260045ffd5b34610581575f3660031901126105815760206001600160a01b0360045416604051908152f35b346105815760403660031901126105815760043560243560ff8116809103610581576001600160a01b03600854163303610cc7576001811080156113f7575b6113e857815f52600160205260405f206006810180546112fc81611698565b80925580155f1461136a5750506064820291808304606414811517156113565760056040927fa0c73ef05a0d9061bed35e766d75b97f659005860c459f64283064805e4c0295949182915b015582519182526020820152a2005b634e487b7160e01b5f52601160045260245ffd5b60058394929301548181029181830414901517156113565760648202828104606414831517156113565781018091116113565782156113d4577fa0c73ef05a0d9061bed35e766d75b97f659005860c459f64283064805e4c02959360409360059204918291611347565b634e487b7160e01b5f52601260045260245ffd5b63d29df2dd60e01b5f5260045ffd5b50600581116112dd565b34610581575f366003190112610581576003545f19810190811161135657602090604051908152f35b3461058157604036600319011261058157600435602435801515810361058157815f5260026020526001600160a01b0360405f205416330361126957815f52600160205261148a81600360405f20019060ff801983541691151516179055565b156114b5577fe3836b49ece7d09ac8d5d523484863a237f6472e6b200998904461ce29505c4b5f80a2005b7f7bc5467b3abd536b298666c57448e8ec6a25e7929f01a0789e4ef525716f45e35f80a2005b610180810190811067ffffffffffffffff821117610a4357604052565b90601f8019910116810190811067ffffffffffffffff821117610a4357604052565b81601f820112156105815780359067ffffffffffffffff8211610a43576040519261154f601f8401601f1916602001856114f8565b8284526020838301011161058157815f926020809301838601378301015290565b805180835260209291819084018484015e5f828201840152601f01601f1916010190565b600435906001600160a01b038216820361058157565b602435906001600160a01b038216820361058157565b90600182811c921680156115ee575b60208310146115da57565b634e487b7160e01b5f52602260045260245ffd5b91607f16916115cf565b9060405191825f82549261160b846115c0565b80845293600181169081156116765750600114611632575b50611630925003836114f8565b565b90505f9291925260205f20905f915b81831061165a575050906020611630928201015f611623565b6020919350806001915483858901015201910190918492611641565b90506020925061163094915060ff191682840152151560051b8201015f611623565b5f1981146113565760010190565b90816020910312610581575180151581036105815790565b6001600160a01b035f541633036116d157565b63118cdaa760e01b5f523360045260245ffdfea26469706673582212202b5bac2a17b596c56332c8ea19f761adfc06bea82762cf774e028241ff849bb464736f6c634300081c0033",
  "linkReferences": {},
  "deployedLinkReferences": {},
  "immutableReferences": {},
  "inputSourceName": "project/contracts/PropertyRegistry.sol",
  "buildInfoId": "solc-0_8_28-9b7fd3df5adfc939096bdbc3009f76b63cb6d6bd"
}