{
  "_format": "hh3-artifact-1",
  "contractName": "ReviewRegistry",
  "sourceName": "contracts/ReviewRegistry.sol",
  "abi": [
    {
      "inputs": [
        {
          "internalType": "address",
          "name": "_travelerSBT",
          "type": "address"
        },
        {
          "internalType": "address",
          "name": "_hostSBT",
          "type": "address"
        },
        {
          "internalType": "address",
          "name": "_propertyNFT",
          "type": "address"
        },
        {
          "internalType": "address",
          "name": "_propertyRegistry",
          "type": "address"
        }
      ],
      "stateMutability": "nonpayable",
      "type": "constructor"
    },
    {
      "inputs": [],
      "name": "AlreadyFlagged",
      "type": "error"
    },
    {
      "inputs": [],
      "name": "AlreadyVoted",
      "type": "error"
    },
    {
      "inputs": [],
      "name": "NotAuthorized",
      "type": "error"
    },
    {
      "inputs": [],
      "name": "NotFlagged",
      "type": "error"
    },
    {
      "inputs": [],
      "name": "NotModerator",
      "type": "error"
    },
    {
      "inputs": [
        {
          "internalType": "address",
          "name": "owner",
          "type": "address"
        }
      ],
      "name": "OwnableInvalidOwner",
      "type": "error"
    },
    {
      "inputs": [
        {
          "internalType": "address",
          "name": "account",
          "type": "address"
        }
      ],
      "name": "OwnableUnauthorizedAccount",
      "type": "error"
    },
    {
      "anonymous": false,
      "inputs": [
        {
          "indexed": true,
          "internalType": "address",
          "name": "moderator",
          "type": "address"
        },
        {
          "indexed": false,
          "internalType": "bool",
          "name": "status",
          "type": "bool"
        }
      ],
      "name": "ModeratorSet",
      "type": "event"
    },
    {
      "anonymous": false,
      "inputs": [
        {
          "indexed": true,
          "internalType": "address",
          "name": "previousOwner",
          "type": "address"
        },
        {
          "indexed": true,
          "internalType": "address",
          "name": "newOwner",
          "type": "address"
        }
      ],
      "name": "OwnershipTransferred",
      "type": "event"
    },
    {
      "anonymous": false,
      "inputs": [
        {
          "indexed": true,
          "internalType": "uint256",
          "name": "reviewId",
          "type": "uint256"
        },
        {
          "indexed": false,
          "internalType": "string",
          "name": "reason",
          "type": "string"
        },
        {
          "indexed": true,
          "internalType": "address",
          "name": "flaggedBy",
          "type": "address"
        }
      ],
      "name": "ReviewFlagged",
      "type": "event"
    },
    {
      "anonymous": false,
      "inputs": [
        {
          "indexed": true,
          "internalType": "uint256",
          "name": "reviewId",
          "type": "uint256"
        },
        {
          "indexed": true,
          "internalType": "uint256",
          "name": "propertyId",
          "type": "uint256"
        },
        {
          "indexed": true,
          "internalType": "address",
          "name": "reviewer",
          "type": "address"
        },
        {
          "indexed": false,
          "internalType": "address",
          "name": "reviewee",
          "type": "address"
        },
        {
          "indexed": false,
          "internalType": "uint8",
          "name": "rating",
          "type": "uint8"
        }
      ],
      "name": "ReviewPublished",
      "type": "event"
    },
    {
      "anonymous": false,
      "inputs": [
        {
          "indexed": true,
          "internalType": "uint256",
          "name": "reviewId",
          "type": "uint256"
        },
        {
          "indexed": true,
          "internalType": "address",
          "name": "unflaggedBy",
          "type": "address"
        }
      ],
      "name": "ReviewUnflagged",
      "type": "event"
    },
    {
      "anonymous": false,
      "inputs": [
        {
          "indexed": true,
          "internalType": "uint256",
          "name": "reviewId",
          "type": "uint256"
        },
        {
          "indexed": true,
          "internalType": "address",
          "name": "voter",
          "type": "address"
        },
        {
          "indexed": false,
          "internalType": "bool",
          "name": "helpful",
          "type": "bool"
        }
      ],
      "name": "ReviewVoted",
      "type": "event"
    },
    {
      "inputs": [
        {
          "internalType": "uint256[]",
          "name": "reviewIds",
          "type": "uint256[]"
        },
        {
          "internalType": "string",
          "name": "reason",
          "type": "string"
        }
      ],
      "name": "batchFlag",
      "outputs": [],
      "stateMutability": "nonpayable",
      "type": "function"
    },
    {
      "inputs": [
        {
          "internalType": "uint256",
          "name": "reviewId",
          "type": "uint256"
        },
        {
          "internalType": "string",
          "name": "reason",
          "type": "string"
        }
      ],
      "name": "flagReview",
      "outputs": [],
      "stateMutability": "nonpayable",
      "type": "function"
    },
    {
      "inputs": [
        {
          "internalType": "uint256",
          "name": "offset",
          "type": "uint256"
        },
        {
          "internalType": "uint256",
          "name": "limit",
          "type": "uint256"
        }
      ],
      "name": "getFlaggedReviews",
      "outputs": [
        {
          "components": [
            {
              "internalType": "uint256",
              "name": "reviewId",
              "type": "uint256"
            },
            {
              "internalType": "uint256",
              "name": "escrowId",
              "type": "uint256"
            },
            {
              "internalType": "address",
              "name": "reviewer",
              "type": "address"
            },
            {
              "internalType": "address",
              "name": "reviewee",
              "type": "address"
            },
            {
              "internalType": "uint256",
              "name": "propertyId",
              "type": "uint256"
            },
            {
              "internalType": "uint8",
              "name": "rating",
              "type": "uint8"
            },
            {
              "internalType": "string",
              "name": "ipfsCommentHash",
              "type": "string"
            },
            {
              "internalType": "uint256",
              "name": "timestamp",
              "type": "uint256"
            },
            {
              "internalType": "bool",
              "name": "travelerToHost",
              "type": "bool"
            },
            {
              "internalType": "bool",
              "name": "flagged",
              "type": "bool"
            },
            {
              "internalType": "string",
              "name": "flagReason",
              "type": "string"
            },
            {
              "internalType": "uint256",
              "name": "flaggedAt",
              "type": "uint256"
            },
            {
              "internalType": "address",
              "name": "flaggedBy",
              "type": "address"
            },
            {
              "internalType": "uint256",
              "name": "helpfulCount",
              "type": "uint256"
            },
            {
              "internalType": "uint256",
              "name": "unhelpfulCount",
              "type": "uint256"
            }
          ],
          "internalType": "struct ReviewRegistry.Review[]",
          "name": "",
          "type": "tuple[]"
        }
      ],
      "stateMutability": "view",
      "type": "function"
    },
    {
      "inputs": [
        {
          "internalType": "uint256",
          "name": "propertyId",
          "type": "uint256"
        }
      ],
      "name": "getPropertyReviews",
      "outputs": [
        {
          "components": [
            {
              "internalType": "uint256",
              "name": "reviewId",
              "type": "uint256"
            },
            {
              "internalType": "uint256",
              "name": "escrowId",
              "type": "uint256"
            },
            {
              "internalType": "address",
              "name": "reviewer",
              "type": "address"
            },
            {
              "internalType": "address",
              "name": "reviewee",
              "type": "address"
            },
            {
              "internalType": "uint256",
              "name": "propertyId",
              "type": "uint256"
            },
            {
              "internalType": "uint8",
              "name": "rating",
              "type": "uint8"
            },
            {
              "internalType": "string",
              "name": "ipfsCommentHash",
              "type": "string"
            },
            {
              "internalType": "uint256",
              "name": "timestamp",
              "type": "uint256"
            },
            {
              "internalType": "bool",
              "name": "travelerToHost",
              "type": "bool"
            },
            {
              "internalType": "bool",
              "name": "flagged",
              "type": "bool"
            },
            {
              "internalType": "string",
              "name": "flagReason",
              "type": "string"
            },
            {
              "internalType": "uint256",
              "name": "flaggedAt",
              "type": "uint256"
            },
            {
              "internalType": "address",
              "name": "flaggedBy",
              "type": "address"
            },
            {
              "internalType": "uint256",
              "name": "helpfulCount",
              "type": "uint256"
            },
            {
              "internalType": "uint256",
              "name": "unhelpfulCount",
              "type": "uint256"
            }
          ],
          "internalType": "struct ReviewRegistry.Review[]",
          "name": "",
          "type": "tuple[]"
        }
      ],
      "stateMutability": "view",
      "type": "function"
    },
    {
      "inputs": [
        {
          "internalType": "uint256",
          "name": "propertyId",
          "type": "uint256"
        }
      ],
      "name": "getPropertyStats",
      "outputs": [
        {
          "internalType": "uint256",
          "name": "totalReviewsCount",
          "type": "uint256"
        },
        {
          "internalType": "uint256",
          "name": "visibleReviewsCount",
          "type": "uint256"
        },
        {
          "internalType": "uint256",
          "name": "averageRating",
          "type": "uint256"
        }
      ],
      "stateMutability": "view",
      "type": "function"
    },
    {
      "inputs": [
        {
          "internalType": "uint256",
          "name": "reviewId",
          "type": "uint256"
        }
      ],
      "name": "getReview",
      "outputs": [
        {
          "components": [
            {
              "internalType": "uint256",
              "name": "reviewId",
              "type": "uint256"
            },
            {
              "internalType": "uint256",
              "name": "escrowId",
              "type": "uint256"
            },
            {
              "internalType": "address",
              "name": "reviewer",
              "type": "address"
            },
            {
              "internalType": "address",
              "name": "reviewee",
              "type": "address"
            },
            {
              "internalType": "uint256",
              "name": "propertyId",
              "type": "uint256"
            },
            {
              "internalType": "uint8",
              "name": "rating",
              "type": "uint8"
            },
            {
              "internalType": "string",
              "name": "ipfsCommentHash",
              "type": "string"
            },
            {
              "internalType": "uint256",
              "name": "timestamp",
              "type": "uint256"
            },
            {
              "internalType": "bool",
              "name": "travelerToHost",
              "type": "bool"
            },
            {
              "internalType": "bool",
              "name": "flagged",
              "type": "bool"
            },
            {
              "internalType": "string",
              "name": "flagReason",
              "type": "string"
            },
            {
              "internalType": "uint256",
              "name": "flaggedAt",
              "type": "uint256"
            },
            {
              "internalType": "address",
              "name": "flaggedBy",
              "type": "address"
            },
            {
              "internalType": "uint256",
              "name": "helpfulCount",
              "type": "uint256"
            },
            {
              "internalType": "uint256",
              "name": "unhelpfulCount",
              "type": "uint256"
            }
          ],
          "internalType": "struct ReviewRegistry.Review",
          "name": "",
          "type": "tuple"
        }
      ],
      "stateMutability": "view",
      "type": "function"
    },
    {
      "inputs": [
        {
          "internalType": "address",
          "name": "user",
          "type": "address"
        }
      ],
      "name": "getUserReviews",
      "outputs": [
        {
          "components": [
            {
              "internalType": "uint256",
              "name": "reviewId",
              "type": "uint256"
            },
            {
              "internalType": "uint256",
              "name": "escrowId",
              "type": "uint256"
            },
            {
              "internalType": "address",
              "name": "reviewer",
              "type": "address"
            },
            {
              "internalType": "address",
              "name": "reviewee",
              "type": "address"
            },
            {
              "internalType": "uint256",
              "name": "propertyId",
              "type": "uint256"
            },
            {
              "internalType": "uint8",
              "name": "rating",
              "type": "uint8"
            },
            {
              "internalType": "string",
              "name": "ipfsCommentHash",
              "type": "string"
            },
            {
              "internalType": "uint256",
              "name": "timestamp",
              "type": "uint256"
            },
            {
              "internalType": "bool",
              "name": "travelerToHost",
              "type": "bool"
            },
            {
              "internalType": "bool",
              "name": "flagged",
              "type": "bool"
            },
            {
              "internalType": "string",
              "name": "flagReason",
              "type": "string"
            },
            {
              "internalType": "uint256",
              "name": "flaggedAt",
              "type": "uint256"
            },
            {
              "internalType": "address",
              "name": "flaggedBy",
              "type": "address"
            },
            {
              "internalType": "uint256",
              "name": "helpfulCount",
              "type": "uint256"
            },
            {
              "internalType": "uint256",
              "name": "unhelpfulCount",
              "type": "uint256"
            }
          ],
          "internalType": "struct ReviewRegistry.Review[]",
          "name": "",
          "type": "tuple[]"
        }
      ],
      "stateMutability": "view",
      "type": "function"
    },
    {
      "inputs": [
        {
          "internalType": "uint256",
          "name": "propertyId",
          "type": "uint256"
        }
      ],
      "name": "getVisiblePropertyReviews",
      "outputs": [
        {
          "components": [
            {
              "internalType": "uint256",
              "name": "reviewId",
              "type": "uint256"
            },
            {
              "internalType": "uint256",
              "name": "escrowId",
              "type": "uint256"
            },
            {
              "internalType": "address",
              "name": "reviewer",
              "type": "address"
            },
            {
              "internalType": "address",
              "name": "reviewee",
              "type": "address"
            },
            {
              "internalType": "uint256",
              "name": "propertyId",
              "type": "uint256"
            },
            {
              "internalType": "uint8",
              "name": "rating",
              "type": "uint8"
            },
            {
              "internalType": "string",
              "name": "ipfsCommentHash",
              "type": "string"
            },
            {
              "internalType": "uint256",
              "name": "timestamp",
              "type": "uint256"
            },
            {
              "internalType": "bool",
              "name": "travelerToHost",
              "type": "bool"
            },
            {
              "internalType": "bool",
              "name": "flagged",
              "type": "bool"
            },
            {
              "internalType": "string",
              "name": "flagReason",
              "type": "string"
            },
            {
              "internalType": "uint256",
              "name": "flaggedAt",
              "type": "uint256"
            },
            {
              "internalType": "address",
              "name": "flaggedBy",
              "type": "address"
            },
            {
              "internalType": "uint256",
              "name": "helpfulCount",
              "type": "uint256"
            },
            {
              "internalType": "uint256",
              "name": "unhelpfulCount",
              "type": "uint256"
            }
          ],
          "internalType": "struct ReviewRegistry.Review[]",
          "name": "",
          "type": "tuple[]"
        }
      ],
      "stateMutability": "view",
      "type": "function"
    },
    {
      "inputs": [
        {
          "internalType": "uint256",
          "name": "",
          "type": "uint256"
        },
        {
          "internalType": "address",
          "name": "",
          "type": "address"
        }
      ],
      "name": "hasVoted",
      "outputs": [
        {
          "internalType": "bool",
          "name": "",
          "type": "bool"
        }
      ],
      "stateMutability": "view",
      "type": "function"
    },
    {
      "inputs": [],
      "name": "hostSBT",
      "outputs": [
        {
          "internalType": "contract IHostSBT",
          "name": "",
          "type": "address"
        }
      ],
      "stateMutability": "view",
      "type": "function"
    },
    {
      "inputs": [
        {
          "internalType": "address",
          "name": "account",
          "type": "address"
        }
      ],
      "name": "isModerator",
      "outputs": [
        {
          "internalType": "bool",
          "name": "",
          "type": "bool"
        }
      ],
      "stateMutability": "view",
      "type": "function"
    },
    {
      "inputs": [
        {
          "internalType": "address",
          "name": "",
          "type": "address"
        }
      ],
      "name": "moderators",
      "outputs": [
        {
          "internalType": "bool",
          "name": "",
          "type": "bool"
        }
      ],
      "stateMutability": "view",
      "type": "function"
    },
    {
      "inputs": [],
      "name": "owner",
      "outputs": [
        {
          "internalType": "address",
          "name": "",
          "type": "address"
        }
      ],
      "stateMutability": "view",
      "type": "function"
    },
    {
      "inputs": [],
      "name": "propertyNFT",
      "outputs": [
        {
          "internalType": "contract IPropertyNFT",
          "name": "",
          "type": "address"
        }
      ],
      "stateMutability": "view",
      "type": "function"
    },
    {
      "inputs": [],
      "name": "propertyRegistry",
      "outputs": [
        {
          "internalType": "contract IPropertyRegistry",
          "name": "",
          "type": "address"
        }
      ],
      "stateMutability": "view",
      "type": "function"
    },
    {
      "inputs": [
        {
          "internalType": "uint256",
          "name": "",
          "type": "uint256"
        },
        {
          "internalType": "uint256",
          "name": "",
          "type": "uint256"
        }
      ],
      "name": "propertyReviews",
      "outputs": [
        {
          "internalType": "uint256",
          "name": "",
          "type": "uint256"
        }
      ],
      "stateMutability": "view",
      "type": "function"
    },
    {
      "inputs": [
        {
          "internalType": "uint256",
          "name": "reviewId",
          "type": "uint256"
        },
        {
          "internalType": "uint256",
          "name": "escrowId",
          "type": "uint256"
        },
        {
          "internalType": "address",
          "name": "reviewer",
          "type": "address"
        },
        {
          "internalType": "address",
          "name": "reviewee",
          "type": "address"
        },
        {
          "internalType": "uint256",
          "name": "propertyId",
          "type": "uint256"
        },
        {
          "internalType": "uint8",
          "name": "rating",
          "type": "uint8"
        },
        {
          "internalType": "string",
          "name": "ipfsCommentHash",
          "type": "string"
        },
        {
          "internalType": "bool",
          "name": "travelerToHost",
          "type": "bool"
        }
      ],
      "name": "publishReview",
      "outputs": [],
      "stateMutability": "nonpayable",
      "type": "function"
    },
    {
      "inputs": [],
      "name": "renounceOwnership",
      "outputs": [],
      "stateMutability": "nonpayable",
      "type": "function"
    },
    {
      "inputs": [],
      "name": "reviewValidator",
      "outputs": [
        {
          "internalType": "address",
          "name": "",
          "type": "address"
        }
      ],
      "stateMutability": "view",
      "type": "function"
    },
    {
      "inputs": [
        {
          "internalType": "uint256",
          "name": "",
          "type": "uint256"
        }
      ],
      "name": "reviews",
      "outputs": [
        {
          "internalType": "uint256",
          "name": "reviewId",
          "type": "uint256"
        },
        {
          "internalType": "uint256",
          "name": "escrowId",
          "type": "uint256"
        },
        {
          "internalType": "address",
          "name": "reviewer",
          "type": "address"
        },
        {
          "internalType": "address",
          "name": "reviewee",
          "type": "address"
        },
        {
          "internalType": "uint256",
          "name": "propertyId",
          "type": "uint256"
        },
        {
          "internalType": "uint8",
          "name": "rating",
          "type": "uint8"
        },
        {
          "internalType": "string",
          "name": "ipfsCommentHash",
          "type": "string"
        },
        {
          "internalType": "uint256",
          "name": "timestamp",
          "type": "uint256"
        },
        {
          "internalType": "bool",
          "name": "travelerToHost",
          "type": "bool"
        },
        {
          "internalType": "bool",
          "name": "flagged",
          "type": "bool"
        },
        {
          "internalType": "string",
          "name": "flagReason",
          "type": "string"
        },
        {
          "internalType": "uint256",
          "name": "flaggedAt",
          "type": "uint256"
        },
        {
          "internalType": "address",
          "name": "flaggedBy",
          "type": "address"
        },
        {
          "internalType": "uint256",
          "name": "helpfulCount",
          "type": "uint256"
        },
        {
          "internalType": "uint256",
          "name": "unhelpfulCount",
          "type": "uint256"
        }
      ],
      "stateMutability": "view",
      "type": "function"
    },
    {
      "inputs": [
        {
          "internalType": "address",
          "name": "_travelerSBT",
          "type": "address"
        },
        {
          "internalType": "address",
          "name": "_hostSBT",
          "type": "address"
        },
        {
          "internalType": "address",
          "name": "_propertyNFT",
          "type": "address"
        },
        {
          "internalType": "address",
          "name": "_propertyRegistry",
          "type": "address"
        }
      ],
      "name": "setContracts",
      "outputs": [],
      "stateMutability": "nonpayable",
      "type": "function"
    },
    {
      "inputs": [
        {
          "internalType": "address",
          "name": "moderator",
          "type": "address"
        },
        {
          "internalType": "bool",
          "name": "status",
          "type": "bool"
        }
      ],
      "name": "setModerator",
      "outputs": [],
      "stateMutability": "nonpayable",
      "type": "function"
    },
    {
      "inputs": [
        {
          "internalType": "address",
          "name": "_reviewValidator",
          "type": "address"
        }
      ],
      "name": "setReviewValidator",
      "outputs": [],
      "stateMutability": "nonpayable",
      "type": "function"
    },
    {
      "inputs": [],
      "name": "totalReviews",
      "outputs": [
        {
          "internalType": "uint256",
          "name": "",
          "type": "uint256"
        }
      ],
      "stateMutability": "view",
      "type": "function"
    },
    {
      "inputs": [
        {
          "internalType": "address",
          "name": "newOwner",
          "type": "address"
        }
      ],
      "name": "transferOwnership",
      "outputs": [],
      "stateMutability": "nonpayable",
      "type": "function"
    },
    {
      "inputs": [],
      "name": "travelerSBT",
      "outputs": [
        {
          "internalType": "contract ITravelerSBT",
          "name": "",
          "type": "address"
        }
      ],
      "stateMutability": "view",
      "type": "function"
    },
    {
      "inputs": [
        {
          "internalType": "uint256",
          "name": "reviewId",
          "type": "uint256"
        }
      ],
      "name": "unflagReview",
      "outputs": [],
      "stateMutability": "nonpayable",
      "type": "function"
    },
    {
      "inputs": [
        {
          "internalType": "address",
          "name": "",
          "type": "address"
        },
        {
          "internalType": "uint256",
          "name": "",
          "type": "uint256"
        }
      ],
      "name": "userReviews",
      "outputs": [
        {
          "internalType": "uint256",
          "name": "",
          "type": "uint256"
        }
      ],
      "stateMutability": "view",
      "type": "function"
    },
    {
      "inputs": [
        {
          "internalType": "uint256",
          "name": "reviewId",
          "type": "uint256"
        },
        {
          "internalType": "bool",
          "name": "helpful",
          "type": "bool"
        }
      ],
      "name": "voteOnReview",
      "outputs": [],
      "stateMutability": "nonpayable",
      "type": "function"
    }
  ],
  "bytecode": "0x60803461014457601f6123b838819003918201601f19168301916001600160401b0383118484101761014857808492608094604052833981010312610144576100478161015c565b906100546020820161015c565b9061006d60606100666040840161015c565b920161015c565b913315610131575f8054336001600160a01b0319821681178355604051969290916001600160a01b0316907f8be0079c531659141344cd1fd0a4f28419497f9722a3daafe3b4186f6b6457e09080a3600680546001600160a01b03199081166001600160a01b039384161790915560078054821693831693909317909255600880548316938216939093179092556009805490911692909116919091179055335f908152600b60205260409020805460ff1916600117905561224790816101718239f35b631e4fbdf760e01b5f525f60045260245ffd5b5f80fd5b634e487b7160e01b5f52604160045260245ffd5b51906001600160a01b03821682036101445756fe60806040526004361015610011575f80fd5b5f5f3560e01c80630194af0b14611aa55780630a688cc314611a7f57806314d0f1ba14611a4257806318d0e8b2146118a05780631d4f71b81461187a5780631f4ac1291461183457806326b703a71461180e57806337f76838146117e85780633c6e7ec2146117015780633ee2b01d1461167f57806343859632146116355780636f66f6ef1461160f578063715018a6146115b857806378e4a841146113ba5780637a227c9614610e115780637bca4d7714610c035780638da5cb5b14610bdd5780639438691c14610af8578063990581b6146109e1578063ad834ff01461084c578063b9dab5541461067d578063bf989b6e14610600578063d871e718146103dc578063e2367890146103be578063e83ddcea1461029e578063ebf9aa921461025d578063f2fde38b146101d7578063fa6f39361461019a5763fd4d77ae14610159575f80fd5b34610197576020366003190112610197576001600160a01b0361017a611d86565b6101826121eb565b166001600160a01b0319600a541617600a5580f35b80fd5b50346101975760203660031901126101975760ff60406020926001600160a01b036101c3611d86565b168152600b84522054166040519015158152f35b5034610197576020366003190112610197576001600160a01b036101f9611d86565b6102016121eb565b1680156102495781546001600160a01b03198116821783556001600160a01b03167f8be0079c531659141344cd1fd0a4f28419497f9722a3daafe3b4186f6b6457e08380a380f35b631e4fbdf760e01b82526004829052602482fd5b50346101975761026c36611f77565b9190815260026020526040812090815483101561019757602061028f8484611f3f565b90549060031b1c604051908152f35b5034610197576020366003190112610197576004358152600160205260409020805460018201549160028101546001600160a01b031660038201546001600160a01b031691600481015492600582015460ff16600683016102fe90611fc5565b60078401546008850154909161031660098701611fc5565b93600a87015498600b8801546001600160a01b031696600c89015498600d0154996040519d8e809e81526020015260408d015260608c015260808b015260a08a015260c089016101e090526101e0890161036f91611dde565b9160e089015260ff8116151561010089015260081c60ff1615156101208801528681036101408801526103a191611dde565b936101608601526101808501526101a08401526101c08301520390f35b50346101975780600319360112610197576020600554604051908152f35b5034610197576103eb36611f77565b60055491929081805b8481106105c95750848111156105c1578481039081116105ad57905b8082116105a5575b5061042281612141565b9180918190825b8681108061059c575b1561058a57808452600160205260ff600860408620015460081c16610460575b61045b90612190565b610429565b938783106105765761056d61045b91868652600160205260408620600d6040519161048a83611cd9565b80548352600181015460208401526001600160a01b0360028201541660408401526001600160a01b0360038201541660608401526004810154608084015260ff60058201541660a08401526104e160068201611fc5565b60c0840152600781015460e084015260ff6008820154818116151561010086015260081c16151561012084015261051a60098201611fc5565b610140840152600a8101546101608401526001600160a01b03600b82015416610180840152600c8101546101a084015201546101c082015261055c828a612065565b526105678189612065565b50612190565b945b9050610452565b939161058461045b91612190565b9261056f565b604051806105988882611ee0565b0390f35b50818510610432565b90505f610418565b634e487b7160e01b83526011600452602483fd5b508190610410565b808452600160205260ff600860408620015460081c166105ec575b6001016103f4565b906105f8600191612190565b9190506105e4565b5034610197576080366003190112610197576001600160a01b03610622611d86565b8161062b611d9c565b81610634611db2565b918161063e611dc8565b956106476121eb565b168219600654161760065516821960075416176007551682196008541617600855166001600160a01b0319600954161760095580f35b5034610197576040366003190112610197576004359060243567ffffffffffffffff8111610848576106b3903690600401611d30565b338252600b60205260ff60408320541615610839578282526001602052604082209260088401805460ff8160081c1661082a5761ff0019166101001790558151936009810167ffffffffffffffff86116108165761071b866107158354611f8d565b8361208f565b602095601f81116001146107b357808697600b959697916107a8575b508160011b915f199060031b1c19161790555b42600a820155016001600160a01b0333166001600160a01b03198254161790557f81be238bd5e1f64b98562cd3abcb81d9405a6cdb46a905d577b0105c70aeb7ff60405160208152806107a233956020830190611dde565b0390a380f35b90508601515f610737565b818652868620601f198216875b8181106107fe575090600b959697988360019493106107e6575b5050811b01905561074a565b8801515f1960f88460031b161c191690555f806107da565b878a015183556020998a0199600190930192016107c0565b634e487b7160e01b85526041600452602485fd5b63018f77f960e11b8552600485fd5b6375522eb560e11b8252600482fd5b5080fd5b50346101975760203660031901126101975760043581526002602052604081206040518082602082945493848152019085526020852092855b8181106109c857505061089a92500382611cf6565b6108a48151612141565b91805b82518110156109ba57806108bd60019285612065565b5183528160205260408320600d604051916108d783611cd9565b805483528481015460208401526001600160a01b0360028201541660408401526001600160a01b0360038201541660608401526004810154608084015260ff60058201541660a084015261092d60068201611fc5565b60c0840152600781015460e084015260ff6008820154818116151561010086015260081c16151561012084015261096660098201611fc5565b610140840152600a8101546101608401526001600160a01b03600b82015416610180840152600c8101546101a084015201546101c08201526109a88287612065565b526109b38186612065565b50016108a7565b604051806105988682611ee0565b8454835260019485019486945060209093019201610885565b503461019757602036600319011261019757604061059891610a016120d2565b506004358152600160205220600d60405191610a1c83611cd9565b80548352600181015460208401526001600160a01b0360028201541660408401526001600160a01b0360038201541660608401526004810154608084015260ff60058201541660a0840152610a7360068201611fc5565b60c0840152600781015460e084015260ff6008820154818116151561010086015260081c161515610120840152610aac60098201611fc5565b610140840152600a8101546101608401526001600160a01b03600b82015416610180840152600c8101546101a084015201546101c0820152604051918291602083526020830190611e02565b503461019757604036600319011261019757600435610b15611f68565b908083526004602052604083206001600160a01b0333165f5260205260ff60405f205416610bce578083526001602052604083208215610bba57600c01610b5c8154612190565b90555b8083526004602052604083206001600160a01b0333165f5260205260405f20600160ff1982541617905560405191151582527f3e92b80b10e08c7af873b630b9789e2185d397ebfd2ef852e410f7da08a21bf360203393a380f35b600d01610bc78154612190565b9055610b5f565b637c9a1cf960e01b8352600483fd5b50346101975780600319360112610197576001600160a01b036020915416604051908152f35b50346101975760203660031901126101975760043581526002602052604081206040518082602082945493848152019085526020852092855b818110610df8575050610c5192500382611cf6565b8182805b8351811015610d9b57610c688185612065565b51825260016020526040822060405190610c8182611cd9565b80548252600181015460208301526001600160a01b0360028201541660408301526001600160a01b0360038201541660608301526004810154608083015260ff6005820154169160a08101928352610cdb60068301611fc5565b60c0820152600782015460e08201526101c0600d60088401549360ff8516151561010085015260ff61012085019560081c1615158552610d1d60098201611fc5565b610140850152600a8101546101608501526001600160a01b03600b82015416610180850152600c8101546101a085015201549101525115610d62575b50600101610c55565b60ff909593919551168101809111610d8757610d8060019193612190565b9490610d59565b634e487b7160e01b82526011600452602482fd5b508251908490811580610ded57606485029480860460641490151715610d8757610dd957508060609304905b60405192835260208301526040820152f35b634e487b7160e01b81526012600452602490fd5b506060935090610dc7565b8454835260019485019486945060209093019201610c3c565b50346112995761010036600319011261129957600435610e2f611db2565b90610e38611dc8565b906084359160a4359060ff82168092036112995760c43567ffffffffffffffff811161129957610e6c903690600401611d30565b60e43580151592838203611299576001600160a01b03600a541633036113ab57604051610e9881611cd9565b868152808760208201936024358552604083019b6001600160a01b03169b8c815260608401916001600160a01b03169889835260808501988d8a5260a08601908c825260c087019081524260e088015261010087019283526101208701915f835260209b8c9660405196610f0c8989611cf6565b5f88526101408b019788526101608b01985f8a526101808c019a5f8c526101a08d019c5f8e526101c0015f90525f526001905260405f20809d8d518255519060010155516001600160a01b031660028d01906001600160a01b03166001600160a01b0319825416179055516001600160a01b031660038c01906001600160a01b03166001600160a01b03198254161790555160048b015560058a01905160ff1660ff198254161790555180519067ffffffffffffffff821161131d578190610fe4828c6006610fdd81830154611f8d565b910161208f565b8c90601f831160011461133c575f92611331575b50508160011b915f199060031b1c19161760068901555b60e087015160078901556110366008890192511515839060ff801983541691151516179055565b51815461ff00191690151560081b61ff0016179055518051600987019167ffffffffffffffff821161131d57611076826110708554611f8d565b8561208f565b8990601f83116001146112a8579282600d9896936101c09896936001600160a01b03965f9261129d575b50508160011b915f199060031b1c19161790555b51600a88015551166001600160a01b03600b870191166001600160a01b031982541617905551600c8501550151910155855f52600282526110f88560405f206121b2565b825f526003825261110c8560405f206121b2565b611117600554612190565b6005551561122b57866001600160a01b0360075416803b156108485781809160646040518094819363660454b360e11b83528960048401528a6024840152603c60448401525af1801561120b57611216575b50505b846111a4575b907f7c70c83f4440afffc3b01956abd83e3a5fb4992c377ec60761be2b178e0ba89e926040928351928352820152a480f35b866001600160a01b0360095416803b1561084857818091604460405180948193630e0e332360e01b83528c60048401528a60248401525af1801561120b576111ee575b5050611172565b816111fb91949394611cf6565b6112075790865f6111e7565b8680fd5b6040513d84823e3d90fd5b8161122091611cf6565b61120757865f611169565b6001600160a01b0360065416803b15611299575f80916064604051809481936344d9e2dd60e01b83528860048401528960248401528160448401525af1801561128e57611279575b5061116c565b6112869197505f90611cf6565b5f955f611273565b6040513d5f823e3d90fd5b5f80fd5b015190505f806110a0565b90601f19831691845f528b5f20925f5b8d828210611307575050936101c09896936001600160a01b03969360019383600d9d9b98106112ef575b505050811b0190556110b4565b01515f1960f88460031b161c191690555f80806112e2565b60018596829396860151815501950193016112b8565b634e487b7160e01b5f52604160045260245ffd5b015190505f80610ff8565b908d935060068c015f52835f20915f945b601f198516861061139157506001945083601f19811610611379575b505050811b01600689015561100f565b01515f1960f88460031b161c191690555f8080611369565b82820151845594850194600190930192909101908e61134d565b63ea8e4eb560e01b5f5260045ffd5b34611299576020366003190112611299576004355f52600260205260405f20604051808260208294549384815201905f5260205f20925f5b81811061159f57505061140792500382611cf6565b5f5f5b82518110156114555761141d8184612065565b515f52600160205260ff600860405f20015460081c1615611441575b60010161140a565b9061144d600191612190565b919050611439565b5061145f90612141565b5f905f5b8351811015611591576114768185612065565b515f52600160205260405f206040519061148f82611cd9565b80548252600181015460208301526001600160a01b0360028201541660408301526001600160a01b0360038201541660608301526004810154608083015260ff60058201541660a08301526114e660068201611fc5565b60c0830152600781015460e0830152600d60088201549160ff8316151561010085015260ff61012085019360081c161515835261152560098201611fc5565b610140850152600a8101546101608501526001600160a01b03600b82015416610180850152600c8101546101a085015201546101c0830152511561156d575b50600101611463565b8361158a9161157f6001949686612065565b526105678185612065565b9290611564565b604051806105988482611ee0565b84548352600194850194869450602090930192016113f2565b34611299575f366003190112611299576115d06121eb565b5f80546001600160a01b0319811682556001600160a01b03167f8be0079c531659141344cd1fd0a4f28419497f9722a3daafe3b4186f6b6457e08280a3005b34611299575f3660031901126112995760206001600160a01b0360065416604051908152f35b346112995760403660031901126112995761164e611d9c565b6004355f5260046020526001600160a01b0360405f2091165f52602052602060ff60405f2054166040519015158152f35b3461129957604036600319011261129957611698611d86565b7f0e1c45aff1a1f4055c2bee5eb0020bf064559e9bd1435a6cc044461ae0c68a1a60206001600160a01b036116cb611f68565b936116d46121eb565b1692835f52600b82526116f68160405f209060ff801983541691151516179055565b6040519015158152a2005b3461129957602036600319011261129957600435335f52600b60205260ff60405f205416156117d957805f52600160205260405f20600881019081549160ff8360081c16156117ca57600b9261ff00191690555f600982016117638154611f8d565b601f81116117ab575b50555f600a820155016001600160a01b0319815416905533907f4dd9ba659cc17d4a95e673212190d29d58ccfc51ece04e61a3b0adaae3b27e155f80a3005b818352602083206117c491601f0160051c810190612079565b8561176c565b6317704ba360e31b5f5260045ffd5b6375522eb560e11b5f5260045ffd5b34611299575f3660031901126112995760206001600160a01b0360085416604051908152f35b34611299575f3660031901126112995760206001600160a01b0360095416604051908152f35b346112995760403660031901126112995761184d611d86565b6001600160a01b0360243591165f52600360205260405f2080548210156112995760209161028f91611f3f565b34611299575f3660031901126112995760206001600160a01b0360075416604051908152f35b34611299576020366003190112611299576001600160a01b036118c1611d86565b165f52600360205260405f20604051808260208294549384815201905f5260205f20925f5b818110611a295750506118fb92500382611cf6565b6119058151612141565b905f5b8151811015611a1b578061191e60019284612065565b515f528160205260405f20600d6040519161193883611cd9565b805483528481015460208401526001600160a01b0360028201541660408401526001600160a01b0360038201541660608401526004810154608084015260ff60058201541660a084015261198e60068201611fc5565b60c0840152600781015460e084015260ff6008820154818116151561010086015260081c1615156101208401526119c760098201611fc5565b610140840152600a8101546101608401526001600160a01b03600b82015416610180840152600c8101546101a084015201546101c0820152611a098286612065565b52611a148185612065565b5001611908565b604051806105988582611ee0565b84548352600194850194869450602090930192016118e6565b34611299576020366003190112611299576001600160a01b03611a63611d86565b165f52600b602052602060ff60405f2054166040519015158152f35b34611299575f3660031901126112995760206001600160a01b03600a5416604051908152f35b346112995760403660031901126112995760043567ffffffffffffffff8111611299573660238201121561129957806004013590611ae282611d18565b91611af06040519384611cf6565b8083526024602084019160051b8301019136831161129957602401905b828210611cc9578360243567ffffffffffffffff811161129957611b35903690600401611d30565b335f52600b60205260ff60405f205416156117d957905f915b8151831015611cc757611b618383612065565b515f52600160205260405f209260088401805460ff8160081c1615611b8d575b50506001019250611b4e565b61ff0019166101001790558151936009810167ffffffffffffffff861161131d57611bbc866107158354611f8d565b602095601f8111600114611c60579081600b939260019697985f91611c55575b505f19600383901b1c191690861b1790555b42600a8201550180546001600160a01b03191633179055611c0f8185612065565b5160405190602082527f81be238bd5e1f64b98562cd3abcb81d9405a6cdb46a905d577b0105c70aeb7ff339280611c496020820189611dde565b0390a383929185611b81565b905087015189611bdc565b601f19811696825f52805f20975f5b818110611caf5750916001969798879282600b97969510611c97575b5050811b019055611bee565b8901515f1960f88460031b161c191690558980611c8b565b878301518a5560019099019860209283019201611c6f565b005b8135815260209182019101611b0d565b6101e0810190811067ffffffffffffffff82111761131d57604052565b90601f8019910116810190811067ffffffffffffffff82111761131d57604052565b67ffffffffffffffff811161131d5760051b60200190565b81601f820112156112995780359067ffffffffffffffff821161131d5760405192611d65601f8401601f191660200185611cf6565b8284526020838301011161129957815f926020809301838601378301015290565b600435906001600160a01b038216820361129957565b602435906001600160a01b038216820361129957565b604435906001600160a01b038216820361129957565b606435906001600160a01b038216820361129957565b805180835260209291819084018484015e5f828201840152601f01601f1916010190565b9081518152602082015160208201526001600160a01b0360408301511660408201526001600160a01b0360608301511660608201526080820151608082015260ff60a08301511660a08201526101c080611eaa611e7060c08601516101e060c08701526101e0860190611dde565b60e086015160e086015261010086015115156101008601526101208601511515610120860152610140860151858203610140870152611dde565b936101608101516101608501526001600160a01b03610180820151166101808501526101a08101516101a0850152015191015290565b602081016020825282518091526040820191602060408360051b8301019401925f915b838310611f1257505050505090565b9091929394602080611f30600193603f198682030187528951611e02565b97019301930191939290611f03565b8054821015611f54575f5260205f2001905f90565b634e487b7160e01b5f52603260045260245ffd5b60243590811515820361129957565b6040906003190112611299576004359060243590565b90600182811c92168015611fbb575b6020831014611fa757565b634e487b7160e01b5f52602260045260245ffd5b91607f1691611f9c565b9060405191825f825492611fd884611f8d565b80845293600181169081156120435750600114611fff575b50611ffd92500383611cf6565b565b90505f9291925260205f20905f915b818310612027575050906020611ffd928201015f611ff0565b602091935080600191548385890101520191019091849261200e565b905060209250611ffd94915060ff191682840152151560051b8201015f611ff0565b8051821015611f545760209160051b010190565b818110612084575050565b5f8155600101612079565b9190601f811161209e57505050565b611ffd925f5260205f20906020601f840160051c830193106120c8575b601f0160051c0190612079565b90915081906120bb565b604051906120df82611cd9565b5f6101c0838281528260208201528260408201528260608201528260808201528260a0820152606060c08201528260e0820152826101008201528261012082015260606101408201528261016082015282610180820152826101a08201520152565b9061214b82611d18565b6121586040519182611cf6565b8281528092612169601f1991611d18565b01905f5b82811061217957505050565b6020906121846120d2565b8282850101520161216d565b5f19811461219e5760010190565b634e487b7160e01b5f52601160045260245ffd5b80546801000000000000000081101561131d576121d491600182018155611f3f565b819291549060031b91821b915f19901b1916179055565b6001600160a01b035f541633036121fe57565b63118cdaa760e01b5f523360045260245ffdfea2646970667358221220691c38b85fe5171d512f9d3730777635d7c8f6a82139a7a693efce7329dba8fc64736f6c634300081c0033",
  "linkReferences": {},
  "deployedLinkReferences": {},
  "immutableReferences": {},
  "inputSourceName": "project/contracts/ReviewRegistry.sol",
  "buildInfoId": "solc-0_8_28-4fcdb18056ccd947948e3acd56ca989af23af925"
}