{
  "_format": "hh3-artifact-1",
  "contractName": "TravelEscrow",
  "sourceName": "contracts/TravelEscrow.sol",
  "abi": [
    {
      "inputs": [
        {
          "internalType": "address",
          "name": "_traveler",
          "type": "address"
        },
        {
          "internalType": "address",
          "name": "_host",
          "type": "address"
        },
        {
          "internalType": "address",
          "name": "_token",
          "type": "address"
        },
        {
          "internalType": "uint256",
          "name": "_amount",
          "type": "uint256"
        },
        {
          "internalType": "uint256",
          "name": "_platformFee",
          "type": "uint256"
        },
        {
          "internalType": "address",
          "name": "_platformWallet",
          "type": "address"
        },
        {
          "internalType": "address",
          "name": "_admin",
          "type": "address"
        },
        {
          "internalType": "address",
          "name": "_backendSigner",
          "type": "address"
        },
        {
          "internalType": "address",
          "name": "_propertyNFT",
          "type": "address"
        },
        {
          "internalType": "uint256",
          "name": "_tokenId",
          "type": "uint256"
        },
        {
          "internalType": "uint256",
          "name": "_bookingIndex",
          "type": "uint256"
        },
        {
          "internalType": "uint256",
          "name": "_checkIn",
          "type": "uint256"
        },
        {
          "internalType": "uint256",
          "name": "_checkOut",
          "type": "uint256"
        }
      ],
      "stateMutability": "nonpayable",
      "type": "constructor"
    },
    {
      "inputs": [],
      "name": "AlreadyWithdrawn",
      "type": "error"
    },
    {
      "inputs": [],
      "name": "DisputeWindowExpired",
      "type": "error"
    },
    {
      "inputs": [],
      "name": "ECDSAInvalidSignature",
      "type": "error"
    },
    {
      "inputs": [
        {
          "internalType": "uint256",
          "name": "length",
          "type": "uint256"
        }
      ],
      "name": "ECDSAInvalidSignatureLength",
      "type": "error"
    },
    {
      "inputs": [
        {
          "internalType": "bytes32",
          "name": "s",
          "type": "bytes32"
        }
      ],
      "name": "ECDSAInvalidSignatureS",
      "type": "error"
    },
    {
      "inputs": [],
      "name": "InvalidAddress",
      "type": "error"
    },
    {
      "inputs": [],
      "name": "InvalidAmount",
      "type": "error"
    },
    {
      "inputs": [],
      "name": "InvalidDates",
      "type": "error"
    },
    {
      "inputs": [],
      "name": "InvalidSignature",
      "type": "error"
    },
    {
      "inputs": [],
      "name": "InvalidStatus",
      "type": "error"
    },
    {
      "inputs": [],
      "name": "ReentrancyGuardReentrantCall",
      "type": "error"
    },
    {
      "inputs": [
        {
          "internalType": "address",
          "name": "token",
          "type": "address"
        }
      ],
      "name": "SafeERC20FailedOperation",
      "type": "error"
    },
    {
      "inputs": [],
      "name": "TooEarlyForAction",
      "type": "error"
    },
    {
      "inputs": [],
      "name": "Unauthorized",
      "type": "error"
    },
    {
      "inputs": [],
      "name": "UnsupportedCurrency",
      "type": "error"
    },
    {
      "inputs": [],
      "name": "WrongPaymentPreference",
      "type": "error"
    },
    {
      "anonymous": false,
      "inputs": [
        {
          "indexed": true,
          "internalType": "address",
          "name": "host",
          "type": "address"
        },
        {
          "indexed": false,
          "internalType": "uint256",
          "name": "amount",
          "type": "uint256"
        },
        {
          "indexed": false,
          "internalType": "uint256",
          "name": "timestamp",
          "type": "uint256"
        }
      ],
      "name": "AutoReleased",
      "type": "event"
    },
    {
      "anonymous": false,
      "inputs": [
        {
          "indexed": true,
          "internalType": "address",
          "name": "backend",
          "type": "address"
        },
        {
          "indexed": false,
          "internalType": "uint256",
          "name": "amount",
          "type": "uint256"
        }
      ],
      "name": "BackendInitiatedOffRamp",
      "type": "event"
    },
    {
      "anonymous": false,
      "inputs": [
        {
          "indexed": true,
          "internalType": "address",
          "name": "traveler",
          "type": "address"
        },
        {
          "indexed": false,
          "internalType": "uint256",
          "name": "refundPercent",
          "type": "uint256"
        }
      ],
      "name": "CancellationProcessed",
      "type": "event"
    },
    {
      "anonymous": false,
      "inputs": [
        {
          "indexed": true,
          "internalType": "address",
          "name": "initiator",
          "type": "address"
        },
        {
          "indexed": false,
          "internalType": "string",
          "name": "reason",
          "type": "string"
        },
        {
          "indexed": false,
          "internalType": "uint256",
          "name": "timestamp",
          "type": "uint256"
        }
      ],
      "name": "DisputeOpened",
      "type": "event"
    },
    {
      "anonymous": false,
      "inputs": [
        {
          "indexed": false,
          "internalType": "bool",
          "name": "refunded",
          "type": "bool"
        },
        {
          "indexed": true,
          "internalType": "address",
          "name": "resolvedBy",
          "type": "address"
        },
        {
          "indexed": false,
          "internalType": "string",
          "name": "resolution",
          "type": "string"
        }
      ],
      "name": "DisputeResolved",
      "type": "event"
    },
    {
      "anonymous": false,
      "inputs": [
        {
          "indexed": true,
          "internalType": "address",
          "name": "traveler",
          "type": "address"
        },
        {
          "indexed": true,
          "internalType": "address",
          "name": "host",
          "type": "address"
        },
        {
          "indexed": true,
          "internalType": "address",
          "name": "token",
          "type": "address"
        },
        {
          "indexed": false,
          "internalType": "uint256",
          "name": "amount",
          "type": "uint256"
        },
        {
          "indexed": false,
          "internalType": "uint256",
          "name": "checkIn",
          "type": "uint256"
        },
        {
          "indexed": false,
          "internalType": "uint256",
          "name": "checkOut",
          "type": "uint256"
        }
      ],
      "name": "FundsLocked",
      "type": "event"
    },
    {
      "anonymous": false,
      "inputs": [
        {
          "indexed": true,
          "internalType": "address",
          "name": "traveler",
          "type": "address"
        },
        {
          "indexed": false,
          "internalType": "uint256",
          "name": "amount",
          "type": "uint256"
        }
      ],
      "name": "FundsRefunded",
      "type": "event"
    },
    {
      "anonymous": false,
      "inputs": [
        {
          "indexed": true,
          "internalType": "address",
          "name": "host",
          "type": "address"
        },
        {
          "indexed": false,
          "internalType": "uint256",
          "name": "amount",
          "type": "uint256"
        }
      ],
      "name": "HostWithdrewCrypto",
      "type": "event"
    },
    {
      "anonymous": false,
      "inputs": [
        {
          "indexed": true,
          "internalType": "address",
          "name": "traveler",
          "type": "address"
        },
        {
          "indexed": true,
          "internalType": "address",
          "name": "host",
          "type": "address"
        },
        {
          "indexed": false,
          "internalType": "uint256",
          "name": "travelerAmount",
          "type": "uint256"
        },
        {
          "indexed": false,
          "internalType": "uint256",
          "name": "hostAmount",
          "type": "uint256"
        }
      ],
      "name": "PartialRefund",
      "type": "event"
    },
    {
      "anonymous": false,
      "inputs": [
        {
          "indexed": false,
          "internalType": "enum TravelEscrow.PaymentPreference",
          "name": "preference",
          "type": "uint8"
        }
      ],
      "name": "PaymentPreferenceSet",
      "type": "event"
    },
    {
      "anonymous": false,
      "inputs": [
        {
          "indexed": true,
          "internalType": "address",
          "name": "traveler",
          "type": "address"
        },
        {
          "indexed": false,
          "internalType": "uint256",
          "name": "timestamp",
          "type": "uint256"
        }
      ],
      "name": "StayConfirmed",
      "type": "event"
    },
    {
      "inputs": [],
      "name": "MAX_DISPUTE_WINDOW",
      "outputs": [
        {
          "internalType": "uint256",
          "name": "",
          "type": "uint256"
        }
      ],
      "stateMutability": "view",
      "type": "function"
    },
    {
      "inputs": [],
      "name": "SECONDS_PER_DAY",
      "outputs": [
        {
          "internalType": "uint256",
          "name": "",
          "type": "uint256"
        }
      ],
      "stateMutability": "view",
      "type": "function"
    },
    {
      "inputs": [],
      "name": "admin",
      "outputs": [
        {
          "internalType": "address",
          "name": "",
          "type": "address"
        }
      ],
      "stateMutability": "view",
      "type": "function"
    },
    {
      "inputs": [],
      "name": "amount",
      "outputs": [
        {
          "internalType": "uint256",
          "name": "",
          "type": "uint256"
        }
      ],
      "stateMutability": "view",
      "type": "function"
    },
    {
      "inputs": [],
      "name": "autoReleaseToHost",
      "outputs": [],
      "stateMutability": "nonpayable",
      "type": "function"
    },
    {
      "inputs": [],
      "name": "backendSigner",
      "outputs": [
        {
          "internalType": "address",
          "name": "",
          "type": "address"
        }
      ],
      "stateMutability": "view",
      "type": "function"
    },
    {
      "inputs": [],
      "name": "bookingIndex",
      "outputs": [
        {
          "internalType": "uint256",
          "name": "",
          "type": "uint256"
        }
      ],
      "stateMutability": "view",
      "type": "function"
    },
    {
      "inputs": [],
      "name": "canAutoRelease",
      "outputs": [
        {
          "internalType": "bool",
          "name": "",
          "type": "bool"
        }
      ],
      "stateMutability": "view",
      "type": "function"
    },
    {
      "inputs": [],
      "name": "canConfirmStay",
      "outputs": [
        {
          "internalType": "bool",
          "name": "",
          "type": "bool"
        }
      ],
      "stateMutability": "view",
      "type": "function"
    },
    {
      "inputs": [],
      "name": "cancelBooking",
      "outputs": [],
      "stateMutability": "nonpayable",
      "type": "function"
    },
    {
      "inputs": [],
      "name": "checkIn",
      "outputs": [
        {
          "internalType": "uint256",
          "name": "",
          "type": "uint256"
        }
      ],
      "stateMutability": "view",
      "type": "function"
    },
    {
      "inputs": [],
      "name": "checkOut",
      "outputs": [
        {
          "internalType": "uint256",
          "name": "",
          "type": "uint256"
        }
      ],
      "stateMutability": "view",
      "type": "function"
    },
    {
      "inputs": [],
      "name": "confirmStay",
      "outputs": [],
      "stateMutability": "nonpayable",
      "type": "function"
    },
    {
      "inputs": [],
      "name": "confirmStayTimestamp",
      "outputs": [
        {
          "internalType": "uint256",
          "name": "",
          "type": "uint256"
        }
      ],
      "stateMutability": "view",
      "type": "function"
    },
    {
      "inputs": [],
      "name": "createdAt",
      "outputs": [
        {
          "internalType": "uint256",
          "name": "",
          "type": "uint256"
        }
      ],
      "stateMutability": "view",
      "type": "function"
    },
    {
      "inputs": [],
      "name": "getCheckInDayEnd",
      "outputs": [
        {
          "internalType": "uint256",
          "name": "",
          "type": "uint256"
        }
      ],
      "stateMutability": "view",
      "type": "function"
    },
    {
      "inputs": [],
      "name": "getCheckInDayStart",
      "outputs": [
        {
          "internalType": "uint256",
          "name": "",
          "type": "uint256"
        }
      ],
      "stateMutability": "view",
      "type": "function"
    },
    {
      "inputs": [],
      "name": "getDetails",
      "outputs": [
        {
          "internalType": "address",
          "name": "_traveler",
          "type": "address"
        },
        {
          "internalType": "address",
          "name": "_host",
          "type": "address"
        },
        {
          "internalType": "address",
          "name": "_token",
          "type": "address"
        },
        {
          "internalType": "uint256",
          "name": "_amount",
          "type": "uint256"
        },
        {
          "internalType": "uint256",
          "name": "_tokenId",
          "type": "uint256"
        },
        {
          "internalType": "uint256",
          "name": "_checkIn",
          "type": "uint256"
        },
        {
          "internalType": "uint256",
          "name": "_checkOut",
          "type": "uint256"
        },
        {
          "internalType": "enum TravelEscrow.Status",
          "name": "_status",
          "type": "uint8"
        },
        {
          "internalType": "enum TravelEscrow.PaymentPreference",
          "name": "_preference",
          "type": "uint8"
        },
        {
          "internalType": "bool",
          "name": "_withdrawn",
          "type": "bool"
        }
      ],
      "stateMutability": "view",
      "type": "function"
    },
    {
      "inputs": [],
      "name": "getRefundPercentage",
      "outputs": [
        {
          "internalType": "uint256",
          "name": "",
          "type": "uint256"
        }
      ],
      "stateMutability": "view",
      "type": "function"
    },
    {
      "inputs": [],
      "name": "host",
      "outputs": [
        {
          "internalType": "address",
          "name": "",
          "type": "address"
        }
      ],
      "stateMutability": "view",
      "type": "function"
    },
    {
      "inputs": [],
      "name": "hostPreference",
      "outputs": [
        {
          "internalType": "enum TravelEscrow.PaymentPreference",
          "name": "",
          "type": "uint8"
        }
      ],
      "stateMutability": "view",
      "type": "function"
    },
    {
      "inputs": [
        {
          "internalType": "bytes",
          "name": "signature",
          "type": "bytes"
        }
      ],
      "name": "initiateOffRamp",
      "outputs": [],
      "stateMutability": "nonpayable",
      "type": "function"
    },
    {
      "inputs": [
        {
          "internalType": "string",
          "name": "reason",
          "type": "string"
        }
      ],
      "name": "openDispute",
      "outputs": [],
      "stateMutability": "nonpayable",
      "type": "function"
    },
    {
      "inputs": [],
      "name": "platformFee",
      "outputs": [
        {
          "internalType": "uint256",
          "name": "",
          "type": "uint256"
        }
      ],
      "stateMutability": "view",
      "type": "function"
    },
    {
      "inputs": [],
      "name": "platformWallet",
      "outputs": [
        {
          "internalType": "address",
          "name": "",
          "type": "address"
        }
      ],
      "stateMutability": "view",
      "type": "function"
    },
    {
      "inputs": [],
      "name": "propertyNFT",
      "outputs": [
        {
          "internalType": "contract IPropertyNFT",
          "name": "",
          "type": "address"
        }
      ],
      "stateMutability": "view",
      "type": "function"
    },
    {
      "inputs": [
        {
          "internalType": "bool",
          "name": "refundToTraveler",
          "type": "bool"
        },
        {
          "internalType": "string",
          "name": "resolution",
          "type": "string"
        }
      ],
      "name": "resolveDispute",
      "outputs": [],
      "stateMutability": "nonpayable",
      "type": "function"
    },
    {
      "inputs": [
        {
          "internalType": "enum TravelEscrow.PaymentPreference",
          "name": "_preference",
          "type": "uint8"
        }
      ],
      "name": "setPaymentPreference",
      "outputs": [],
      "stateMutability": "nonpayable",
      "type": "function"
    },
    {
      "inputs": [],
      "name": "status",
      "outputs": [
        {
          "internalType": "enum TravelEscrow.Status",
          "name": "",
          "type": "uint8"
        }
      ],
      "stateMutability": "view",
      "type": "function"
    },
    {
      "inputs": [],
      "name": "token",
      "outputs": [
        {
          "internalType": "address",
          "name": "",
          "type": "address"
        }
      ],
      "stateMutability": "view",
      "type": "function"
    },
    {
      "inputs": [],
      "name": "tokenId",
      "outputs": [
        {
          "internalType": "uint256",
          "name": "",
          "type": "uint256"
        }
      ],
      "stateMutability": "view",
      "type": "function"
    },
    {
      "inputs": [],
      "name": "traveler",
      "outputs": [
        {
          "internalType": "address",
          "name": "",
          "type": "address"
        }
      ],
      "stateMutability": "view",
      "type": "function"
    },
    {
      "inputs": [],
      "name": "withdrawCrypto",
      "outputs": [],
      "stateMutability": "nonpayable",
      "type": "function"
    },
    {
      "inputs": [],
      "name": "withdrawn",
      "outputs": [
        {
          "internalType": "bool",
          "name": "",
          "type": "bool"
        }
      ],
      "stateMutability": "view",
      "type": "function"
    }
  ],
  "bytecode": "0x6102203461047457601f61205938819003918201601f19168301916001600160401b03831184841017610478578084926101a094604052833981010312610474576100498161048c565b6100556020830161048c565b916100626040820161048c565b60608201519260808301519161007a60a0850161048c565b9361008760c0820161048c565b9061009460e0820161048c565b6100a1610100830161048c565b90610120830151610140840151906101806101608601519501519560015f5560018060a01b0389169a8b158015610463575b8015610452575b8015610441575b8015610430575b801561041f575b801561040e575b6103ff578c1580156103f5575b6103e657428711156103d757868811156103d7577f79d907e3074eeeb788ae5d817e525560dfdf91829a8cb9226187a44fc4aa52d69a8e60609b60805260a05289610100528d610120526101405260e05260c0526001549360018060a01b031661016052610180526101a052826101c052836101e0526301000000600160b81b039060181b169062ff0001600160b81b0319161760015542610200526040519687526020870152604086015260018060a01b03169460018060a01b031693a4604051611bb890816104a182396080518181816101fd015281816107f9015281816109f401528181610dcb0152818161125c015261149a015260a051818181610229015281816103e0015281816105930152818161090001528181610b1d01528181610cf5015281816110e901528181611116015281816113510152611458015260c0518181816103a901526106f7015260e0518181816103650152818161085101528181610c2f01528181610f4a01526119900152610100518181816101af01528181610258015281816104dd015281816108200152818161087a0152818161092701528181610adf01528181610f1c01528181610f730152818161113f0152818161117701526119b901526101205181818161027f015281816104ad015281816106890152818161079001528181610a9001528181610e8501526113fb01526101405181818161048c0152818161076a01528181610ab201528181610e60015281816113da01528181611680015261196f015261016051818181610fa2015261157c0152610180518181816102a501528181610fe1015261174301526101a051818181611007015261177d01526101c0518181816102cb01528181610e190152818161128b015281816114e0015281816115b701528181611636015281816117090152818161184001526118e001526101e0518181816102f10152818161060a01526112b2015261020051816105cf0152f35b63364dd21b60e21b5f5260045ffd5b63162908e360e11b5f5260045ffd5b508c8b1015610103565b63e6c4247b60e01b5f5260045ffd5b506001600160a01b038616156100f6565b506001600160a01b038516156100ef565b506001600160a01b038216156100e8565b506001600160a01b038116156100e1565b506001600160a01b038916156100da565b506001600160a01b038e16156100d3565b5f80fd5b634e487b7160e01b5f52604160045260245ffd5b51906001600160a01b03821682036104745756fe60806040526004361015610011575f80fd5b5f5f3560e01c806306c176d8146117a057806311cc82d81461176657806317d70f7c1461172c578063183ff085146116f25780631c5097e8146116ca578063200d2ed2146116a357806326232a2e14611669578063298102a9146115e25780633624b67b146115a057806337f768381461155d5780633937329514611480578063522587cd14611393578063534564b514611379578063595210ad1461120d578063635caa7c14610db857806365d65e8614610d8e57806370a853b014610ccd57806374f0314f14610caf5780637c3970b914610a185780637d097bca146109d457806380cbc6fa146109b65780638429caaf1461099357806393dd201d146106ac578063aa8c217c14610671578063c5a76bf914610653578063c80ec5221461062d578063cba5751c146105f2578063cf09e0d0146105b7578063f437bc5914610573578063f6d1af07146103cd578063f851a44014610389578063fa2af9da14610345578063fbbf93a0146101d65763fc0c546a14610190575f80fd5b346101d357806003193601126101d35760206040516001600160a01b037f0000000000000000000000000000000000000000000000000000000000000000168152f35b80fd5b50346101d357806003193601126101d35761014060015460ff604051916001600160a01b037f00000000000000000000000000000000000000000000000000000000000000001683526001600160a01b037f00000000000000000000000000000000000000000000000000000000000000001660208401526001600160a01b037f00000000000000000000000000000000000000000000000000000000000000001660408401527f000000000000000000000000000000000000000000000000000000000000000060608401527f000000000000000000000000000000000000000000000000000000000000000060808401527f000000000000000000000000000000000000000000000000000000000000000060a08401527f000000000000000000000000000000000000000000000000000000000000000060c084015261032460e084018383166117f3565b6103376101008401838360081c166117e6565b60101c161515610120820152f35b50346101d357806003193601126101d35760206040516001600160a01b037f0000000000000000000000000000000000000000000000000000000000000000168152f35b50346101d357806003193601126101d35760206040516001600160a01b037f0000000000000000000000000000000000000000000000000000000000000000168152f35b50346101d357806003193601126101d3577f00000000000000000000000000000000000000000000000000000000000000006001600160a01b038116908133036105655760ff600154166005811015610551576001036105425761042f61193b565b60015460ff8160101c166105335760ff8160081c16600281101561051f576105105762ff0000191662010000176001557f06be29915f11b3a7e3fe5845976caaf2eb43e74cb3c2b192ad73d65a7048159a906020906105026104d17f00000000000000000000000000000000000000000000000000000000000000007f000000000000000000000000000000000000000000000000000000000000000061182e565b80926001600160a01b037f0000000000000000000000000000000000000000000000000000000000000000166119e0565b604051908152a26001815580f35b637241ed5960e11b8452600484fd5b634e487b7160e01b85526021600452602485fd5b636507689f60e01b8452600484fd5b6307a92f1960e51b8352600483fd5b634e487b7160e01b84526021600452602484fd5b6282b42960e81b8352600483fd5b50346101d357806003193601126101d35760206040516001600160a01b037f0000000000000000000000000000000000000000000000000000000000000000168152f35b50346101d357806003193601126101d35760206040517f00000000000000000000000000000000000000000000000000000000000000008152f35b50346101d357806003193601126101d35760206040517f00000000000000000000000000000000000000000000000000000000000000008152f35b50346101d357806003193601126101d357602060ff60015460101c166040519015158152f35b50346101d357806003193601126101d3576020600254604051908152f35b50346101d357806003193601126101d35760206040517f00000000000000000000000000000000000000000000000000000000000000008152f35b50346101d35760403660031901126101d35760043580151580820361098f5760243567ffffffffffffffff811161098b576106eb903690600401611800565b91906001600160a01b037f0000000000000000000000000000000000000000000000000000000000000000169384330361097d5760ff6001541660058110156109695760040361095a577f0f09b818d85006e6a9ac36867b312a0efab70c81d22c4a762211a321352f5e4393929161089f6108b89261076861193b565b7f0000000000000000000000000000000000000000000000000000000000000000906107b4827f000000000000000000000000000000000000000000000000000000000000000061182e565b90156108c2576107cc600260ff196001541617600155565b7fbada1a1bf129e41a8af5abe00997bd8a8cb1770cb0cf68314eb4b1d6c427139760206001600160a01b037f00000000000000000000000000000000000000000000000000000000000000006108458582847f0000000000000000000000000000000000000000000000000000000000000000166119e0565b6040519485521692a25b7f00000000000000000000000000000000000000000000000000000000000000006001600160a01b037f0000000000000000000000000000000000000000000000000000000000000000166119e0565b6040519384938452604060208501526040840191611888565b0390a26001815580f35b6108d3600160ff1981541617600155565b7f06be29915f11b3a7e3fe5845976caaf2eb43e74cb3c2b192ad73d65a7048159a60206001600160a01b037f000000000000000000000000000000000000000000000000000000000000000061094c8582847f0000000000000000000000000000000000000000000000000000000000000000166119e0565b6040519485521692a261084f565b6307a92f1960e51b8652600486fd5b634e487b7160e01b87526021600452602487fd5b6282b42960e81b8652600486fd5b8380fd5b8280fd5b50346101d357806003193601126101d35760206109ae6118de565b604051908152f35b50346101d357806003193601126101d357602060405162093a808152f35b50346101d357806003193601126101d35760206040516001600160a01b037f0000000000000000000000000000000000000000000000000000000000000000168152f35b50346101d35760203660031901126101d35760043567ffffffffffffffff8111610cab57610a4a903690600401611800565b9060ff6001541660058110156105515760010361054257610a6961193b565b60015460ff8160101c166105335760ff8160081c16600281101561051f57600103610510577f0000000000000000000000000000000000000000000000000000000000000000907f000000000000000000000000000000000000000000000000000000000000000092610adc848461182e565b947f00000000000000000000000000000000000000000000000000000000000000009560405160208101913060601b83526bffffffffffffffffffffffff197f000000000000000000000000000000000000000000000000000000000000000060601b16603483015260488201526bffffffffffffffffffffffff198860601b166068820152605c8152610b71607c826118a8565b5190207f19457468657265756d205369676e6564204d6573736167653a0a3332000000008852601c52603c872067ffffffffffffffff8211610c975760405190610bc5601f8401601f1916602001836118a8565b8282528836848601116101d357602084610bea95610bf3978387013784010152611a66565b90929192611aa0565b6001600160a01b03808360181c16911603610c885762ff000019166201000017600155610c5591610c239161182e565b80926001600160a01b037f000000000000000000000000000000000000000000000000000000000000000091166119e0565b6040519081527f293f255456d26a074d7c049d0bb8fead59b6716271743fd534e9275f94a33eb260203392a26001815580f35b638baa579f60e01b8552600485fd5b634e487b7160e01b88526041600452602488fd5b5080fd5b50346101d357806003193601126101d3576020604051620151808152f35b50346101d35760203660031901126101d3576004356002811015610cab576001600160a01b037f0000000000000000000000000000000000000000000000000000000000000000163303610d805760015460ff8160101c16610d71577fc2f7fcbade62f066a324393c61284cb93780f6bf65167e97225749420c275c1f9160209161ff008260081b169061ff00191617600155610d6d60405180926117e6565ba180f35b636507689f60e01b8352600483fd5b6282b42960e81b8252600482fd5b50346101d357806003193601126101d35760206001600160a01b0360015460181c16604051908152f35b503461108c575f36600319011261108c577f00000000000000000000000000000000000000000000000000000000000000006001600160a01b038116908133036111ff5760ff6001541660058110156111eb576111dc57610e1761193b565b7f0000000000000000000000000000000000000000000000000000000000000000804210156111cd57610e4f6201518091429061182e565b04601e8111156111b757506064905b7f0000000000000000000000000000000000000000000000000000000000000000610ea9817f000000000000000000000000000000000000000000000000000000000000000061182e565b838102908082048514811517156111a357610f98936064879304610ecd818461182e565b6064880361109057505081610f417fbada1a1bf129e41a8af5abe00997bd8a8cb1770cb0cf68314eb4b1d6c427139793602093610f12600260ff196001541617600155565b6001600160a01b037f0000000000000000000000000000000000000000000000000000000000000000166119e0565b604051908152a27f00000000000000000000000000000000000000000000000000000000000000006001600160a01b037f0000000000000000000000000000000000000000000000000000000000000000166119e0565b6001600160a01b037f000000000000000000000000000000000000000000000000000000000000000016803b1561108c575f8091604460405180948193633222920560e01b83527f000000000000000000000000000000000000000000000000000000000000000060048401527f000000000000000000000000000000000000000000000000000000000000000060248401525af180156110815761106b575b5060207f0cd4c6117ddfc1a291c7d6eba5e6bd21e20a0ec6d4b586d8b5178fa1bf918c2191604051908152a26001815580f35b6110789193505f906118a8565b5f916020611038565b6040513d5f823e3d90fd5b5f80fd5b92509250600360ff1960015416176001558280611169575b505080611110575b6040519182526020820152847f8c178c394fac5125ae87e0739c87d8d8740541252007a25ae4f1da0fb92ff23160406001600160a01b037f00000000000000000000000000000000000000000000000000000000000000001693a361084f565b611164817f00000000000000000000000000000000000000000000000000000000000000006001600160a01b037f0000000000000000000000000000000000000000000000000000000000000000166119e0565b6110b0565b61119c916001600160a01b037f0000000000000000000000000000000000000000000000000000000000000000166119e0565b5f826110a8565b634e487b7160e01b5f52601160045260245ffd5b600e116111c657603290610e5e565b5f90610e5e565b630136f45f60e01b5f5260045ffd5b6307a92f1960e51b5f5260045ffd5b634e487b7160e01b5f52602160045260245ffd5b6282b42960e81b5f5260045ffd5b3461108c57602036600319011261108c5760043567ffffffffffffffff811161108c5761123e903690600401611800565b9060ff6001541660058110156111eb576111dc576001600160a01b037f00000000000000000000000000000000000000000000000000000000000000001633141580611346575b6111ff577f000000000000000000000000000000000000000000000000000000000000000042106111cd577f000000000000000000000000000000000000000000000000000000000000000062093a8081018091116111a3574211611337576113287f94c0f75bd6baffaf98eea077945951d4fc116cea48682d0ce0f5b397c431020491600460ff19600154161760015560405193604085526040850191611888565b914260208201528033930390a2005b63234c0ffd60e21b5f5260045ffd5b506001600160a01b037f000000000000000000000000000000000000000000000000000000000000000016331415611285565b3461108c575f36600319011261108c5760206109ae61183b565b3461108c575f36600319011261108c5760ff6001541660058110156111eb576111dc576113be61193b565b6113c661183b565b4211156111cd576113d5611959565b61141f7f00000000000000000000000000000000000000000000000000000000000000007f000000000000000000000000000000000000000000000000000000000000000061182e565b6040519081524260208201527fbb1680b95eb268387a1c09df5bd10c781ef2c772ac79b5493478f399c30e2a5f60406001600160a01b037f00000000000000000000000000000000000000000000000000000000000000001692a260015f55005b3461108c575f36600319011261108c576001600160a01b037f00000000000000000000000000000000000000000000000000000000000000001633036111ff5760ff6001541660058110156111eb576111dc576114db61193b565b61150b7f00000000000000000000000000000000000000000000000000000000000000006201518081069061182e565b42106111cd5761151961183b565b4211611337574260025561152b611959565b6040514281527f39b52e81a49fbf21207a84d87fb08c3b8f0666aaf7368fec9ecd112101b92ab160203392a260015f55005b3461108c575f36600319011261108c5760206040516001600160a01b037f0000000000000000000000000000000000000000000000000000000000000000168152f35b3461108c575f36600319011261108c5760206109ae7f00000000000000000000000000000000000000000000000000000000000000006201518081069061182e565b3461108c575f36600319011261108c5760ff6001541660058110156111eb571580611630575b8061161b575b6020906040519015158152f35b50602061162661183b565b421115905061160e565b506116617f00000000000000000000000000000000000000000000000000000000000000006201518081069061182e565b421015611608565b3461108c575f36600319011261108c5760206040517f00000000000000000000000000000000000000000000000000000000000000008152f35b3461108c575f36600319011261108c57602060ff600154166116c860405180926117f3565bf35b3461108c575f36600319011261108c57602060ff60015460081c166116c860405180926117e6565b3461108c575f36600319011261108c5760206040517f00000000000000000000000000000000000000000000000000000000000000008152f35b3461108c575f36600319011261108c5760206040517f00000000000000000000000000000000000000000000000000000000000000008152f35b3461108c575f36600319011261108c5760206040517f00000000000000000000000000000000000000000000000000000000000000008152f35b3461108c575f36600319011261108c5760ff6001541660058110156111eb5715806117d2576020906040519015158152f35b5060206117dd61183b565b4211905061160e565b9060028210156111eb5752565b9060058210156111eb5752565b9181601f8401121561108c5782359167ffffffffffffffff831161108c576020838186019501011161108c57565b919082039182116111a357565b61186b7f00000000000000000000000000000000000000000000000000000000000000006201518081069061182e565b620151808101908181116111a3576201517f019081116111a35790565b908060209392818452848401375f828201840152601f01601f1916010190565b90601f8019910116810190811067ffffffffffffffff8211176118ca57604052565b634e487b7160e01b5f52604160045260245ffd5b7f000000000000000000000000000000000000000000000000000000000000000080421015611936576119166201518091429061182e565b04601e811161193057600e111561192b575f90565b603290565b50606490565b505f90565b60025f541461194a5760025f55565b633ee5aeb560e01b5f5260045ffd5b61196a600160ff1981541617600155565b6119de7f00000000000000000000000000000000000000000000000000000000000000007f00000000000000000000000000000000000000000000000000000000000000006001600160a01b037f0000000000000000000000000000000000000000000000000000000000000000166119e0565b565b916020915f91604051906001600160a01b038583019363a9059cbb60e01b8552166024830152604482015260448152611a1a6064826118a8565b519082855af115611081575f513d611a5d57506001600160a01b0381163b155b611a415750565b6001600160a01b0390635274afe760e01b5f521660045260245ffd5b60011415611a3a565b8151919060418303611a9657611a8f9250602082015190606060408401519301515f1a90611b00565b9192909190565b50505f9160029190565b60048110156111eb5780611ab2575050565b60018103611ac95763f645eedf60e01b5f5260045ffd5b60028103611ae4575063fce698f760e01b5f5260045260245ffd5b600314611aee5750565b6335e2f38360e21b5f5260045260245ffd5b91907f7fffffffffffffffffffffffffffffff5d576e7357a4501ddfe92f46681b20a08411611b77579160209360809260ff5f9560405194855216868401526040830152606082015282805260015afa15611081575f516001600160a01b03811615611b6d57905f905f90565b505f906001905f90565b5050505f916003919056fea2646970667358221220ae38e1721e36b3ea6e95ba344bdfbacdea5b98fd9f3878d187962070737d665664736f6c634300081c0033",
  "linkReferences": {},
  "deployedLinkReferences": {},
  "immutableReferences": {
    "20294": [
      {
        "length": 32,
        "start": 509
      },
      {
        "length": 32,
        "start": 2041
      },
      {
        "length": 32,
        "start": 2548
      },
      {
        "length": 32,
        "start": 3531
      },
      {
        "length": 32,
        "start": 4700
      },
      {
        "length": 32,
        "start": 5274
      }
    ],
    "20296": [
      {
        "length": 32,
        "start": 553
      },
      {
        "length": 32,
        "start": 992
      },
      {
        "length": 32,
        "start": 1427
      },
      {
        "length": 32,
        "start": 2304
      },
      {
        "length": 32,
        "start": 2845
      },
      {
        "length": 32,
        "start": 3317
      },
      {
        "length": 32,
        "start": 4329
      },
      {
        "length": 32,
        "start": 4374
      },
      {
        "length": 32,
        "start": 4945
      },
      {
        "length": 32,
        "start": 5208
      }
    ],
    "20298": [
      {
        "length": 32,
        "start": 937
      },
      {
        "length": 32,
        "start": 1783
      }
    ],
    "20300": [
      {
        "length": 32,
        "start": 869
      },
      {
        "length": 32,
        "start": 2129
      },
      {
        "length": 32,
        "start": 3119
      },
      {
        "length": 32,
        "start": 3914
      },
      {
        "length": 32,
        "start": 6544
      }
    ],
    "20302": [
      {
        "length": 32,
        "start": 431
      },
      {
        "length": 32,
        "start": 600
      },
      {
        "length": 32,
        "start": 1245
      },
      {
        "length": 32,
        "start": 2080
      },
      {
        "length": 32,
        "start": 2170
      },
      {
        "length": 32,
        "start": 2343
      },
      {
        "length": 32,
        "start": 2783
      },
      {
        "length": 32,
        "start": 3868
      },
      {
        "length": 32,
        "start": 3955
      },
      {
        "length": 32,
        "start": 4415
      },
      {
        "length": 32,
        "start": 4471
      },
      {
        "length": 32,
        "start": 6585
      }
    ],
    "20304": [
      {
        "length": 32,
        "start": 639
      },
      {
        "length": 32,
        "start": 1197
      },
      {
        "length": 32,
        "start": 1673
      },
      {
        "length": 32,
        "start": 1936
      },
      {
        "length": 32,
        "start": 2704
      },
      {
        "length": 32,
        "start": 3717
      },
      {
        "length": 32,
        "start": 5115
      }
    ],
    "20306": [
      {
        "length": 32,
        "start": 1164
      },
      {
        "length": 32,
        "start": 1898
      },
      {
        "length": 32,
        "start": 2738
      },
      {
        "length": 32,
        "start": 3680
      },
      {
        "length": 32,
        "start": 5082
      },
      {
        "length": 32,
        "start": 5760
      },
      {
        "length": 32,
        "start": 6511
      }
    ],
    "20309": [
      {
        "length": 32,
        "start": 4002
      },
      {
        "length": 32,
        "start": 5500
      }
    ],
    "20311": [
      {
        "length": 32,
        "start": 677
      },
      {
        "length": 32,
        "start": 4065
      },
      {
        "length": 32,
        "start": 5955
      }
    ],
    "20313": [
      {
        "length": 32,
        "start": 4103
      },
      {
        "length": 32,
        "start": 6013
      }
    ],
    "20315": [
      {
        "length": 32,
        "start": 715
      },
      {
        "length": 32,
        "start": 3609
      },
      {
        "length": 32,
        "start": 4747
      },
      {
        "length": 32,
        "start": 5344
      },
      {
        "length": 32,
        "start": 5559
      },
      {
        "length": 32,
        "start": 5686
      },
      {
        "length": 32,
        "start": 5897
      },
      {
        "length": 32,
        "start": 6208
      },
      {
        "length": 32,
        "start": 6368
      }
    ],
    "20317": [
      {
        "length": 32,
        "start": 753
      },
      {
        "length": 32,
        "start": 1546
      },
      {
        "length": 32,
        "start": 4786
      }
    ],
    "20335": [
      {
        "length": 32,
        "start": 1487
      }
    ]
  },
  "inputSourceName": "project/contracts/TravelEscrow.sol",
  "buildInfoId": "solc-0_8_28-9be858c416b54f5d1380fa532677f13182b2298c"
}