{
  "_format": "hh3-artifact-1",
  "contractName": "TravelEscrow",
  "sourceName": "contracts/TravelEscrow.sol",
  "abi": [
    {
      "inputs": [
        {
          "internalType": "address",
          "name": "_traveler",
          "type": "address"
        },
        {
          "internalType": "address",
          "name": "_host",
          "type": "address"
        },
        {
          "internalType": "address",
          "name": "_token",
          "type": "address"
        },
        {
          "internalType": "uint256",
          "name": "_amount",
          "type": "uint256"
        },
        {
          "internalType": "uint256",
          "name": "_platformFee",
          "type": "uint256"
        },
        {
          "internalType": "address",
          "name": "_platformWallet",
          "type": "address"
        },
        {
          "internalType": "address",
          "name": "_admin",
          "type": "address"
        },
        {
          "internalType": "address",
          "name": "_backendSigner",
          "type": "address"
        },
        {
          "internalType": "address",
          "name": "_propertyNFT",
          "type": "address"
        },
        {
          "internalType": "uint256",
          "name": "_tokenId",
          "type": "uint256"
        },
        {
          "internalType": "uint256",
          "name": "_bookingIndex",
          "type": "uint256"
        },
        {
          "internalType": "uint256",
          "name": "_checkIn",
          "type": "uint256"
        },
        {
          "internalType": "uint256",
          "name": "_checkOut",
          "type": "uint256"
        }
      ],
      "stateMutability": "nonpayable",
      "type": "constructor"
    },
    {
      "inputs": [],
      "name": "AlreadyWithdrawn",
      "type": "error"
    },
    {
      "inputs": [],
      "name": "DisputeWindowExpired",
      "type": "error"
    },
    {
      "inputs": [],
      "name": "ECDSAInvalidSignature",
      "type": "error"
    },
    {
      "inputs": [
        {
          "internalType": "uint256",
          "name": "length",
          "type": "uint256"
        }
      ],
      "name": "ECDSAInvalidSignatureLength",
      "type": "error"
    },
    {
      "inputs": [
        {
          "internalType": "bytes32",
          "name": "s",
          "type": "bytes32"
        }
      ],
      "name": "ECDSAInvalidSignatureS",
      "type": "error"
    },
    {
      "inputs": [],
      "name": "InvalidAddress",
      "type": "error"
    },
    {
      "inputs": [],
      "name": "InvalidAmount",
      "type": "error"
    },
    {
      "inputs": [],
      "name": "InvalidDates",
      "type": "error"
    },
    {
      "inputs": [],
      "name": "InvalidSignature",
      "type": "error"
    },
    {
      "inputs": [],
      "name": "InvalidStatus",
      "type": "error"
    },
    {
      "inputs": [],
      "name": "ReentrancyGuardReentrantCall",
      "type": "error"
    },
    {
      "inputs": [
        {
          "internalType": "address",
          "name": "token",
          "type": "address"
        }
      ],
      "name": "SafeERC20FailedOperation",
      "type": "error"
    },
    {
      "inputs": [],
      "name": "TooEarlyForAction",
      "type": "error"
    },
    {
      "inputs": [],
      "name": "Unauthorized",
      "type": "error"
    },
    {
      "inputs": [],
      "name": "UnsupportedCurrency",
      "type": "error"
    },
    {
      "inputs": [],
      "name": "WrongPaymentPreference",
      "type": "error"
    },
    {
      "anonymous": false,
      "inputs": [
        {
          "indexed": true,
          "internalType": "address",
          "name": "host",
          "type": "address"
        },
        {
          "indexed": false,
          "internalType": "uint256",
          "name": "amount",
          "type": "uint256"
        },
        {
          "indexed": false,
          "internalType": "uint256",
          "name": "timestamp",
          "type": "uint256"
        }
      ],
      "name": "AutoReleased",
      "type": "event"
    },
    {
      "anonymous": false,
      "inputs": [
        {
          "indexed": true,
          "internalType": "address",
          "name": "backend",
          "type": "address"
        },
        {
          "indexed": false,
          "internalType": "uint256",
          "name": "amount",
          "type": "uint256"
        }
      ],
      "name": "BackendInitiatedOffRamp",
      "type": "event"
    },
    {
      "anonymous": false,
      "inputs": [
        {
          "indexed": true,
          "internalType": "address",
          "name": "traveler",
          "type": "address"
        },
        {
          "indexed": false,
          "internalType": "uint256",
          "name": "refundPercent",
          "type": "uint256"
        }
      ],
      "name": "CancellationProcessed",
      "type": "event"
    },
    {
      "anonymous": false,
      "inputs": [
        {
          "indexed": true,
          "internalType": "address",
          "name": "initiator",
          "type": "address"
        },
        {
          "indexed": false,
          "internalType": "string",
          "name": "reason",
          "type": "string"
        },
        {
          "indexed": false,
          "internalType": "uint256",
          "name": "timestamp",
          "type": "uint256"
        }
      ],
      "name": "DisputeOpened",
      "type": "event"
    },
    {
      "anonymous": false,
      "inputs": [
        {
          "indexed": false,
          "internalType": "bool",
          "name": "refunded",
          "type": "bool"
        },
        {
          "indexed": true,
          "internalType": "address",
          "name": "resolvedBy",
          "type": "address"
        },
        {
          "indexed": false,
          "internalType": "string",
          "name": "resolution",
          "type": "string"
        }
      ],
      "name": "DisputeResolved",
      "type": "event"
    },
    {
      "anonymous": false,
      "inputs": [
        {
          "indexed": true,
          "internalType": "address",
          "name": "traveler",
          "type": "address"
        },
        {
          "indexed": true,
          "internalType": "address",
          "name": "host",
          "type": "address"
        },
        {
          "indexed": true,
          "internalType": "address",
          "name": "token",
          "type": "address"
        },
        {
          "indexed": false,
          "internalType": "uint256",
          "name": "amount",
          "type": "uint256"
        },
        {
          "indexed": false,
          "internalType": "uint256",
          "name": "checkIn",
          "type": "uint256"
        },
        {
          "indexed": false,
          "internalType": "uint256",
          "name": "checkOut",
          "type": "uint256"
        }
      ],
      "name": "FundsLocked",
      "type": "event"
    },
    {
      "anonymous": false,
      "inputs": [
        {
          "indexed": true,
          "internalType": "address",
          "name": "traveler",
          "type": "address"
        },
        {
          "indexed": false,
          "internalType": "uint256",
          "name": "amount",
          "type": "uint256"
        }
      ],
      "name": "FundsRefunded",
      "type": "event"
    },
    {
      "anonymous": false,
      "inputs": [
        {
          "indexed": true,
          "internalType": "address",
          "name": "host",
          "type": "address"
        },
        {
          "indexed": false,
          "internalType": "uint256",
          "name": "amount",
          "type": "uint256"
        }
      ],
      "name": "HostWithdrewCrypto",
      "type": "event"
    },
    {
      "anonymous": false,
      "inputs": [
        {
          "indexed": true,
          "internalType": "address",
          "name": "traveler",
          "type": "address"
        },
        {
          "indexed": true,
          "internalType": "address",
          "name": "host",
          "type": "address"
        },
        {
          "indexed": false,
          "internalType": "uint256",
          "name": "travelerAmount",
          "type": "uint256"
        },
        {
          "indexed": false,
          "internalType": "uint256",
          "name": "hostAmount",
          "type": "uint256"
        }
      ],
      "name": "PartialRefund",
      "type": "event"
    },
    {
      "anonymous": false,
      "inputs": [
        {
          "indexed": false,
          "internalType": "enum TravelEscrow.PaymentPreference",
          "name": "preference",
          "type": "uint8"
        }
      ],
      "name": "PaymentPreferenceSet",
      "type": "event"
    },
    {
      "anonymous": false,
      "inputs": [
        {
          "indexed": true,
          "internalType": "address",
          "name": "traveler",
          "type": "address"
        },
        {
          "indexed": false,
          "internalType": "uint256",
          "name": "timestamp",
          "type": "uint256"
        }
      ],
      "name": "StayConfirmed",
      "type": "event"
    },
    {
      "inputs": [],
      "name": "AUTO_RELEASE_DELAY",
      "outputs": [
        {
          "internalType": "uint256",
          "name": "",
          "type": "uint256"
        }
      ],
      "stateMutability": "view",
      "type": "function"
    },
    {
      "inputs": [],
      "name": "GUEST_GRACE_PERIOD",
      "outputs": [
        {
          "internalType": "uint256",
          "name": "",
          "type": "uint256"
        }
      ],
      "stateMutability": "view",
      "type": "function"
    },
    {
      "inputs": [],
      "name": "MAX_DISPUTE_WINDOW",
      "outputs": [
        {
          "internalType": "uint256",
          "name": "",
          "type": "uint256"
        }
      ],
      "stateMutability": "view",
      "type": "function"
    },
    {
      "inputs": [],
      "name": "admin",
      "outputs": [
        {
          "internalType": "address",
          "name": "",
          "type": "address"
        }
      ],
      "stateMutability": "view",
      "type": "function"
    },
    {
      "inputs": [],
      "name": "amount",
      "outputs": [
        {
          "internalType": "uint256",
          "name": "",
          "type": "uint256"
        }
      ],
      "stateMutability": "view",
      "type": "function"
    },
    {
      "inputs": [],
      "name": "autoReleaseToHost",
      "outputs": [],
      "stateMutability": "nonpayable",
      "type": "function"
    },
    {
      "inputs": [],
      "name": "backendSigner",
      "outputs": [
        {
          "internalType": "address",
          "name": "",
          "type": "address"
        }
      ],
      "stateMutability": "view",
      "type": "function"
    },
    {
      "inputs": [],
      "name": "bookingIndex",
      "outputs": [
        {
          "internalType": "uint256",
          "name": "",
          "type": "uint256"
        }
      ],
      "stateMutability": "view",
      "type": "function"
    },
    {
      "inputs": [],
      "name": "canAutoRelease",
      "outputs": [
        {
          "internalType": "bool",
          "name": "",
          "type": "bool"
        }
      ],
      "stateMutability": "view",
      "type": "function"
    },
    {
      "inputs": [],
      "name": "canConfirmStay",
      "outputs": [
        {
          "internalType": "bool",
          "name": "",
          "type": "bool"
        }
      ],
      "stateMutability": "view",
      "type": "function"
    },
    {
      "inputs": [],
      "name": "cancelBooking",
      "outputs": [],
      "stateMutability": "nonpayable",
      "type": "function"
    },
    {
      "inputs": [],
      "name": "checkIn",
      "outputs": [
        {
          "internalType": "uint256",
          "name": "",
          "type": "uint256"
        }
      ],
      "stateMutability": "view",
      "type": "function"
    },
    {
      "inputs": [],
      "name": "checkOut",
      "outputs": [
        {
          "internalType": "uint256",
          "name": "",
          "type": "uint256"
        }
      ],
      "stateMutability": "view",
      "type": "function"
    },
    {
      "inputs": [],
      "name": "confirmStay",
      "outputs": [],
      "stateMutability": "nonpayable",
      "type": "function"
    },
    {
      "inputs": [],
      "name": "confirmStayTimestamp",
      "outputs": [
        {
          "internalType": "uint256",
          "name": "",
          "type": "uint256"
        }
      ],
      "stateMutability": "view",
      "type": "function"
    },
    {
      "inputs": [],
      "name": "createdAt",
      "outputs": [
        {
          "internalType": "uint256",
          "name": "",
          "type": "uint256"
        }
      ],
      "stateMutability": "view",
      "type": "function"
    },
    {
      "inputs": [],
      "name": "getDetails",
      "outputs": [
        {
          "internalType": "address",
          "name": "_traveler",
          "type": "address"
        },
        {
          "internalType": "address",
          "name": "_host",
          "type": "address"
        },
        {
          "internalType": "address",
          "name": "_token",
          "type": "address"
        },
        {
          "internalType": "uint256",
          "name": "_amount",
          "type": "uint256"
        },
        {
          "internalType": "uint256",
          "name": "_tokenId",
          "type": "uint256"
        },
        {
          "internalType": "uint256",
          "name": "_checkIn",
          "type": "uint256"
        },
        {
          "internalType": "uint256",
          "name": "_checkOut",
          "type": "uint256"
        },
        {
          "internalType": "enum TravelEscrow.Status",
          "name": "_status",
          "type": "uint8"
        },
        {
          "internalType": "enum TravelEscrow.PaymentPreference",
          "name": "_preference",
          "type": "uint8"
        },
        {
          "internalType": "bool",
          "name": "_withdrawn",
          "type": "bool"
        }
      ],
      "stateMutability": "view",
      "type": "function"
    },
    {
      "inputs": [],
      "name": "getRefundPercentage",
      "outputs": [
        {
          "internalType": "uint256",
          "name": "",
          "type": "uint256"
        }
      ],
      "stateMutability": "view",
      "type": "function"
    },
    {
      "inputs": [],
      "name": "host",
      "outputs": [
        {
          "internalType": "address",
          "name": "",
          "type": "address"
        }
      ],
      "stateMutability": "view",
      "type": "function"
    },
    {
      "inputs": [],
      "name": "hostPreference",
      "outputs": [
        {
          "internalType": "enum TravelEscrow.PaymentPreference",
          "name": "",
          "type": "uint8"
        }
      ],
      "stateMutability": "view",
      "type": "function"
    },
    {
      "inputs": [
        {
          "internalType": "bytes",
          "name": "signature",
          "type": "bytes"
        }
      ],
      "name": "initiateOffRamp",
      "outputs": [],
      "stateMutability": "nonpayable",
      "type": "function"
    },
    {
      "inputs": [
        {
          "internalType": "string",
          "name": "reason",
          "type": "string"
        }
      ],
      "name": "openDispute",
      "outputs": [],
      "stateMutability": "nonpayable",
      "type": "function"
    },
    {
      "inputs": [],
      "name": "platformFee",
      "outputs": [
        {
          "internalType": "uint256",
          "name": "",
          "type": "uint256"
        }
      ],
      "stateMutability": "view",
      "type": "function"
    },
    {
      "inputs": [],
      "name": "platformWallet",
      "outputs": [
        {
          "internalType": "address",
          "name": "",
          "type": "address"
        }
      ],
      "stateMutability": "view",
      "type": "function"
    },
    {
      "inputs": [],
      "name": "propertyNFT",
      "outputs": [
        {
          "internalType": "contract IPropertyNFT",
          "name": "",
          "type": "address"
        }
      ],
      "stateMutability": "view",
      "type": "function"
    },
    {
      "inputs": [
        {
          "internalType": "bool",
          "name": "refundToTraveler",
          "type": "bool"
        },
        {
          "internalType": "string",
          "name": "resolution",
          "type": "string"
        }
      ],
      "name": "resolveDispute",
      "outputs": [],
      "stateMutability": "nonpayable",
      "type": "function"
    },
    {
      "inputs": [
        {
          "internalType": "enum TravelEscrow.PaymentPreference",
          "name": "_preference",
          "type": "uint8"
        }
      ],
      "name": "setPaymentPreference",
      "outputs": [],
      "stateMutability": "nonpayable",
      "type": "function"
    },
    {
      "inputs": [],
      "name": "status",
      "outputs": [
        {
          "internalType": "enum TravelEscrow.Status",
          "name": "",
          "type": "uint8"
        }
      ],
      "stateMutability": "view",
      "type": "function"
    },
    {
      "inputs": [],
      "name": "token",
      "outputs": [
        {
          "internalType": "address",
          "name": "",
          "type": "address"
        }
      ],
      "stateMutability": "view",
      "type": "function"
    },
    {
      "inputs": [],
      "name": "tokenId",
      "outputs": [
        {
          "internalType": "uint256",
          "name": "",
          "type": "uint256"
        }
      ],
      "stateMutability": "view",
      "type": "function"
    },
    {
      "inputs": [],
      "name": "traveler",
      "outputs": [
        {
          "internalType": "address",
          "name": "",
          "type": "address"
        }
      ],
      "stateMutability": "view",
      "type": "function"
    },
    {
      "inputs": [],
      "name": "withdrawCrypto",
      "outputs": [],
      "stateMutability": "nonpayable",
      "type": "function"
    },
    {
      "inputs": [],
      "name": "withdrawn",
      "outputs": [
        {
          "internalType": "bool",
          "name": "",
          "type": "bool"
        }
      ],
      "stateMutability": "view",
      "type": "function"
    }
  ],
  "bytecode": "0x6102203461047457601f611fda38819003918201601f19168301916001600160401b03831184841017610478578084926101a094604052833981010312610474576100498161048c565b6100556020830161048c565b916100626040820161048c565b60608201519260808301519161007a60a0850161048c565b9361008760c0820161048c565b9061009460e0820161048c565b6100a1610100830161048c565b90610120830151610140840151906101806101608601519501519560015f5560018060a01b0389169a8b158015610463575b8015610452575b8015610441575b8015610430575b801561041f575b801561040e575b6103ff578c1580156103f5575b6103e657428711156103d757868811156103d7577f79d907e3074eeeb788ae5d817e525560dfdf91829a8cb9226187a44fc4aa52d69a8e60609b60805260a05289610100528d610120526101405260e05260c0526001549360018060a01b031661016052610180526101a052826101c052836101e0526301000000600160b81b039060181b169062ff0001600160b81b0319161760015542610200526040519687526020870152604086015260018060a01b03169460018060a01b031693a4604051611b3990816104a182396080518181816101f60152818161080f01528181610a0a01528181610dc301528181611254015261149c015260a051818181610222015281816103d90152818161058c0152818161091601528181610b3301528181610ced015281816110e10152818161110e01528181611349015261145a015260c0518181816103a2015261070d015260e05181818161035e0152818161086701528181610c4501528181610f4201526119110152610100518181816101a801528181610251015281816104d601528181610836015281816108900152818161093d01528181610af501528181610f1401528181610f6b015281816111370152818161116f015261193a015261012051818181610278015281816104a60152818161069f015281816107a601528181610aa601528181610e7d01526113fd0152610140518181816104850152818161078001528181610ac801528181610e58015281816113dc0152818161161101526118f0015261016051818181610f9a015261156d01526101805181818161029e01528181610fd901526116d401526101a051818181610fff015261170e01526101c0518181816102c401528181610e11015281816112830152818161139e015281816114df015281816115c70152818161169a0152818161177f015261186101526101e0518181816102ea0152818161062001526112aa015261020051816105e50152f35b63364dd21b60e21b5f5260045ffd5b63162908e360e11b5f5260045ffd5b508c8b1015610103565b63e6c4247b60e01b5f5260045ffd5b506001600160a01b038616156100f6565b506001600160a01b038516156100ef565b506001600160a01b038216156100e8565b506001600160a01b038116156100e1565b506001600160a01b038916156100da565b506001600160a01b038e16156100d3565b5f80fd5b634e487b7160e01b5f52604160045260245ffd5b51906001600160a01b03821682036104745756fe6080806040526004361015610012575f80fd5b5f905f3560e01c90816306c176d81461174d5750806309499aa61461173157806311cc82d8146116f757806317d70f7c146116bd578063183ff085146116835780631c5097e81461165b578063200d2ed21461163457806326232a2e146115fa578063298102a91461159157806337f768381461154e5780633937329514611482578063522587cd14611371578063595210ad14611205578063635caa7c14610db057806365d65e8614610d8657806370a853b014610cc55780637c3970b914610a2e5780637d097bca146109ea57806380cbc6fa146109cc5780638429caaf146109a957806393dd201d146106c2578063aa8c217c14610687578063c5a76bf914610669578063c80ec52214610643578063cba5751c14610608578063cf09e0d0146105cd578063df65207d146105b0578063f437bc591461056c578063f6d1af07146103c6578063f851a44014610382578063fa2af9da1461033e578063fbbf93a0146101cf5763fc0c546a14610189575f80fd5b346101cc57806003193601126101cc5760206040516001600160a01b037f0000000000000000000000000000000000000000000000000000000000000000168152f35b80fd5b50346101cc57806003193601126101cc5761014060015460ff604051916001600160a01b037f00000000000000000000000000000000000000000000000000000000000000001683526001600160a01b037f00000000000000000000000000000000000000000000000000000000000000001660208401526001600160a01b037f00000000000000000000000000000000000000000000000000000000000000001660408401527f000000000000000000000000000000000000000000000000000000000000000060608401527f000000000000000000000000000000000000000000000000000000000000000060808401527f000000000000000000000000000000000000000000000000000000000000000060a08401527f000000000000000000000000000000000000000000000000000000000000000060c084015261031d60e084018383166117c1565b6103306101008401838360081c166117b4565b60101c161515610120820152f35b50346101cc57806003193601126101cc5760206040516001600160a01b037f0000000000000000000000000000000000000000000000000000000000000000168152f35b50346101cc57806003193601126101cc5760206040516001600160a01b037f0000000000000000000000000000000000000000000000000000000000000000168152f35b50346101cc57806003193601126101cc577f00000000000000000000000000000000000000000000000000000000000000006001600160a01b0381169081330361055e5760ff60015416600581101561054a5760010361053b576104286118bc565b60015460ff8160101c1661052c5760ff8160081c166002811015610518576105095762ff0000191662010000176001557f06be29915f11b3a7e3fe5845976caaf2eb43e74cb3c2b192ad73d65a7048159a906020906104fb6104ca7f00000000000000000000000000000000000000000000000000000000000000007f00000000000000000000000000000000000000000000000000000000000000006117fc565b80926001600160a01b037f000000000000000000000000000000000000000000000000000000000000000016611961565b604051908152a26001815580f35b637241ed5960e11b8452600484fd5b634e487b7160e01b85526021600452602485fd5b636507689f60e01b8452600484fd5b6307a92f1960e51b8352600483fd5b634e487b7160e01b84526021600452602484fd5b6282b42960e81b8352600483fd5b50346101cc57806003193601126101cc5760206040516001600160a01b037f0000000000000000000000000000000000000000000000000000000000000000168152f35b50346101cc57806003193601126101cc5760206040516138408152f35b50346101cc57806003193601126101cc5760206040517f00000000000000000000000000000000000000000000000000000000000000008152f35b50346101cc57806003193601126101cc5760206040517f00000000000000000000000000000000000000000000000000000000000000008152f35b50346101cc57806003193601126101cc57602060ff60015460101c166040519015158152f35b50346101cc57806003193601126101cc576020600254604051908152f35b50346101cc57806003193601126101cc5760206040517f00000000000000000000000000000000000000000000000000000000000000008152f35b50346101cc5760403660031901126101cc576004358015158082036109a55760243567ffffffffffffffff81116109a1576107019036906004016117ce565b91906001600160a01b037f000000000000000000000000000000000000000000000000000000000000000016938433036109935760ff60015416600581101561097f57600403610970577f0f09b818d85006e6a9ac36867b312a0efab70c81d22c4a762211a321352f5e439392916108b56108ce9261077e6118bc565b7f0000000000000000000000000000000000000000000000000000000000000000906107ca827f00000000000000000000000000000000000000000000000000000000000000006117fc565b90156108d8576107e2600260ff196001541617600155565b7fbada1a1bf129e41a8af5abe00997bd8a8cb1770cb0cf68314eb4b1d6c427139760206001600160a01b037f000000000000000000000000000000000000000000000000000000000000000061085b8582847f000000000000000000000000000000000000000000000000000000000000000016611961565b6040519485521692a25b7f00000000000000000000000000000000000000000000000000000000000000006001600160a01b037f000000000000000000000000000000000000000000000000000000000000000016611961565b6040519384938452604060208501526040840191611809565b0390a26001815580f35b6108e9600160ff1981541617600155565b7f06be29915f11b3a7e3fe5845976caaf2eb43e74cb3c2b192ad73d65a7048159a60206001600160a01b037f00000000000000000000000000000000000000000000000000000000000000006109628582847f000000000000000000000000000000000000000000000000000000000000000016611961565b6040519485521692a2610865565b6307a92f1960e51b8652600486fd5b634e487b7160e01b87526021600452602487fd5b6282b42960e81b8652600486fd5b8380fd5b8280fd5b50346101cc57806003193601126101cc5760206109c461185f565b604051908152f35b50346101cc57806003193601126101cc57602060405162093a808152f35b50346101cc57806003193601126101cc5760206040516001600160a01b037f0000000000000000000000000000000000000000000000000000000000000000168152f35b50346101cc5760203660031901126101cc5760043567ffffffffffffffff8111610cc157610a609036906004016117ce565b9060ff60015416600581101561054a5760010361053b57610a7f6118bc565b60015460ff8160101c1661052c5760ff8160081c16600281101561051857600103610509577f0000000000000000000000000000000000000000000000000000000000000000907f000000000000000000000000000000000000000000000000000000000000000092610af284846117fc565b947f00000000000000000000000000000000000000000000000000000000000000009560405160208101913060601b83526bffffffffffffffffffffffff197f000000000000000000000000000000000000000000000000000000000000000060601b16603483015260488201526bffffffffffffffffffffffff198860601b166068820152605c8152610b87607c82611829565b5190207f19457468657265756d205369676e6564204d6573736167653a0a3332000000008852601c52603c872067ffffffffffffffff8211610cad5760405190610bdb601f8401601f191660200183611829565b8282528836848601116101cc57602084610c0095610c099783870137840101526119e7565b90929192611a21565b6001600160a01b03808360181c16911603610c9e5762ff000019166201000017600155610c6b91610c39916117fc565b80926001600160a01b037f00000000000000000000000000000000000000000000000000000000000000009116611961565b6040519081527f293f255456d26a074d7c049d0bb8fead59b6716271743fd534e9275f94a33eb260203392a26001815580f35b638baa579f60e01b8552600485fd5b634e487b7160e01b88526041600452602488fd5b5080fd5b50346101cc5760203660031901126101cc576004356002811015610cc1576001600160a01b037f0000000000000000000000000000000000000000000000000000000000000000163303610d785760015460ff8160101c16610d69577fc2f7fcbade62f066a324393c61284cb93780f6bf65167e97225749420c275c1f9160209161ff008260081b169061ff00191617600155610d6560405180926117b4565ba180f35b636507689f60e01b8352600483fd5b6282b42960e81b8252600482fd5b50346101cc57806003193601126101cc5760206001600160a01b0360015460181c16604051908152f35b5034611084575f366003190112611084577f00000000000000000000000000000000000000000000000000000000000000006001600160a01b038116908133036111f75760ff6001541660058110156111e3576111d457610e0f6118bc565b7f0000000000000000000000000000000000000000000000000000000000000000804210156111c557610e47620151809142906117fc565b04601e8111156111af57506064905b7f0000000000000000000000000000000000000000000000000000000000000000610ea1817f00000000000000000000000000000000000000000000000000000000000000006117fc565b8381029080820485148115171561119b57610f90936064879304610ec581846117fc565b6064880361108857505081610f397fbada1a1bf129e41a8af5abe00997bd8a8cb1770cb0cf68314eb4b1d6c427139793602093610f0a600260ff196001541617600155565b6001600160a01b037f000000000000000000000000000000000000000000000000000000000000000016611961565b604051908152a27f00000000000000000000000000000000000000000000000000000000000000006001600160a01b037f000000000000000000000000000000000000000000000000000000000000000016611961565b6001600160a01b037f000000000000000000000000000000000000000000000000000000000000000016803b15611084575f8091604460405180948193633222920560e01b83527f000000000000000000000000000000000000000000000000000000000000000060048401527f000000000000000000000000000000000000000000000000000000000000000060248401525af1801561107957611063575b5060207f0cd4c6117ddfc1a291c7d6eba5e6bd21e20a0ec6d4b586d8b5178fa1bf918c2191604051908152a26001815580f35b6110709193505f90611829565b5f916020611030565b6040513d5f823e3d90fd5b5f80fd5b92509250600360ff1960015416176001558280611161575b505080611108575b6040519182526020820152847f8c178c394fac5125ae87e0739c87d8d8740541252007a25ae4f1da0fb92ff23160406001600160a01b037f00000000000000000000000000000000000000000000000000000000000000001693a3610865565b61115c817f00000000000000000000000000000000000000000000000000000000000000006001600160a01b037f000000000000000000000000000000000000000000000000000000000000000016611961565b6110a8565b611194916001600160a01b037f000000000000000000000000000000000000000000000000000000000000000016611961565b5f826110a0565b634e487b7160e01b5f52601160045260245ffd5b600e116111be57603290610e56565b5f90610e56565b630136f45f60e01b5f5260045ffd5b6307a92f1960e51b5f5260045ffd5b634e487b7160e01b5f52602160045260245ffd5b6282b42960e81b5f5260045ffd5b346110845760203660031901126110845760043567ffffffffffffffff8111611084576112369036906004016117ce565b9060ff6001541660058110156111e3576111d4576001600160a01b037f0000000000000000000000000000000000000000000000000000000000000000163314158061133e575b6111f7577f000000000000000000000000000000000000000000000000000000000000000042106111c5577f000000000000000000000000000000000000000000000000000000000000000062093a80810180911161119b57421161132f576113207f94c0f75bd6baffaf98eea077945951d4fc116cea48682d0ce0f5b397c431020491600460ff19600154161760015560405193604085526040850191611809565b914260208201528033930390a2005b63234c0ffd60e21b5f5260045ffd5b506001600160a01b037f00000000000000000000000000000000000000000000000000000000000000001633141561127d565b34611084575f3660031901126110845760ff6001541660058110156111e3576111d45761139c6118bc565b7f000000000000000000000000000000000000000000000000000000000000000061a8c0810180911161119b5742106111c5576113d76118da565b6114217f00000000000000000000000000000000000000000000000000000000000000007f00000000000000000000000000000000000000000000000000000000000000006117fc565b6040519081524260208201527fbb1680b95eb268387a1c09df5bd10c781ef2c772ac79b5493478f399c30e2a5f60406001600160a01b037f00000000000000000000000000000000000000000000000000000000000000001692a260015f55005b34611084575f366003190112611084576001600160a01b037f00000000000000000000000000000000000000000000000000000000000000001633036111f75760ff6001541660058110156111e3576111d4576114dd6118bc565b7f0000000000000000000000000000000000000000000000000000000000000000613840810180911161119b5742106111c5574260025561151c6118da565b6040514281527f39b52e81a49fbf21207a84d87fb08c3b8f0666aaf7368fec9ecd112101b92ab160203392a260015f55005b34611084575f3660031901126110845760206040516001600160a01b037f0000000000000000000000000000000000000000000000000000000000000000168152f35b34611084575f3660031901126110845760ff6001541660058110156111e35715806115c4575b6020906040519015158152f35b507f0000000000000000000000000000000000000000000000000000000000000000613840810180911161119b574210156115b7565b34611084575f3660031901126110845760206040517f00000000000000000000000000000000000000000000000000000000000000008152f35b34611084575f36600319011261108457602060ff6001541661165960405180926117c1565bf35b34611084575f36600319011261108457602060ff60015460081c1661165960405180926117b4565b34611084575f3660031901126110845760206040517f00000000000000000000000000000000000000000000000000000000000000008152f35b34611084575f3660031901126110845760206040517f00000000000000000000000000000000000000000000000000000000000000008152f35b34611084575f3660031901126110845760206040517f00000000000000000000000000000000000000000000000000000000000000008152f35b34611084575f36600319011261108457602060405161a8c08152f35b34611084575f3660031901126110845760ff6001541660058110156111e357158061177c575b15158152602090f35b507f00000000000000000000000000000000000000000000000000000000000000009061a8c0820180921161119b5790421015611773565b9060028210156111e35752565b9060058210156111e35752565b9181601f840112156110845782359167ffffffffffffffff8311611084576020838186019501011161108457565b9190820391821161119b57565b908060209392818452848401375f828201840152601f01601f1916010190565b90601f8019910116810190811067ffffffffffffffff82111761184b57604052565b634e487b7160e01b5f52604160045260245ffd5b7f0000000000000000000000000000000000000000000000000000000000000000804210156118b757611897620151809142906117fc565b04601e81116118b157600e11156118ac575f90565b603290565b50606490565b505f90565b60025f54146118cb5760025f55565b633ee5aeb560e01b5f5260045ffd5b6118eb600160ff1981541617600155565b61195f7f00000000000000000000000000000000000000000000000000000000000000007f00000000000000000000000000000000000000000000000000000000000000006001600160a01b037f000000000000000000000000000000000000000000000000000000000000000016611961565b565b916020915f91604051906001600160a01b038583019363a9059cbb60e01b855216602483015260448201526044815261199b606482611829565b519082855af115611079575f513d6119de57506001600160a01b0381163b155b6119c25750565b6001600160a01b0390635274afe760e01b5f521660045260245ffd5b600114156119bb565b8151919060418303611a1757611a109250602082015190606060408401519301515f1a90611a81565b9192909190565b50505f9160029190565b60048110156111e35780611a33575050565b60018103611a4a5763f645eedf60e01b5f5260045ffd5b60028103611a65575063fce698f760e01b5f5260045260245ffd5b600314611a6f5750565b6335e2f38360e21b5f5260045260245ffd5b91907f7fffffffffffffffffffffffffffffff5d576e7357a4501ddfe92f46681b20a08411611af8579160209360809260ff5f9560405194855216868401526040830152606082015282805260015afa15611079575f516001600160a01b03811615611aee57905f905f90565b505f906001905f90565b5050505f916003919056fea26469706673582212209a5549f8f68c2713a5df329469d02a4052dd4657fb09c6e8e2998709afb4925864736f6c634300081c0033",
  "linkReferences": {},
  "deployedLinkReferences": {},
  "immutableReferences": {
    "19930": [
      {
        "length": 32,
        "start": 502
      },
      {
        "length": 32,
        "start": 2063
      },
      {
        "length": 32,
        "start": 2570
      },
      {
        "length": 32,
        "start": 3523
      },
      {
        "length": 32,
        "start": 4692
      },
      {
        "length": 32,
        "start": 5276
      }
    ],
    "19932": [
      {
        "length": 32,
        "start": 546
      },
      {
        "length": 32,
        "start": 985
      },
      {
        "length": 32,
        "start": 1420
      },
      {
        "length": 32,
        "start": 2326
      },
      {
        "length": 32,
        "start": 2867
      },
      {
        "length": 32,
        "start": 3309
      },
      {
        "length": 32,
        "start": 4321
      },
      {
        "length": 32,
        "start": 4366
      },
      {
        "length": 32,
        "start": 4937
      },
      {
        "length": 32,
        "start": 5210
      }
    ],
    "19934": [
      {
        "length": 32,
        "start": 930
      },
      {
        "length": 32,
        "start": 1805
      }
    ],
    "19936": [
      {
        "length": 32,
        "start": 862
      },
      {
        "length": 32,
        "start": 2151
      },
      {
        "length": 32,
        "start": 3141
      },
      {
        "length": 32,
        "start": 3906
      },
      {
        "length": 32,
        "start": 6417
      }
    ],
    "19938": [
      {
        "length": 32,
        "start": 424
      },
      {
        "length": 32,
        "start": 593
      },
      {
        "length": 32,
        "start": 1238
      },
      {
        "length": 32,
        "start": 2102
      },
      {
        "length": 32,
        "start": 2192
      },
      {
        "length": 32,
        "start": 2365
      },
      {
        "length": 32,
        "start": 2805
      },
      {
        "length": 32,
        "start": 3860
      },
      {
        "length": 32,
        "start": 3947
      },
      {
        "length": 32,
        "start": 4407
      },
      {
        "length": 32,
        "start": 4463
      },
      {
        "length": 32,
        "start": 6458
      }
    ],
    "19940": [
      {
        "length": 32,
        "start": 632
      },
      {
        "length": 32,
        "start": 1190
      },
      {
        "length": 32,
        "start": 1695
      },
      {
        "length": 32,
        "start": 1958
      },
      {
        "length": 32,
        "start": 2726
      },
      {
        "length": 32,
        "start": 3709
      },
      {
        "length": 32,
        "start": 5117
      }
    ],
    "19942": [
      {
        "length": 32,
        "start": 1157
      },
      {
        "length": 32,
        "start": 1920
      },
      {
        "length": 32,
        "start": 2760
      },
      {
        "length": 32,
        "start": 3672
      },
      {
        "length": 32,
        "start": 5084
      },
      {
        "length": 32,
        "start": 5649
      },
      {
        "length": 32,
        "start": 6384
      }
    ],
    "19945": [
      {
        "length": 32,
        "start": 3994
      },
      {
        "length": 32,
        "start": 5485
      }
    ],
    "19947": [
      {
        "length": 32,
        "start": 670
      },
      {
        "length": 32,
        "start": 4057
      },
      {
        "length": 32,
        "start": 5844
      }
    ],
    "19949": [
      {
        "length": 32,
        "start": 4095
      },
      {
        "length": 32,
        "start": 5902
      }
    ],
    "19951": [
      {
        "length": 32,
        "start": 708
      },
      {
        "length": 32,
        "start": 3601
      },
      {
        "length": 32,
        "start": 4739
      },
      {
        "length": 32,
        "start": 5022
      },
      {
        "length": 32,
        "start": 5343
      },
      {
        "length": 32,
        "start": 5575
      },
      {
        "length": 32,
        "start": 5786
      },
      {
        "length": 32,
        "start": 6015
      },
      {
        "length": 32,
        "start": 6241
      }
    ],
    "19953": [
      {
        "length": 32,
        "start": 746
      },
      {
        "length": 32,
        "start": 1568
      },
      {
        "length": 32,
        "start": 4778
      }
    ],
    "19974": [
      {
        "length": 32,
        "start": 1509
      }
    ]
  },
  "inputSourceName": "project/contracts/TravelEscrow.sol",
  "buildInfoId": "solc-0_8_28-4fcdb18056ccd947948e3acd56ca989af23af925"
}